S01900004D6F64627573446576656C6F706D656E742E737265631E
S214400000704B0020952740009127400091274000E4
S21440001091274000912740009127400000000000B3
S2144000200000000000000000000000009127400093
S2144000309127400000000000912740009127400093
S214400040912740009127400091274000912740008B
S2144000509127400091274000912740000000000073
S214400060192E4000252E400000000000890C40005C
S2144000709D0C40000000000091274000000000005A
S2144000800000000000000000000000009127400033
S214400090912740009127400091274000912740003B
S2144000A0912740009127400000000000000000001B
S2144000B0000000009127400000000000912740000B
S2144000C09127400091274000E912400010B5054CAA
S2144000D0237833B9044B13B10448AFF300800123AF
S2144000E0237010BDD404002000000000943240006D
S2144000F00C4B43B10C480D4910B5AFF300800C488B
S214400100036823B910BD0A48036833B97047094BE2
S214400110002BF7D0BDE810401847064B002BF5D013
S214400120184700BF0000000094324000D80400206A
S21440013094324000000000000E4900230B700E4A27
S21440014013800E4AA1201070202050705380938058
S2144001500220D08013810A4A4FF4E13010601371B8
S2144001605371082393710B780133DBB20B70012077
S214400170704700BFFB0400209005002028060020A2
S214400180F4040020024A1378013BDBB21370704738
S214400190FB040020044A1378013BDBB2137013784B
S2144001A00022024B1A707047FC040020F204002024
S2144001B000207047002070471D4B1B7813F0800FBF
S2144001C005D103F06003202B18D00020704703F0C1
S2144001D06003202B01D000207047154B5B78212B05
S2144001E024D1134BDB88072B01D000207047104BDF
S2144001F0104A9A6007229A81012070470C4B587823
S214400200202804D0222814BF002001207047084B25
S214400210DB88072B01D000207047054B064A1A6141
S214400220044A9A6007229A8101207047002070474E
S214400230140F0020F40400203D02400070470000E8
S214400240444B1B7803B1704770B584B0424B984717
S214400250002841D0414B1C88414B9847844276D079
S214400260EFF31083B3FA83F35B09039372B6BFF3DD
S2144002705F8F00223B4B1A70039D3B4B1C78E4B2C9
S2144002803A4B33F81430002B2DD00022384B1A80CE
S214400290384B1B78002B42D1B4FA84F35B09324AC0
S2144002A0137001222B4B1A7025B12E4B1A70BFF3D8
S2144002B05F8F62B626462D4B33F81430402B14BF62
S2144002C00125002534D0244B984700282BD0244BBA
S2144002D09847224B18802EE0204B1C88264B984788
S2144002E08442BDD133E0224A1388013313801A4B2F
S2144002F0984718B91E4B1B88632B08D9164B98474E
S2144003000028C2D01A4B1B88B3F5487FBDD2F5B142
S2144003100122144B1A70BFF35F8F62B617E0B4FA2F
S21440032084F46409BDE7144B98470C4B188002E0F0
S21440033000220A4B1A800D4B33F816300F4A0092B3
S2144003400F4A02EB8412294681200E4CA04704B087
S21440035070BD00BF24060020491D40002006002036
S214400360B51D4000A00000201C06002018060020F6
S214400370F004002094050020A51D4000890340009D
S214400380980500200D21400000B1704708B5074B86
S2144003901B78B3FA83F35B09054A22F81300054B32
S2144003A01870054B1870054B984708BD1C06002072
S2144003B01806002094050020240600204102400034
S2144003C008B50020014B984708BD00BF41024000D9
S2144003D082B0EFF31083B3FA83F35B09019372B6EE
S2144003E0BFF35F8F00220B4B1A7001990A4B188897
S2144003F083B20A4A1278D2B2094830F8120080B264
S214400400C01A29B10122034B1A70BFF35F8F62B640
S21440041002B07047A0000020880500208405002018
S2144004208005002008B5034B9847003018BF0120D0
S21440043008BD00BFD103400010B584B0EFF3108371
S214400440B3FA83F35B09039372B6BFF35F8F002260
S2144004501E4B1A70039B1E4A14781E4A12784AB9DD
S214400460E4B21D4A118889B21C4A32F8142092B26E
S214400470914209D23BB30122144B1A70BFF35F8FEF
S21440048062B6002004B010BD0021134A1180B4FAB1
S21440049084F252090E490A7001210E4A117023B1A6
S2144004A00A4B1970BFF35F8F62B600200C4B98471B
S2144004B00C4B009340230C4A02EB8412012102208D
S2144004C00A4CA047DEE70020DCE700BFA000002083
S2144004D0840500208C05002088050020800500202B
S2144004E02504400085054000000500200D21400001
S2144004F010B50024164B1C70164B1C70164B1C7007
S214400500164B1C70164B1C805C80164B1C8020467D
S214400510154B9847154B1C70154B1C70154B1C8083
S2144005205C80154B1C802046144B9847014640B1D2
S214400530074A13780133DBB213701378DBB2012B12
S21440054001D0084610BD01220D4B1A70F9E700BFD6
S214400550FC04002024060020940500201C060020F1
S2144005601806002020060020410240008C0500208E
S21440057084050020800500208805002039044000BE
S214400580F2040020E8B910B582B010460D4B1C7836
S214400590B4FA84F4640951B189B20B4B23F81410B1
S2144005A000200A4B18700A4B984702B010BD094B02
S2144005B000934023084A02EB84120121074CA047CF
S2144005C0F3E7704784050020800500208C05002056
S2144005D03904400085054000000500200D214000FC
S2144005E0104B1B681A6853881A4403781844904284
S2144005F011D24378042B10D08B4209D0037818448C
S214400600904206D24378042B09D08B42F6D107E0BD
S2144006107047002070470020704700207047002039
S214400620704700BF4006002008B5034B987800F09E
S2144006307F00024B984708BD140F00204D1D400018
S214400640194B1B784BB3194B1B681B681A798242AF
S21440065025D970B4164A13605C881C44A34220D245
S2144006600025012607E0124A13600FE01A7813446B
S2144006703546A3420CD25A78042AF7D19A78824259
S214400680F4D1DA788A42F1D1002DECD1012002E093
S214400690074A1360002070BC704700207047002057
S2144006A070470020F7E700BF3C06002040060020C9
S2144006B0440600202DE9F84304460021134B984792
S2144006C0804610B94046BDE8F883114B1B685B680E
S2144006D053F82490D9F80C309847014620460B4BE7
S2144006E0984780460028EDD00A4B1C6805260A4DE0
S2144006F00A4F31462046A847044610B18078B8478E
S214400700F7E7D9F804309847DCE700BF41064000D9
S2144007104006002044060020E1054000BD1E400083
S2144007202DE9F0418046104B98470346C8B10F4B21
S2144007301C6805260E4D0F4F31462046A8470446F6
S21440074038B18288C1788078B84703460028F3D10C
S21440075007E0094B1B685B6853F828301B689847CE
S21440076003461846BDE8F081410640004406002096
S214400770E1054000C51D40004006002008B5014B7D
S214400780984708BD6D1C400070B50D4B1B7883B173
S2144007900C4B1B681B681B795BB100240A4E094D45
S2144007A02046B0470134E4B22B681B681B79A3424D
S2144007B0F6D80022024B1A700122044B1A8070BDF4
S2144007C03C06002040060020B506400032060020C9
S2144007D038B50D4B1B78B3B10C4B1B681A681279B1
S2144007E08AB10024094D06E00134E4B22B681A6849
S2144007F01279A24207D95B6853F824301B69002B54
S214400800F2D09847F0E738BD3C060020400600206E
S214400810F8B5964B00229A811A615A611B7813F0FC
S214400820800F14D113F0600F00F0B8808F4B1B7808
S21440083003F01F03012B00F08B818C4B1B7803F0D9
S2144008401F03022B00F0AC8100231846F8BD874AF0
S214400850D288002A00F0CD8113F0600FE6D113F065
S2144008601F0306D181494978062913D0082958D054
S21440087049B1012B5CD0022BD8D17C4B5B78002B46
S2144008807ED0002360E1022AD0D102217848794BFD
S21440089098479FE0754B5A88130A013B0E2B00F28F
S2144008A05081DFE813F00F001C0036004E014E0169
S2144008B04E014E014E014E014E014E014E014E017B
S2144008C04E012E006C4B186801786A4B9847674B70
S2144008D0DA889B8993427DD9644B9A817AE0D2B27A
S2144008E0654B1B685B7C9342A0D9634B5B6853F8AF
S2144008F0320041885F4B98475C4B9B6802225A7097
S214400900E5E75D4B9868002890D04188594B98475A
S214400910DDE712F0FF0F89D104215848554B984720
S214400920D5E7012A82D101215548524B984751E0DC
S2144009304E4949780A299ED1012A7FF477AF504B19
S2144009401B78002B3FF472AF484B1C794D4B1D680B
S2144009502B681B79A3427FF669AF002120464A4B9D
S214400960984700283FF462AF6B6853F82430DB6842
S2144009709847464B1870012118463E4B984729E049
S214400980022A7FF453AF394B1879414B9847414B75
S214400990188002211846374B98471BE013F01F0378
S2144009A040F08280314A5278013A082A7CD8DFE803
S2144009B012F013007B00CA007B0009007B007B001E
S2144009C07B002300294BDB88002B7FF42FAF324A75
S2144009D0264B1A61012338E7244BDB88002B7FF433
S2144009E025AF224B5B88012B7FF420AF204A13882B
S2144009F023F002031380EDE71C4BDB88002B7FF4CB
S214400A0015AF264B984700283FF410AF174B9A78FF
S214400A10194B1B685B7C9A423FF708AF204B9847C0
S214400A20124B9B78164A1370002BD3D003F1005319
S214400A30013B114A526802EBC3001249086052F863
S214400A4033301B79002BC5D000242646154D0F4663
S214400A5031462046A84700283FF4E8AE0134E4B2C9
S214400A603B681B681B79A342F2D8B3E7140F0020FB
S214400A7032060020B91D4000280000209C000020BF
S214400A803C06002040060020410640003806002074
S214400A90151F40003406002029064000891D4000EE
S214400AA08907400021074000012B0AD0022B7FF423
S214400AB0BDAE524B5B78012B20D0032B2ED00023AB
S214400AC042E04E4A52780B2AF0D14C4BDB88002B42
S214400AD07FF4ACAE4A4B1B78002B3FF4A7AE474B97
S214400AE01C795D882046474B984700283FF49EAEC9
S214400AF0E9B22046444B9847034625E03F4BDB8807
S214400B00002B7FF493AE3D4B5B88002B7FF48EAE7C
S214400B103A4B18793D4B9847034615E0374BDB88F0
S214400B20002B7FF483AE354B5B88002B7FF47EAE84
S214400B30324C2079364B98472079364B98470346B7
S214400B4002E0002300E00023002B7FF47EAE6DE63B
S214400B502B4B1B78002B4ED0284B1C792E4B1D68F8
S214400B602B681B79A34201D800236EE6002120465D
S214400B702A4B984700283FF460AE6B6853F82450E1
S214400B80EB68984701462046244B984700283FF498
S214400B9054AEAB689847034600287FF456AE4CE602
S214400BA0174B1B780BB31C4B1A6813681B79F3B1B1
S214400BB000241A4E184F536853F82450EB68984751
S214400BC001462046B047034600283FF43EAEAB6899
S214400BD09847034600287FF438AE0134E4B23A68BA
S214400BE011680979A142E6D82FE600232DE60023B6
S214400BF02BE6002329E6002327E600BF140F00203B
S214400C003C060020B5064000210740003520400045
S214400C1089224000551F4000400600204106400003
S214400C202DE9F84381460F46124B984705464846FD
S214400C30114B9847054013D0104C04F1600603E072
S214400C40B4420DD010345DB12068B842F8D1616826
S214400C502942F5D0E3689847636825EA0305EFE73D
S214400C60074B1B6823B1074B1B680BB14846984798
S214400C70BDE8F8835F254000632540004806002015
S214400C802C0F0020B806002008B50B210148024B67
S214400C90984708BD000E0E40210C400008B50C21B8
S214400CA00148024B984708BD00100E40210C4000FA
S214400CB010B4AC2303600B684A68B3FBF2F31B091D
S214400CC05C1E4FF6FE7294420BD803628B684360FC
S214400CD040F20223C0F8203150230360002010BCAD
S214400CE070470120FBE740230360704710230360F2
S214400CF0704781607047C16070474069C0F34000EC
S214400D007047406900F001007047436913F0020FD6
S214400D101ABFC161002001207047436913F0010FDC
S214400D201DBF83690B7000200120704782B00146CA
S214400D3028BB244B1B781BB9224B197002B0704756
S214400D40214B9B7803B9FEE7EFF31083B3FA83F3A6
S214400D505B09009372B6BFF35F8F00221B4B1A707D
S214400D600098194A9378013B93700028E4D00122FA
S214400D70164B1A70BFF35F8F62B6DDE7FEE7114B86
S214400D801B78002BD8D1104B9B78FF2BF6D0EFF377
S214400D901083B3FA83F35B09019372B6BFF35F8F98
S214400DA000220A4B1A700198074A937801339370D1
S214400DB00028C1D00122054B1A70BFF35F8F62B680
S214400DC0BAE700BFBD0600200C0F0020A0000020A0
S214400DD0034A0023136153619381024A137070479C
S214400DE0140F0020C206002082B005220A4B1A705B
S214400DF00A4A136B0193019B43F04F030193019BF7
S214400E0043F020030193019B1363136B13F0200FF1
S214400E10FBD002B0704700BFC2060020004003402F
S214400E2082B003220A4B1A700A4A136B0193019B45
S214400E3043F04F030193019B43F010030193019B42
S214400E401363136B13F0100FFBD002B0704700BF54
S214400E50C20600200040034008B5024B1B6903B1A0
S214400E60984708BD140F002030B587B0634B1B78F9
S214400E70032B29D0624B1B88624A9489E41AA4B299
S214400E80002C44D1604A11880B449BB213805D4AC3
S214400E90D2889A4203D05D4B1B78002B2BD004227D
S214400EA0564B1A705A4A136B0193019B43F04F03FB
S214400EB00193019B23F001030193019B1363136B82
S214400EC013F0010FFBD114E0514A136B0093009BC3
S214400ED043F04F030093009B23F001030093009BD5
S214400EE01363136B13F0010FFBD14A4B98474A4BE1
S214400EF0984707B030BD434B5B69002B5DD09847A1
S214400F0000285AD000223E4B1A803E4B9C893F2CEC
S214400F1053D900223D4B1A7040243A4B9968384BBF
S214400F201888EFF31083B3FA83F35B09059372B620
S214400F30BFF35F8F0022394B1A70059D344B1B6BF5
S214400F4013F0020F3DD14CB101440A46304812F826
S214400F50013B0365531ADBB2A342F8D3284B1A88E9
S214400F6014441C802A4A136B0393039B43F04F039D
S214400F700393039B43F010030393039B1363136B8A
S214400F8013F0100FFBD0224A136B0493049B43F0DC
S214400F904F030493049B23F001030493049B1363C1
S214400FA0136B13F0010FFBD1002DA2D001221B4B77
S214400FB01A70BFF35F8F62B69BE70122134B1A701D
S214400FC0ABE72DB10122154B1A70BFF35F8F62B6A7
S214400FD004220A4B1A700E4A136B0293029B43F08C
S214400FE04F030293029B23F001030293029B136379
S214400FF0136B13F0010FFBD17BE700BFC206002046
S214401000BE060020140F0020C0060020BC060020AC
S21440101000400340590E4000D10D4000A000002083
S21440102038B5437C13F0100F16D00D46437C6FF353
S2144010300413437404687CB102F10C03074951F869
S214401040233013F4806F18BF42F080028168012D70
S21440105014BF00200120A04738BD00BF0040034019
S21440106030B482B0411E830003F1402303F5403381
S2144010701A6B1C6B12F0020F32D014F0400F08D1DE
S21440108001EB81022A4C04EB8202547C6FF383040A
S214401090547401EB8102264C04EB8202527C12F01F
S2144010A00C0F28D11A6B0092009A42F04F02009221
S2144010B0009A22F002020092009A1A631A6B12F00B
S2144010C0020FFBD180B303282ED001EB8101184BD1
S2144010D003EB81035A7C012161F383025A7423E0B7
S2144010E001EB8102124C04EB8202547C012565F32D
S2144010F083045474CDE71A6B0192019A42F04F0272
S2144011000192019A22F040020192019A1A631A6BE8
S21440111012F0400FFBD101EB8101054B03EB81013F
S2144011204B7C6FF383034B7402B030BC704700BFF8
S214401130C40600202DE9F04383B088468146461E0B
S21440114006EB8602664B03EB820393F811C0CCF3A2
S214401150810C002800F0B78003280CBF012302232F
S214401160634540F3B28006EB86035D4A02EB830399
S214401170DA689B689A4209D306EB8601584C04EB22
S2144011808101497C11F0400F00F0A38006EB8605F4
S214401190534901EB85056C681444991A2B8AC3F3AE
S2144011A00907B9423ABF0F464FF0010E4FF0000E06
S2144011B006EB86034A4901EB83033A44DA60072F7D
S2144011C02BD904F108033D46820002F1402202F585
S2144011D0403213F8081C116513F8071C116513F804
S2144011E0061C116513F8051C116513F8041C1165DF
S2144011F013F8031C116513F8021C116513F8011C43
S2144012001165083D0833072DE3D8A7F1080323F0FE
S214401210070308331C4407F007074FB1E319314969
S21440122009F1140914F8012B41F829209C42F9D100
S21440123006EB86032A4A02EB83030CF1010C5A7C28
S2144012406CF383025A74B8F1000F14D0800000F19A
S214401250402000F54030036B0193019B43F04F0361
S2144012600193019B43F010030193019B0363036BBF
S21440127013F0100FFBD0BEF1000F08D006EB86032C
S214401280174A02EB83035A7C6FF386125A7406EBB6
S2144012908603134A02EB8303DA689B689A421AD3A2
S2144012A006EB86030E4A02EB83035B7C13F0400F8B
S2144012B013D106EB860602EB8606737C43F080036A
S2144012C07374002002E001234AE7012003B0BDE822
S2144012D0F0830020FAE70120F8E70120F6E700BF98
S2144012E0C4060020004003402DE9F04F9BB0864BDB
S2144012F0984720B9854BDB6913F4807F3BD022208A
S214401300834B9847814B9B6913F4006F04D07F4B07
S214401310DB6913F4006F37D17C4BDB6913F0010FA8
S21440132000F0B681794B1B6B13F0040F33D1774B2B
S2144013301B6B13F0010F40F0C380744B1B6B13F014
S214401340020F40F0C080714B1B6B13F0080F00F08B
S2144013509F816E4A136B0093009B43F04F030093AC
S214401360009B23F008030093009B1363136B13F05A
S214401370080FFBD105E072B6BFF35F8F0022654BC6
S2144013801A701BB0BDE8F08F4FF400625F4B1A62D4
S214401390614B9847F5E7614B1B78CBB95B4B1B6BB2
S2144013A0C3F30A43082B18D0584A136B0193019B8A
S2144013B043F04F030193019B23F004030193019BE9
S2144013C01363136B13F0040FFBD1554B9847D8E7C4
S2144013D0544B9847544B9847E0E7544B03F108006A
S2144013E04A490A6D03F8012F8342FAD1504B984779
S2144013F098B9464A136B0293029B43F04F030293FD
S214401400029B23F004030293029B1363136B13F0B7
S214401410040FFBD1424B9847B3E7464B93F9003055
S214401420002B1DDB394A136B0593059B43F04F0396
S2144014300593059B23F004030593059B1363136BE9
S21440144013F0040FFBD13B4BDB88002B35D0002339
S214401450394A1380394A13800122304B1A7090E77C
S2144014602A4A136B0393039B43F04F030393039B58
S21440147043F080030393039B1363136B13F0800FB7
S214401480FBD0224A136B0493049B43F04F03049310
S214401490049B23F004030493049B1363136B13F021
S2144014A0040FFBD10023244A1380244A13800222CF
S2144014B01A4B1A70224B984763E7224B984760E7CF
S2144014C01F4B98475DE7154B1B78012B3CD0022BF2
S2144014D004D0042B02D0124B984701E0114B98479A
S2144014E00A4A136B0693069B43F04F030693069BEC
S2144014F023F002030693069B1363136B13F0020F4D
S214401500FBD1094B98473CE7412740000040034049
S21440151065264000A0000020D1074000C2060020FB
S214401520E90D4000590E4000D10D4000130F002039
S21440153011084000140F0020C0060020BE06002000
S214401540690E4000210E4000934B196BC1F30A41CF
S214401550924B9B89924A15886A189342BCBF5B1B84
S21440156099B28E4B9868284471B102468A4C236DD6
S21440157002F8013B131ADBB28B42F8D30D44ADB2EE
S214401580874B1D8040291AD0844B9D815B6913B1DF
S2144015909847002830D0804A136B0893089B43F046
S2144015A04F030893089B23F002030893089B13639A
S2144015B0136B13F0020FFBD17A4B9847E1E6774B5B
S2144015C0DA88794B1B882B449A42DDDD734B9B8926
S2144015D0AB4225D0704A136B0B930B9B43F04F03E3
S2144015E00B930B9B23F002030B930B9B1363136B22
S2144015F013F0020FFBD1C4E66C4B9847664A136B58
S2144016000793079B43F04F030793079B23F0020380
S2144016100793079B1363136B13F0020FFBD1B0E6DF
S2144016205E4B5B6953B19847E8B15F495C4A0B88AB
S214401630108803440B8000231380CBE75B4B98470E
S214401640554A136B0993099B43F04F030993099B33
S21440165023F002030993099B136313461A6B12F097
S214401660020FFBD18DE6514B98474B4A136B0A93BA
S2144016700A9B43F04F030A930A9B23F002030A9304
S2144016800A9B136313461A6B12F0020FFBD178E6DF
S214401690474A0123DFF800E118467FE107EB87025F
S2144016A0434B03EB8203B3F810A0CAF3090A236B3B
S2144016B0C3F30A49B9F1000F00F0DF813C4B03EB5E
S2144016C08203D3F808E0DA68AEEB02005968484572
S2144016D040F2C78107EB8700354B03EB800302EBF4
S2144016E00900D86048464FF0000B11440B46226D67
S2144016F003F8012B5A1A8242F9D330462D4B9847AD
S214401700BBF1000F00F0BC81236B13F0200F7FF479
S21440171038AE214B5D61264BBA00D11903EB8101EF
S214401720CB688B60324600214046234B984728E6DC
S21440173007EB87021E4B03EB8202537CC3F3810107
S214401740033161F383035374537C13F0200F5FD04F
S21440175013F00C0F32D0236B0C930C9B43F04F03CB
S2144017600C930C9B43F010030C930C9B2363236B4E
S21440177013F0100FFBD0236B0D930D9B43F04F03DC
S2144017800D930D9B23F001030D930D9B2363236B59
S21440179013F0010FFBD1F4E500400340140F002086
S2144017A0BE060020210E4000C0060020E90D400085
S2144017B0C40600206110400021104000236B0E93A9
S2144017C00E9B43F04F030E930E9B23F001030E93A4
S2144017D00E9B2363236B13F0010FFBD1236B0F93F8
S2144017E00F9B43F04F030F930F9B43F020030F9341
S2144017F00F9B2363236B13F0200FFBD007EB870769
S214401800A14B03EB87035A7C6FF345125A74B8E535
S21440181013F0800F38D107EB87029B4B03EB820314
S214401820DA689B689A4241D307EB8702964B03EBF4
S21440183082035B7C13F04C0F38D1EFF31083B3FA7E
S21440184083F35B09109372B6BFF35F8F00228F4B12
S2144018501A70109B8E4A55612BB101228B4B1A7021
S214401860BFF35F8F62B6236B1193119B43F04F0318
S2144018701193119B23F001031193119B2363236B58
S21440188013F0010FFBD17CE514237F4A03FB0723AB
S214401890597C6FF3C7115974DA689A607C4B5D6166
S2144018A03246002140467B4B9847B4E7002E5BD03B
S2144018B0032E59D007EB8702734B03EB82035B7C06
S2144018C013F00C0F24D0236B1293129B43F04F035C
S2144018D01293129B43F010031293129B2363236BC5
S2144018E013F0100FFBD0236B1393139B43F04F035F
S2144018F01393139B23F001031393139B2363236BD0
S21440190013F0010FFBD100213046634B984738E572
S21440191001213046604B9847A0B1236B1493149B2B
S21440192043F04F031493149B23F001031493149B2A
S2144019302363236B13F0010FFBD100213046564B37
S21440194098471EE51423504A03FB07277A7C6FF31B
S214401950C7127A74FB68BB604D4B5D61324600210E
S21440196040464C4B9847D8E7012130464A4B98476B
S214401970236B1593159B43F04F031593159B23F04C
S21440198001031593159B2363236B13F0010FFBD1C3
S214401990F7E401331432042B00F08680DEB2DEF822
S2144019A0181000FA03F52942F3D05F1E90469C00BB
S2144019B004F1402404F54034216B11F0420F7FF4CB
S2144019C06DAE216B11F0010F7FF4B2AE216B11F0BA
S2144019D0080FDED0236B1693169B43F04F031693E7
S2144019E0169B23F008031693169B2363236B13F072
S2144019F0080FFBD1236B03F4E063B3F5807F3FF41D
S214401A00C0AC236BBDE4224BDB6913F4005F50D0BF
S214401A101F4C4FF418532362636101201F4B9847B5
S214401A204FF48073236223614FF400632361A8E47C
S214401A30174B4FF480721A625A614FF400521A6183
S214401A404FF400721A614FF480621A612220144BE0
S214401A5098470020114B984793E43046114B9847DF
S214401A6052E607EB870C084B03EB8C03C3F80CE0FD
S214401A700028F2D04FF0010B37E63046094B984726
S214401A80CA453FF641AE7CE4C4060020A0000020D4
S214401A900040034021104000351140002D0D40000D
S214401AA0B9264000611040004B4B9B6913F4005F21
S214401AB0A9D1494B9B6913F4007F04D0464BDB69A0
S214401AC013F4007FA4D1444B9B6913F4806F04D079
S214401AD0414BDB6913F4806F9AD13F4B9B6913F4FB
S214401AE0807F04D03C4BDB6913F4807FA0D13A4B17
S214401AF0DB6913F4805F3FF444AC374C4FF48053BB
S214401B002362364E012211463046354DA847022202
S214401B10012106F11400A8470322012106F12800FE
S214401B20A847304B9847636823F0010363606368B7
S214401B3023F002036360A36843F48073A360A36842
S214401B4023F07F03A360236B1893189B43F04F0347
S214401B501893189B23F4074323F080031893189B8D
S214401B6043F400431893189B23632246136B13F4E5
S214401B70004FFBD0184A136B1993199B43F04F0341
S214401B801993199B43F400431993199B1363136BE2
S214401B9013F4004FFBD0EFF31083B3FA83F35B09E3
S214401BA0179372B6BFF35F8F00220F4B1A70179BC6
S214401BB00121094A116123B10B4B1970BFF35F8FA6
S214401BC062B60A4B9847044B4FF480721A614FF442
S214401BD000621A61FFF7D5BB00400340C4060020F0
S214401BE02110400089074000A0000020D10D400091
S214401BF010B582B0EFF31083B3FA83F35B09019319
S214401C0072B6BFF35F8F0022144B1A70019C0120FE
S214401C10134B98472220134B9847134B5A6F22F486
S214401C2080725A675A6F42F400725A674FF4807255
S214401C301A614FF400521A614FF400721A614FF461
S214401C4080621A614FF400621A612CB10122034B84
S214401C501A70BFF35F8F62B602B010BDA0000020BE
S214401C602D0D4000652640000040034030B583B04F
S214401C70EFF31083B3FA83F35B09009372B6BFF3B6
S214401C805F8F0024274B1C70009D2220264B9847D0
S214401C90264B9847264B502283F8222304225A602C
S214401CA0234624489A00D11800EB8101497C1A4407
S214401CB000EB820201F083016FF3C71151740133C8
S214401CC0032BEFD14FF480201B4B984700221B4B31
S214401CD01A701B4B1B78FF2B22D0EFF31083B3FAFE
S214401CE083F35B09019372B6BFF35F8F00220D4BFF
S214401CF01A700199124A13780133137029B10122E0
S214401D00084B1A70BFF35F8F62B60E4B98472DB1E3
S214401D100122044B1A70BFF35F8F62B603B030BD2A
S214401D20FEE700BFA000002065264000ED234000EF
S214401D3000E100E0C40600202D274000BD0600203C
S214401D400C0F0020F11B4000002070470D4B5A68D6
S214401D5022F001025A609A6822F480729A60024623
S214401D6070B1986820F07F0002F07F0210439860C0
S214401D709A6842F480729A605A6842F001025A6049
S214401D80704700BF00400340054B5B6813F0010FEF
S214401D901DBF034B986800F07F000020704700BFCF
S214401DA000400340024B1868C0F30A00704700BF6B
S214401DB00040034000207047014B9860998170476F
S214401DC0140F0020F0B583B000F00F04032C67D842
S214401DD0A30003F1402303F540331D6B15F4004F79
S214401DE061D101F00305012D50D0251FEDB2022D23
S214401DF034BF4FF400754025954258DB40B2661E0E
S214401E0006EB86072B4D05EB870505F11007B5F861
S214401E1010E062F3090EA5F810E06A7C02F07F023B
S214401E206FF345126A74002835DB234EB56A0122EB
S214401E3002FA04F42543B5623546AA6A1442FCD039
S214401E401D4DAA6A22EA0404AC621A6B0192019AFA
S214401E5042F04F020192019A22F4074222F0800299
S214401E60019200284FEA012202F44072B4BF42F4C5
S214401E70044242F4004201991143019101991963C9
S214401E80196B32EA0101FBD101200AE06CB1032C48
S214401E90ABD1002005E07A786FF383027A70C4E70E
S214401EA0002003B0F0BD0020FBE70020F9E700204B
S214401EB0F7E700BFC40600200040034000F00F02D2
S214401EC0032A22D800B583B0910001F1402101F5E4
S214401ED040310B6B0193019B43F04F030193019BF1
S214401EE023F400430193019B0B630B6B13F4004FE9
S214401EF0FBD1501E00EB80000121044B03EB800019
S214401F00034B984703B05DF804FB7047C4060020B7
S214401F102110400000F00F00032815D8431E03EBA5
S214401F2083030A4A02EB83035B7C13F0200F09D13C
S214401F300C30074B53F8203013F0280F14BF012005
S214401F40002070470120704700207047C4060020DC
S214401F500040034000F00F0103295FD810B483B05F
S214401F60EFF31083B3FA83F35B09019372B6BFF3C2
S214401F705F8F00222C4B1A70019C10F0800F24D1EA
S214401F808A0002F1402202F54032136B0093009B18
S214401F9043F04F030093009B43F020030093009BC5
S214401FA01363136B13F0200FFBD0012303FA01F1E8
S214401FB01E4B1961002C35D001201B4B1870BFF307
S214401FC05F8F62B603B010BC70474B1E01F10C0227
S214401FD0164850F8222012F0100F09D103EB830266
S214401FE0134800EB8202527CC2F38102012AC7DD0D
S214401FF003EB83020E4B03EB82035A7C42F0200233
S2144020005A74012303FA01F1084B196144B10120C7
S214402010054B1870BFF35F8F62B6D3E7002070475A
S2144020200120CFE70120CDE7A0000020004003407C
S214402030C406002000F00F0003285ED830B583B0F9
S214402040441E04EB84022F4B03EB82035A7C6FF34F
S21440205045125A74830003F1402303F540331A6B4C
S21440206012F0200F4BD01A6B0092009A42F04F02AB
S2144020700092009A22F020020092009A1A631A6B8D
S21440208012F0200FFBD1204DA96A012202FA00F07F
S2144020900143A96229468A6A1042FCD01A498A6AD4
S2144020A022EA000088621A6B0192019A42F04F02BF
S2144020B00192019A22F008020192019A1A631A6B61
S2144020C012F0080FFBD104EB84030E4A02EB8303A5
S2144020D05B7C13F0100F01D1012011E01146A200E5
S2144020E0131901EB8303587C6FF30410587414449F
S2144020F051F824309847012002E000207047012024
S21440210003B030BDC406002000400340F0B583B0A5
S21440211000F00F07032F00F2A280BC0004F1402419
S21440212004F54034256B15F4004F00F09B807D1E6F
S21440213005EB850E504E06EB8E06767C16F0200F8D
S21440214040F09280266B16F0200F40F08F80EFF321
S2144021501086B6FA86F67609009672B6BFF35F8F9B
S2144021604FF0000E454E86F800E0DDF800C005EB67
S214402170850E414E06EB8E06767C16F0100F0AD082
S214402180BCF1000F74D001223C4B1A70BFF35F8F36
S21440219062B6002064E005EB850E374E06EB8E06F1
S2144021A096F811E04EF0100E86F811E0BCF1000FE4
S2144021B007D04FF0010E314E86F800E0BFF35F8F38
S2144021C062B6DFF8B4C005EB8506B6000CEB060E2B
S2144021D0CEF80420CEF808300022CEF80C20089A1C
S2144021E04CF8062011B9B3FA83F14909224AAE00E9
S2144021F0731902EB83035B7C61F38613354402EB71
S21440220085026FF3C7135374EFF31083B3FA83F367
S2144022105B09019372B6BFF35F8F0022174B1A70AB
S214402220019D0123BB40164A136110F0800F07D171
S21440223005B30120114B1870BFF35F8F62B60FE0F5
S214402240236B13F0110FF3D1012138460D4B9847FD
S2144022500028EDD0002138460A4B9847E8E7002092
S21440226003B0F0BD0020FBE70020F9E70020F7E7C9
S2144022700020F5E70120F3E7C4060020A000002078
S2144022800040034035114000F0B587B000F00F0520
S214402290032D40D8EFF31083B3FA83F35B0905931D
S2144022A072B6BFF35F8F00224B4B1A70059B01241A
S2144022B0AC404A4A54612BB10122474B1A70BFF3D7
S2144022C05F8F62B610F0800F27D1AE0006F1402631
S2144022D006F54036336B13F0420F06D0404F284683
S2144022E0B847336B13F0420FF9D13C4A936A234305
S2144022F09362936A1C42FCD0384A936A23EA0404E9
S2144023009462681E00EB80002A460121354B03EBA1
S2144023108000354B984707B0F0BDAB0003F1402333
S21440232003F540331A6B12F0100F3AD04DB3032D1D
S21440233027D01A6B0192019A42F04F020192019AFD
S21440234022F010020192019A1A631A6B12F0100FD3
S214402350FBD11A6B12F0100FFBD11A6B0292029A45
S21440236042F04F020292029A42F010020292029A01
S2144023701A631A6B12F0100FFBD01A6B12F0100F84
S214402380FBD01A6B0392039A42F04F020392039AD1
S21440239022F010020392039A1A631A6B12F0100F7F
S2144023A0FBD11A6B0492049A42F04F020492049AAC
S2144023B022F001020492049A1A631A6B12F0010F7B
S2144023C0FBD16B1E03EB8302064B03EB82035A7C66
S2144023D06FF383025A7488E7A00000200040034051
S2144023E061104000C40600202110400010B5202097
S2144023F00A4B98470A4CA0470028FCD0094B984700
S214402400094A0A4BDA620A4CA0470028FCD0012051
S214402410084B9847084B984710BD00BFCD25400055
S2144024201926400049264000023F0F0000040E4097
S214402430552640000D2740002127400010B50E4885
S2144024400E4B984720200E4B98470E4CA04700282E
S214402450FCD00D4B98470D4A0D4B9A620D4CA04749
S2144024600028FCD010200C4B98470C4B984702484D
S214402470024B984710BD00BF000E27075129400069
S214402480CD2540001926400029264000013F132054
S21440249000040E403926400069254000412840008F
S2144024A001637047416370474264B1F1C05F39D001
S2144024B013D8B1F1006F25D0B1F1805F0AD1036F18
S2144024C013430367436F416F0B4023EA020343679E
S2144024D0426070470029FBD17047B1F1205F20D0A1
S2144024E009D8B1F1005FF3D1036F13430367436F1D
S2144024F013434367ECE7B1F1405F12D0B1F1605F40
S2144025000FD0E5E710B4016F046FD34321401C465B
S21440251019400167436F416F0B4023404367426059
S21440252010BC7047036F016F0B4023EA020303673A
S214402530436F13434367CBE710B4019C416444B9EF
S214402540016643B1016542B941630161016010BC57
S21440255070474166F5E74165F5E70163F5E7C06C0E
S2144025607047806C70470000174A136B23F0700367
S21440257018431063936E13F0080F0AD14FF40063AC
S21440258011498A6E12F0080F03D1013BF9D10120A0
S21440259070470D4A136B23F0030343F002031363A3
S2144025A0936E13F0080F0AD14FF4006306498A6E03
S2144025B012F0080F05D1013BF9D1012070470020E9
S2144025C070470020704700BF00040E4011490A6A59
S2144025D042F45C1242F008020A620A46936E13F412
S2144025E0003FFBD00B4A136A23F45C1323F07003BE
S2144025F043F45C1318431062936E13F4003FFBD011
S214402600044A136A23F09B7323F4803343F45C1329
S2144026101362704700040E40024B986E00F4803000
S214402620704700BF00040E404FF00052014B9A62C4
S214402630704700BF00040E40024B986E00F0020048
S214402640704700BF00040E400022014BDA6270471C
S21440265000040E40024B986E00F00400704700BF26
S21440266000040E4022281ED81F280CD8114B9A6909
S21440267001238340934318D0012303FA00F00D4B07
S21440268018610020704720380A4BD3F808210123F0
S214402690834093430BD0012303FA00F0054BC3F865
S2144026A0000100207047012070470020704700203E
S2144026B0704700BF00040E40222822D81F280ED89C
S2144026C0114B9A6901238340934301D00020704701
S2144026D0012303FA00F00C4B586100207047203865
S2144026E0094BD3F8082101238340934301D00020AF
S2144026F07047012303FA00F0034BC3F8040100209F
S21440270070470120704700BF00040E40000200F4EE
S214402710706040F00100014B9863704700040E4023
S2144027208022014B1A60704700040E40034B1A6F1C
S214402730C0F3120010431867704700BF00040E40F5
S214402740024B187880F00100704700BF0007002059
S21440275010B582B0084A536843F400435360074BB1
S2144027609847012300934FF40033054A054906482D
S214402770064CA04702B010BD50140E407D074000E6
S214402780000E0E4020A1070000080E40412C4000DD
S214402790FEE7000008B5214B214A9A4228D9214B32
S2144027A01E4A9A420CD2013B9B1A23F00303043381
S2144027B013441B4951F8040B42F8040B9A42F9D1D2
S2144027C000BF194B194A9A420AD2013B9B1A23F082
S2144027D0030304331344002142F8041B9A42FBD1FE
S2144027E0134B144A9A60144B9847144B9847FEE78D
S2144027F00A4B0B4A9A42E3D20A4B0848181A11462B
S214402800043A02440028DBD0C1F1040152F804091E
S21440281043F8040DCA42F9D1D2E700BF00000020B9
S21440282094324000D40400206C1B0020D4040020C6
S21440283000ED00E000004000FD304000E130400088
S2144028403C4B1B6B03F00303032B0ED8DFE803F06F
S214402850021C3838384B5B6913F0800F14BF4FF4B6
S21440286000424FF4FA42354B1A60324B1B6B03F072
S2144028707003702B55D02F4B1A6B3049C2F302129F
S2144028800B68D3400B6070472A4B1B6A13F0807F5F
S21440289003D02B4A294B1A60E7E72A4A274B1A608F
S2144028A0244B1B6A03F07003102B05D0202BDCD181
S2144028B0234A224B1A60D8E7234A204B1A60D4E7B3
S2144028C01C4B1B6A13F0807F18D01D4A1B4B1A60A6
S2144028D0184B1B6B03F00303022B164A07BF916A83
S2144028E0926AD16AD26A1548C1F30A41036801FB6D
S2144028F00333D2B2B3FBF2F30360B6E7114A0F4B91
S2144029001A600C4B1B6A03F07003102B05D0202B6B
S214402910DED10B4A094B1A60DAE70B4A074B1A60BE
S214402920D6E7064A13680949A1FB03135B08136000
S214402930704700BF00040E4010140E40A400002054
S214402940001BB70000093D0000127A00ABAAAAAAF5
S214402950124B984211D9124B984213D9114B9842B8
S21440296014D9114B984215D9104B984294BF4FF04A
S21440297004220F4A0F4B1A6070474FF080620D4B8F
S2144029801A6070470C4A0B4B1A6070470B4A094B4B
S2144029901A6070470A4A074B1A607047FF2C31018D
S2144029A0FF596202FF869303FFB3C404FFE0F505B8
S2144029B000050004000A0E40000100040002000466
S2144029C000030004F0B50C46FF2915DC174691427B
S2144029D012DA831C364D05EB410535F8021F1846C2
S2144029E00E0A03F8026C03F8011C0134B4F5807F2C
S2144029F005D00233BC42F0DBB4F5007F3ADA9446A9
S214402A00944251DA2B4B03EB840E2B4E06E00430F7
S214402A100134B4F5007F30D0644512D05EF8043FF0
S214402A20190E3170190C7170190AB170F370314675
S214402A30431EC71C11F8015B03F8015FBB42F9D186
S214402A40E5E70346B4F5407F30DBB4F5806F2DDA1A
S214402A5094422BDA19492144C4F580651D44121B63
S214402A601A4411F8010F03F8010B9D421ED09A42FA
S214402A70F7D1F0BDB4F5407F14DAA24216DD104916
S214402A802144C4F540750544161B06440346201AE7
S214402A9011F8014F03F8014B1C18AB42D5D0B34296
S214402AA0F6D1F0BD0346D0E70346CBE7F0BD00BF06
S214402AB03E1900203011002004070020330D00206E
S214402AC02F0D0020F0B50B46FF2916DC1446914228
S214402AD013DA851C374800EB4101284615F8027C7E
S214402AE015F8016C46EA072621F8026F0133B3F564
S214402AF0807F05D00235A342EFDBB3F5007F3CDA9A
S214402B0096469A421BDD041D2B4E06EB8306204656
S214402B1014F8047C14F8031C090441EA076114F80D
S214402B20017C394314F8027C41EA072146F8041F29
S214402B300133B3F5007F23D004347345E7D1B3F5B2
S214402B40407F35DBB3F5806F32DA934230DA0138B6
S214402B50A3F2013319490B4401F1FF04A2F20132FA
S214402B60114410F8012F003218BF012203F8012F3C
S214402B70A3421DD08B42F4D1F0BDB3F5407FE1DADD
S214402B809A4215DDA3F201210D4D294405F1FF07B8
S214402B90A2F201242C4406461D1A16F8013B01F801
S214402BA0013F3046AB19B942CCD0A142F5D1F0BD79
S214402BB0F0BD00BF3E190020301100203410002028
S214402BC0300F0020FF2822D8FF291CD9C0F580707E
S214402BD0400083B24FF48070B1F5007F23D3C0F538
S214402BE0007003EB800083B24FF40070B1F5407F75
S214402BF020D303F54073181A83B24FF4407019443B
S214402C00081A80B27047081A400080B27047B0F584
S214402C10007F06D3B0F5407F0AD3B0F5806F0DD362
S214402C2070470023D8E7081A03EB800080B270474D
S214402C300023DBE71944081A80B270470023DEE71A
S214402C402DE9F04186B00F4616461D462E4B1860BD
S214402C502E4B9DF830201A702D4B984227D02A4B89
S214402C601A682C4B9A4239D0274C2B4B0393049727
S214402C704FF40063059303A92068284B98472068C3
S214402C80274B98472068274B984701212068264BBA
S214402C90984700220092134629463046234CA047C8
S214402CA0234B1E60234B1D6006B0BDE8F081082014
S214402CB0214B9847DFF88C804FF400724FF000614C
S214402CC040461E4CA0474FF480624FF0006140469D
S214402CD0A0474FF480721A4B1A60C0E70920164B83
S214402CE09847DFF8648004224FF000614046134C5A
S214402CF0A04708224FF000614046A0474FF40072BC
S214402D000F4B1A60B0E700BF30100020441B002075
S214402D1000060E4000080E40000E2707B10C40008B
S214402D20ED0C4000E70C4000F30C40003925400015
S214402D30341900203C19002065264000A924400094
S214402D4000E100E0000E0E4000100E4010B582B0CC
S214402D50234B1868234B9847D8B1234B1B7873B93D
S214402D60224C2188043121441D4B1868204B98473B
S214402D7023880133C3F30903238002B010BD0DF14D
S214402D800701174B18681A4B98470022164B1A70C3
S214402D90F3E7134B1868174B98470028EDD0164BAF
S214402DA01B88164A12889A420ED8154B1968154B3E
S214402DB01868154B98470221094B1868134B9847DB
S214402DC00122094B1A70D8E7114AD15C044B1868A7
S214402DD0104B9847084A138801331380CDE700BF4D
S214402DE030100020030D4000401B0020080B002040
S214402DF01B0D4000FB0C40003A190020421B0020EF
S214402E003C19002034190020A5244000F70C40004F
S214402E10341100200B0D400008B5014B984708BD03
S214402E204D2D400008B5014B984708BD4D2D40003C
S214402E300D4B1988A9B110B40C4B5B880C48421E48
S214402E4001390844094CE118097902F8011F013399
S214402E50C3F309038242F6D1044A5380044810BCA7
S214402E6070470348704700BF38190020080B002001
S214402E7008070020044B18885B88984238BF00F546
S214402E808060C01A80B27047080B0020002916DD0B
S214402E9010B4044601444FF6FF704AF2010201E0C6
S214402EA08C420FD014F8013B5840082310F0010F15
S214402EB014BF82EA50004008013BF7D1F0E74FF6D6
S214402EC0FF70704710BC7047F8B500AF00223C4B0F
S214402ED01A803C4B5C88621CC2F3090213441B797F
S214402EE0102B59D0032B49D00020BD46F8BD364B99
S214402EF0984709283ED9A31DC3F30902314B134412
S214402F001B79092555E02E4B1D80A91E6B1D23F00D
S214402F100703ADEB030D684600290EDD0D466D44F4
S214402F206A46DFF8A0E0261AB318C3F309037344D1
S214402F301B7902F8013BAA42F6D10C44214D631C92
S214402F40C3F309032B441E79204B9847C4F3090466
S214402F502C442279C0F30F239A4206D00222184B03
S214402F601A801B4B98470020BFE7C0B2B042F5D14D
S214402F700120BAE70020B8E70020B6E7C4F309020C
S214402F80104B13441B7973B9A31CC3F309020D4BB2
S214402F9013441B7905250CE0C4F30902094B13447E
S214402FA01B79002BA3D1084B98470728E4D908255E
S214402FB000231D44044B98478542A4D9002094E73B
S214402FC038190020080B0020752E40008D2E40003A
S214402FD0312E4000F8B5324B9847052800D8F8BD4A
S214402FE0304B98470028FAD02F4B98470446027833
S214402FF02E4B1B789A42F2D18578C07840EA052657
S2144030002179627942EA01276378032B1DD0102B81
S2144030102ED0274B1D88AE1E264C31462046264BCA
S21440302098470312A3552C4404F8010C234B196807
S214403030234B1868234B98470022234B1A800221C3
S214403040224B1868224B9847C9E739463046214BF1
S2144030509847421D164B1A80164B00221A7062780B
S2144030605A7098703A463146D81C1B4B9847D0E762
S2144030704FF0080E0E4BA3F800E00E4B4FF0000E3C
S21440308083F800E094F801E083F801E09D70D87082
S21440309019715A713A463146E01D104B9847B8E7C9
S2144030A0752E4000C92E4000312E4000441B0020A3
S2144030B0421B0020341100208D2E40003C19002079
S2144030C034190020A12440003A1900203010002076
S2144030D0F30C4000C52B4000C5294000C52A4000DF
S2144030E008B5034B9847034B9847034CA047FDE76A
S2144030F03D24400051274000D52F400070B50F4E6C
S2144031000F4D761BB61018BF002405D0013455F875
S214403110043B9847A642F9D10A4E0B4D761B00F069
S214403120A7F8B61018BF002406D0013455F8043B63
S2144031309847A642F9D170BD70BD00BF7C324000B2
S2144031407C324000843240007C324000024B13B157
S214403150024800F005B87047000000006D3140009E
S214403160002301461A46184600F01EB838B50A4CE9
S2144031700A4D641BA4100AD004F18043013B05EBC2
S2144031808305013C55F804399847002CF9D1BDE831
S214403190384000F077B800BF94324000903240008C
S2144031A0704700BF704700BF2DE9F8432C4D0646D8
S2144031B0286898460F469146FFF7F2FF294B1C6851
S2144031C0D4F84831002B3ED05A681F2A1CDC02F146
S2144031D0010E76B103EB82010124C1F88890D3F842
S2144031E0880194402043022EC3F88801C1F8088124
S2144031F023D00232C3F804E0286843F82270FFF771
S214403200D1FF0020BDE8F883174B0BB34FF4C870CE
S214403210AFF300800346D8B1D4F8482102600021BD
S21440322041600A46C4F848014FF0010EC0F88811C4
S214403230C0F88C11002EDCD0CCE7D3F88C110C43B0
S214403240C3F88C41D5E704F5A673C4F84831BBE70C
S2144032502868FFF7A7FF4FF0FF30BDE8F88300BFB0
S214403260D00400206C32400000000000A80000207F
S214403270F8B500BFF8BC08BC9E4670474D314000CC
S214403280F1004000F8B500BFF8BC08BC9E46704749
S208403290CD004000E8
S2144032943901400085014000B9014000B5014000B5
S2144032A400000000F104400095014000B1014000D8
S2144032B4B5014000C10340008000002034000020D7
S2144032C4000000003C000020940000200902430057
S2144032D4020100C032090400000102020100052474
S2144032E400100104240202052406000105240103FB
S2144032F4010705830340001009040100020A000088
S2144033040007058102400000070502024000000055
S2144033141201000202000040EB03042400010000F6
S21440332400010000000000201400002004030904EB
S2144033340100000000093D00000000009403002046
S214403344FC0300206404002000000000000000008D
S2144033540000000000000000000000000000000024
S2144033640000000000000000000000000000000014
S2144033740000000000000000000000000000000004
S21440338400000000000000000000000000000000F4
S21440339400000000000000000000000000000000E4
S2144033A400000000000000000000000000000000D4
S2144033B400000000000000000000000000000000C4
S2144033C400000000000000000000000000000000B4
S2144033D400000000000000000000000000000000A4
S2144033E401000000000000000E33CDAB34126DE641
S2144033F4ECDE05000B0000000000000000000000AA
S2144034040000000000000000000000000000000073
S2144034140000000000000000000000000000000063
S2144034240000000000000000000000000000000053
S2144034340000000000000000000000000000000043
S208403764481B002099
S804402795FF
