:020000040040BA
:10000000D03A0020411640003D1640003D16400009
:100010003D1640003D1640003D1640000000000027
:100020000000000000000000000000003D1640003D
:100030003D164000000000003D164000B50640009F
:100040003D1640003D1640003D1640003D16400064
:100050003D1640003D1640003D1640003D16400054
:100060003D1640003D1640000000000079114000A0
:100070008D114000A11140003D1640003D1640008A
:1000800000000000000000003D1640003D1640004A
:100090003D1640003D1640003D1640003D16400014
:1000A0003D1640003D1640003D1640003D16400004
:1000B0003D164000C50640003D1640003D1640007C
:1000C0003D1640003D1640003D16400010B5054C61
:1000D000237833B9044B13B10448AFF300800123F4
:1000E000237010BDB809002000000000A84E400099
:1000F0000C4B43B10C480D4910B5AFF300800C48D0
:10010000036823B910BD0A48036833B97047094B27
:10011000002BF7D0BDE810401847064B002BF5D058
:10012000184700BF00000000A84E4000BC09002096
:10013000A84E40000000000010B53648364B9847E6
:10014000364B1B78002B0CBF582120213448354BEF
:100150009847324B1B78012B0CBF58212021324885
:10016000304B98472D4B1B78022B0CBF5821202178
:100170002E482C4B9847294B1B78032B0CBF58213A
:1001800020212B48274B9847244B1B78042B0CBF6E
:10019000582120212748234B9847204B5B78002B80
:1001A00014BF4521442124481E4B98471B4B9B7884
:1001B000002B14BF4521442120481A4B9847174B68
:1001C0005B79002B14BF452144211D48154B9847EE
:1001D000124BDB78002B14BF452144211948114BE9
:1001E00098470E4B1B79002B14BF4521442116481C
:1001F0000C4B9847094B9B79002B14BF4521442198
:100200001248084B98471248034CA0471148A04792
:1002100010BD00BFF8484000911A4000840A002039
:100220009C49400031194000C8494000F049400055
:100230001C4A40004C4A40007C4A4000AC4A400006
:10024000E04A4000104B4000544B4000904B4000AF
:10025000B84B4000E44B4000F0B583B005460C4677
:1002600000230193184B98420AD0184B98420FD0A4
:10027000174B984214D0174B9D421BD003B0F0BDD2
:100280001F46154E21463846B0470028FAD1F2E7FE
:100290001E46114D21463046A8470028FAD1EDE709
:1002A0001E460E4D01A93046A8470028FAD1019BF1
:1002B0002370E3E71E46094D01A93046A8470028F0
:1002C000FAD1019B2370D9E700060E4000080E40CA
:1002D0000040024000800240FF154000251640000B
:1002E00070B50C46184B98420AD0184B984210D063
:1002F000174B984216D0174B98421CD0002070BD67
:100300001E46154D21463046A8470028FAD1012047
:1003100070BD1E46104D21463046A8470028FAD130
:10032000012070BD1E460D4D21463046A8470028CD
:10033000FAD1012070BD1E46084D21463046A8471F
:100340000028FAD1012070BD00060E4000080E40C2
:100350000040024000800240EF15400011164000AE
:10036000F0B599B01D20834B9847834C4FF4802300
:10037000824A83492046834DA847834B00221A6056
:100380005A6001234FF44012194620467F4DA8477A
:1003900020467F4B98477F4B9B78002B6CD07E4D3F
:1003A0000222294620467D4B984720467C4B9847A1
:1003B000002120467B4EB04701212046B047724BBA
:1003C0002A781A706A785A706B4C2046764B984798
:1003D0002046764B98476F4BDB78002B5DD020464C
:1003E000734B9847022205212046724B9847694B70
:1003F0001B79002B57D0604C20466D4B9847052148
:1004000020466D4B9847634B9B79002B50D1614B35
:100410005B79002B57D0002201215748674B984742
:100420005C4B5B78002B5FD0534BD3F8043123B97E
:10043000514BD3F81431002B4BD04F4BD3F8143120
:1004400033B94D4B5E4AC3F810210222C3F8142180
:100450004FF0805148485B4B98474FF000525A4B41
:100460001A604C4B1B78042B49D8DFE813F043008B
:100470004A005500C30004013F4C2046534B9847A7
:1004800005212046474DA8470F212046A8473E4B4F
:1004900005221A700F225A7096E70022052136486D
:1004A000444B9847A3E705213348494B9847AAE7AF
:1004B0003148484B9847304D474C2846A04710F4E8
:1004C000000FFAD0A3E7002211462B483B4B984778
:1004D000A6E7294B3A4AC3F800210222C3F80421B7
:1004E0000122C3F82021B3E74FF080712248354B39
:1004F0009847B2E7002211461F48384B984719B079
:10050000F0BD4FF080510820354B98470022012163
:100510001948324B9847F2E70024069418AE46F883
:10052000284D1720134B98474FF0805120462C4BF5
:100530009847134D0095334606AA29460120294EB7
:10054000B047294E0E9A42F4D82221463046274B16
:100550009847069BB5FBF3F56B087361F56121467F
:100560003046234B98472246032103481B4B9847AC
:10057000C5E700BF9D1240000080034000A8610055
:10058000000E2707AD0C40008C0A0020670D4000CC
:10059000AB0D4000840A002000000020050D400043
:1005A000B50D40009D0D4000190E40008D0D40001E
:1005B000830D4000F30D4000C90D4000EF0C4000DA
:1005C0008E0A00200D0E400000E100E0BF0D40004B
:1005D000D70D4000030E4000150E4000E10C400016
:1005E000190F400049154000000001402915400046
:1005F000411540001F20234B9847234D00212846DA
:10060000224B98474FF080515220214B98474FF48E
:10061000FA630393002404941E4B059303A9284610
:100620001D4B9847282221460EA81C4FB8470B2384
:100630000F934FF4FA7611964FF47A7312930EA932
:100640002846174B98472022214606A8B847012381
:100650008DF81C3008968DF8343006A92846114BC9
:10066000984721462846104B9847224609210F48B3
:100670000F4B984743E7012200210C480C4B984749
:100680003DE700BF9D124000000002407914400089
:10069000190F4000000E270745134000591940006C
:1006A00089134000831440006F1440000080034011
:1006B000E10C4000024A136801331360704700BF29
:1006C000D409002010B52F4B5B78002B31D02E4879
:1006D0002E4B984710F0805F00D110BD03222C4BA9
:1006E000DA80294BD3F804311BB9274BD3F81431E6
:1006F000A3B1254BD3F8143133B9234B254AC3F8A2
:1007000010210222C3F81421214B5A88C2F30B0294
:100710005A809A88C2F30B029A8010BD1A4B1D4A68
:10072000C3F800210222C3F804210122C3F82021CA
:10073000EAE71548154B984710F0807FCDD0124856
:10074000154B9847C0F30333114AD18812789A4267
:1007500007D000240E4A52789A420AD0002CBCD00E
:100760000DE0C0F30B020A4C628041F0010101244C
:10077000F0E7C0F30B00064B988041F00201044BF8
:10078000D980AAE7840A002000800340150E4000AB
:100790008C0A00208E0A0020A70D40002DE9F04FA2
:1007A00085B0A84B9847A84B98470820A74DA84765
:1007B000A74CA84B1C60A84AA84B1A60A84AA94B92
:1007C0001A60A94B00934FF4E13301934FF4006397
:1007D00002930820A84769462046A44B9847A44D99
:1007E0002B6800219868A34CA0472B68002158680B
:1007F000A047A148A14CA047A148A047A14BA24AAD
:100800005A60F021A14A82F8231000229A60072141
:1008100019609F4B1A60C3F8032001225A709D4B48
:1008200098479D4B98479D48A047994E884C9C4FB0
:10083000DFF880824FE13A683B689B1AB3F57A7F14
:10084000FAD39848984B984749E100233370914B6D
:10085000984769462046A8470028FAD19DF80030FD
:10086000303B442BF3D801A252F823F04B08400050
:1008700081094000870940008D094000930940002C
:100880004F0840004F0840004F0840004F0840000C
:100890004F0840004F0840004F0840004F084000FC
:1008A0004F0840004F0840004F0840004F084000EC
:1008B0004F0840004F084000E90940004F08400041
:1008C0004F0840004F084000C90940004F08400051
:1008D0004F0840004F0840004F0840004F084000BC
:1008E0004F0840004F084000D9094000B9094000B6
:1008F000C10A40004F084000A90940009909400082
:100900004F0840004F0840004F0840004F0840008B
:100910004F0840004F0840004F0840004F0840007B
:100920004F0840004F0840004F0840004F0840006B
:100930004F0840004F084000E90940004F084000C0
:100940004F0840004F084000C90940004F084000D0
:100950004F0840004F0840004F0840004F0840003B
:100960004F0840004F084000D9094000B909400035
:10097000C10A40004F084000A90940009909400001
:100980000123337063E70223337060E7032333707E
:100990005DE7042333705AE7737813B10023737053
:1009A00055E70123737052E7B37813B10023B37096
:1009B0004DE70123B3704AE7737913B100237371D4
:1009C00045E70123737142E7F37813B10023F37015
:1009D0003DE70123F3703AE7337913B10023337114
:1009E00035E70123337132E7B37913B10023B371D3
:1009F0002DE70123B3712AE72C4D6B8840F6E44BB9
:100A00000BFB03F388FB03121A44DB17DFF8A8A0E3
:100A1000C3EBE22229785046DFF8A090C847AB88A4
:100A20000BFB03F388FB03121A44DB17C3EBE22230
:100A300069785046C8471E48104B98470023EB8002
:100A400049E000BF410B4000310C40009D124000C6
:100A500000060E409C0A0020E1024000980A002097
:100A600059024000940A0020000E2707B9154000E3
:100A700008000020A11A4000204C4000911A4000BC
:100A80006C4C400010E000E0BFD4010000ED00E03D
:100A9000840A002039014000610340009C4C400062
:100AA000D409002000800340970D40008C0A0020EC
:100AB0000C4B400081000880CC4C400031194000B4
:100AC000134B9847134B98471348144B9847144BB4
:100AD000DB88032B90D03378002B3FF4ACAE0DF1C4
:100AE0000F0120460F4B98470028F0D14FF0FF31FF
:100AF0000D480E4B984700210D480E4B984700219A
:100B00000D480E4B9847024B9847064DA1E600BF93
:100B100039014000610340009C4C4000911A4000A4
:100B20008C0A0020FF15400000800340110E400099
:100B300000000140411540000000024079144000CF
:100B400010B50E480E4B98473E2100200D4B98479C
:100B50000D4CA0470028FCD00C4B98470C4A0D4B7D
:100B60009A620D4CA0470028FCD010200B4B9847F0
:100B70000B4B98470148024B984710BD000E2707C2
:100B8000FD174000191240006D1240007D12400018
:100B9000013F132000040E408D124000B5114000AB
:100BA000ED1640002DE9F04180B90C469046002A30
:100BB0000FDD8F18084E094D306821462B68984785
:100BC0000134BC42F8D14046BDE8F0814FF0FF3817
:100BD000F9E78046F7E700BF9C0A0020940A00204E
:100BE0000138022815D82DE9F0410E4614469AB175
:100BF0000D46DFF838800C4FD8F8000015F8011BBF
:100C00003B68984700280ADBA81B013CF4D1BDE8EB
:100C1000F0814FF0FF3070471046BDE8F0814FF093
:100C2000FF30BDE8F08100BF980A00209C0A002038
:100C300010B54FF40042164B5A600B20154CA047DC
:100C40000C20A0470D20A0474FF060511320124CFC
:100C5000A0474FF060511420A04710492320A0471F
:100C60000F494C20A0474FF000624FF4C0610D487F
:100C70000D4B98474FF080510020A0474FF0805116
:100C80000820A0474FF080515220A04710BD00BF60
:100C900050140E409D124000190F400079000028AA
:100CA00059000028000E0E403910400030B40124D5
:100CB00004600024446040F20225C0F82051C0F8CE
:100CC0000441C0F8144145685200B1FBF2F2013A08
:100CD000120292B22B431A434260204630BC704746
:100CE0004368D201D2B219430A4342607047436855
:100CF000920102F040021A43490101F020010A4327
:100D00004260704770B4082A10D86AB14C1E013A8C
:100D100051FA82F10022856814F8013F93402B4379
:100D200083600432A142F6D170BC70474D1E00248E
:100D3000866815F8013FA340334383600434202CB8
:100D4000F6D1083A002AEFDD00252B46C6684C197B
:100D5000247AAD00AC403443C4600133DBB21D469D
:100D60009342F3DBE0E710B44468090601F07061D8
:100D700021430A43190701F040511143416010BC5F
:100D80007047436843F4000343607047436823F4AB
:100D9000000343607047022303607047012303FA96
:100DA00001F101617047006A7047036C43F0807382
:100DB00003647047436843F00043436070474368EF
:100DC00023F0004343607047C26C012303FA01F132
:100DD0001143C164704710B4C26CC46C6FF001035E
:100DE00003FA01F12140C164C36C1A43C26410BC10
:100DF0007047836C490002F003028A401A43826400
:100E00007047036843F0080303607047416270470E
:100E100081627047006B7047D0F8943043F0100344
:100E2000C0F8943070474264B1F1C05F39D013D834
:100E3000B1F1006F25D0B1F1805F0AD1036F134388
:100E40000367436F416F0B4023EA0203436742602D
:100E500070470029FBD17047B1F1205F20D009D83D
:100E6000B1F1005FF3D1036F13430367436F134383
:100E70004367ECE7B1F1405F12D0B1F1605F0FD092
:100E8000E5E710B4016F046FD34321401C461940BD
:100E90000167436F416F0B4023404367426010BCC2
:100EA0007047036F016F0B4023EA02030367436F30
:100EB00013434367CBE7416412F0010F14BF41664F
:100EC000016612F00A0F14BF0162416212F0020FB4
:100ED00007D112F0080F18BFC0F8841041610160FB
:100EE0007047C0F88010F9E710B4019C416444B920
:100EF000016643B1016542B941630161016010BC03
:100F000070474166F5E74165F5E70163F5E7C06CB9
:100F10007047806C7047000070B582B00D46430981
:100F200003F5001303F207735C0201F0F043B3F121
:100F3000005F53D00AD8B3F1805F2DD0B3F1C05F0A
:100F40003BD0B3F1006F15D0002023E0B3F1405F38
:100F500055D0B3F1605F52D0B3F1205FF4D100F00F
:100F60001F0101262A4606FA01F120462F4B984719
:100F700030460FE000F01F000126864032464FF059
:100F8000006120462A4B984715F0010F14BF666692
:100F90002666012002B070BD00F01F0001268640C9
:100FA00032464FF080512046214B984715F0010FF3
:100FB00014BF666626660120ECE700F01F000126DC
:100FC000864032464FF0C0512046194B984715F0E5
:100FD000010F14BF666626660120DBE700F01F00E4
:100FE0000126864032464FF000512046104B98476C
:100FF00015F0010F14BF666626660120CAE705F0EA
:10100000605200F01F01012605EA06030093C5F3B4
:101010008003B2F1605F14BF0022012206FA01F1E1
:101020002046044CA0473046B4E700BFB70E40004E
:10103000270E4000E90E400070B582B005460E460E
:10104000144602F0F043B3F1005F3DD00AD8B3F18B
:10105000805F21D0B3F1C05F2AD0B3F1006F0ED012
:10106000002017E0B3F1405F3AD0B3F1605F37D0B2
:10107000B3F1205FF4D1234B984701200AE00A46E0
:101080004FF00061204B984714F0010F14BF6E66BB
:101090002E66012002B070BD0A464FF080511A4BF7
:1010A000984714F0010F14BF6E662E660120F1E719
:1010B0000A464FF0C051144B984714F0010F14BF6B
:1010C0006E662E660120E5E70A464FF000510E4B92
:1010D000984714F0010F14BF6E662E660120D9E701
:1010E00004F0605204F001030093C4F38003B2F1F2
:1010F000605F14BF0022012231462846034CA047FE
:101100000120C7E7B70E4000270E4000E90E40005F
:101110002DE9F84381460F46124B9847054648464D
:10112000114B9847054013D0104C04F1600603E0C2
:10113000B4420DD010345DB12068B842F8D1616876
:101140002942F5D0E3689847636825EA0305EFE78D
:10115000074B1B6823B1074B1B680BB148469847E8
:10116000BDE8F8830F0F4000130F4000D80900209E
:10117000A00A0020480A002008B50B210148024BB4
:10118000984708BD000E0E401111400008B50C2113
:101190000148024B984708BD00100E401111400055
:1011A00008B50D210148024B984708BD00120E40BA
:1011B00011114000174A136B23F07003184310639A
:1011C000936E13F0080F0AD14FF4006311498A6E31
:1011D00012F0080F03D1013BF9D1012070470D4AED
:1011E000136B23F0030343F002031363936E13F0B6
:1011F000080F0AD14FF4006306498A6E12F0080FF7
:1012000005D1013BF9D10120704700207047002033
:10121000704700BF00040E40C8B9114A136A0902A2
:1012200089B223F45C1323F0030343F45C1343F00B
:1012300001030B431362936E13F0010FFBD0084AB6
:10124000136A43F09B7343F480331362704704497D
:101250000B6A044A1A40044B13430B62704700BFE9
:1012600000040E40FCFFC8FE02003701024B986EDE
:1012700000F48030704700BF00040E404FF0005271
:10128000014B9A62704700BF00040E40024B986EFB
:1012900000F00200704700BF00040E4022281ED854
:1012A0001F280CD8114B9A6901238340934318D00F
:1012B000012303FA00F00D4B18610020704720381D
:1012C0000A4BD3F808210123834093430BD0012319
:1012D00003FA00F0054BC3F800010020704701201D
:1012E0007047002070470020704700BF00040E4088
:1012F000F0B48CB007460E4601AC114D0FCD0FC4B3
:101300000FCD0FC495E8070084E8070001AA002369
:1013100052F8040BB6FBF0F0B0FBF7F0B0F5807FAD
:1013200007D901330B2BF3D14FF6FF700CB0F0BC93
:1013300070470A2B94BF40EA03204FF6FF70F5E791
:10134000E44C400070B506460D460C6844B189680F
:1013500020460C4B984704464FF6FF7398420CD03A
:10136000686840B1A968074B98474FF6FF739842E9
:1013700005D044EA004434600024204670BD044691
:10138000FBE700BFF112400070B40A684B6803F03D
:101390000F038C8A23430C8923438C7A43EA44232A
:1013A0008C7D43EA0443CC7D43EA44430C7E43EA0C
:1013B000844300EB4214C4F80032CB68C4F8043212
:1013C0000B69C4F80C328B7D3BB18C8B4B8B43EAA1
:1013D000044300EB4214C4F81832856C4FF001133B
:1013E0009340DB431D40CC7F04FA02F68C7F94408F
:1013F00044EA06442C438464446C234091F8214021
:1014000004FA02F591F82040944044EA054423434D
:1014100043640123934091F822401CB3046A1C43A7
:10142000046291F82440012C846E0CBF1C439C4341
:10143000846691F82540012C846E0CBF44EA034376
:1014400024EA03438366D200C46EFF23934024EA58
:10145000030491F8233003FA02F22243C26600200B
:1014600070BC7047046A24EA03040462D9E70123CC
:1014700003FA01F141607047012303FA01F1816031
:10148000704710B40A688B6823F07F430C7B43EAF3
:10149000046302F11304240103510B691B01DBB245
:1014A0004C69240204F4706423438C69240404F41A
:1014B0007024234300EB0214C4F838310B7FD3B1FE
:1014C000C46F012393402343C3674B7FD3B1D0F84C
:1014D0008040012393402343C0F880300B79D3B977
:1014E00000EB0210D0F8383123F00103C0F8383196
:1014F000002010BC7047C36F0124944023EA04030A
:10150000C367E2E7D0F880300124944023EA040363
:10151000C0F88030E2E700EB0210D0F8383143F039
:101520000103C0F83831E3E710B4890143180224FD
:1015300044504FF0FF319962196A5A6010BC7047ED
:101540008901052343507047F0B486B0022401940A
:101550000824029420240394802404940A9CE40B1D
:101560000594B0EB510F14D84C0CA04217D20125B2
:1015700001AF57F82540B1FBF4F4260C84420AD39E
:1015800086420DD90135052DF3D1002006B0F0BCFF
:1015900070470020FAE70020F8E70120F6E7002571
:1015A0002AB106A901EB850151F8141C1160002B2A
:1015B000F3D01D600120E9E710B4AC2303600B6891
:1015C0004A68B3FBF2F31B095C1E4FF6FE729442AD
:1015D0000BD803628B68436040F20223C0F82031CD
:1015E00050230360002010BC70470120FBE74369D3
:1015F00013F0020F1ABFC161002001207047436938
:1016000013F0010F1DBF83690B700020012070478C
:10161000436913F0020F1DBFC1F30801C16100202F
:1016200001207047436913F0010F05D08369C3F3AC
:1016300008030B600020704701207047FEE70000A0
:1016400008B5214B214A9A4228D9214B1E4A9A4279
:101650000CD2013B9B1A23F00303043313441B49B0
:1016600051F8040B42F8040B9A42F9D100BF194B10
:10167000194A9A420AD2013B9B1A23F0030304330E
:101680001344002142F8041B9A42FBD1134B144A25
:101690009A60144B9847144B9847FEE70A4B0B4A45
:1016A0009A42E3D20A4B0848181A1146043A0244F7
:1016B0000028DBD0C1F1040152F8040943F8040DFD
:1016C000CA42F9D1D2E700BF00000020A84E400076
:1016D000B8090020CC0A0020B809002000ED00E085
:1016E00000004000E11840009D0740003C4B1B6B90
:1016F00003F00303032B0ED8DFE803F0021C383895
:10170000384B5B6913F0800F14BF4FF400424FF465
:10171000FA42354B1A60324B1B6B03F07003702B8F
:1017200055D02F4B1A6B3049C2F302120B68D340CD
:101730000B6070472A4B1B6A13F0807F03D02B4A43
:10174000294B1A60E7E72A4A274B1A60244B1B6A89
:1017500003F07003102B05D0202BDCD1234A224B41
:101760001A60D8E7234A204B1A60D4E71C4B1B6A47
:1017700013F0807F18D01D4A1B4B1A60184B1B6B4F
:1017800003F00303022B164A07BF916A926AD16ADB
:10179000D26A1548C1F30A41036801FB0333D2B290
:1017A000B3FBF2F30360B6E7114A0F4B1A600C4B20
:1017B0001B6A03F07003102B05D0202BDED10B4ADF
:1017C000094B1A60DAE70B4A074B1A60D6E7064A5C
:1017D00013680949A1FB03135B081360704700BF3E
:1017E00000040E4010140E4004000020001BB7003F
:1017F00000093D0000127A00ABAAAAAA1A4B98422F
:1018000014D91A4B984219D9194B98421DD9194B22
:10181000984221D9184B984294BF4FF00423174B9C
:10182000174A136002F50072136070474FF080632F
:10183000134A136002F5007213607047114B104A8F
:10184000136002F50072136070470F4B0C4A13606F
:1018500002F50072136070470C4B094A136002F5E1
:1018600000721360704700BFFF2C3101FF59620204
:10187000FF869303FFB3C404FFE0F50500050004F1
:10188000000A0E40000100040002000400030004EE
:101890000A4B1B6853B1094B1B681A18084991423F
:1018A00008DB1046054A106018467047054A034B8E
:1018B0001A60F0E74FF0FF30704700BF4C0A00207D
:1018C000FC7F0220D03A00204FF0FF3070474FF4E9
:1018D00000534B6000207047012070470020704784
:1018E00070B50F4E0F4D761BB61018BF002405D0F3
:1018F000013455F8043B9847A642F9D10A4E0B4DE6
:10190000761B03F0BBFAB61018BF002406D00134D2
:1019100055F8043B9847A642F9D170BD70BD00BF91
:10192000884E4000884E4000904E4000884E400057
:101930000FB400B5074983B004AB086853F8042B13
:101940008168019300F02AFA03B05DF804EB04B05B
:10195000704700BF0800002070B4860746D0541EB0
:10196000002A41D0CAB2034602E014F1FF343BD34F
:1019700003F8012B9D07F8D1032C2ED9CDB245EAEF
:1019800005250F2C45EA054519D903F11002264615
:10199000103E0F2E42F8105C42F80C5C42F8085CD6
:1019A00042F8045C02F11002F2D8A4F1100222F015
:1019B0000F0204F00F041032032C13440DD91E46FD
:1019C0002246043A032A46F8045BFAD8221F22F082
:1019D00003020432134404F003042CB1C9B21C44C2
:1019E00003F8011B9C42FBD170BC704714460346B0
:1019F000C2E700BFF0B5054689B008460C4600F0C6
:101A00001FF9AB6B214F04940126441C04A9022248
:101A100003940590AC68069707960191029253B320
:101A2000636E13F0010FB4F90C309AB201D1900536
:101A300025D5910406D4626E43F4005322F400527B
:101A4000A3816266284601AA214601F0A9FB636EC4
:101A500000280CBF0A254FF0FF35DA0702D4A3890E
:101A60009B0502D5284609B0F0BDA06D01F04EFDE2
:101A7000284609B0F0BD284601F086F9D0E7A06DF0
:101A800001F042FDB4F90C309AB2D2E7144D400097
:101A9000024B01461868FFF7ADBF00BF08000020E9
:101AA00000290CBF022200224FF4806300F000B82E
:101AB0002DE9F043614C256883B004460F469046FB
:101AC0001E4615B1AB6B002B64D0B8F1020F06D0E7
:101AD000B8F1010F00F29F80002EC0F29C80636E6F
:101AE000D80734D52146284601F0F6F8216B41B1DC
:101AF00004F14003994202D0284601F06BFA00231A
:101B00002363B4F90C300022A26162601A063AD451
:101B100023F44A6323F00303B8F1020FA3811DD01D
:101B200001AB6A462146284601F0F2FCA38918431E
:101B3000A081002E32D1009E304601F061FD0746A3
:101B400000286BD0A38943F08003A38128E0A389F8
:101B50009905C7D4A06D01F0D7FCC3E70025616EDD
:101B6000002604F1430243F002030120A660CE07E1
:101B7000A38122602261606101D498053ED5284688
:101B800003B0BDE8F0832169284601F023FAB4F9D7
:101B90000C30BDE7284601F0F7F896E7002FCBD0D0
:101BA000AB6B002B33D0009BB4F90C2027609E4216
:101BB0001CBF42F40062A281B8F1010F04BF42F0E1
:101BC0000102A28192B212F00803276166610ED071
:101BD000D1071AD5656E7642002315F00105A6617E
:101BE000A36009D00025284603B0BDE8F083A360B8
:101BF000656E15F00105F5D19305C0D4A06D01F017
:101C000085FC284603B0BDE8F083A660F0E72846CF
:101C100001F0BAF8C7E74FF0FF35B0E7DDF8009004
:101C2000B14504D0484601F0EBFC074620B9B4F9B1
:101C30000C304FF0FF3592E74E4683E70800002056
:101C400090F800F06DE9024520F007016FF0000CFC
:101C500010F0070491F820F040F049804FF00004A4
:101C60006FF00700D1E9002391F840F000F108007F
:101C700082FA4CF2A4FA8CF283FA4CF3A2FA8CF3B7
:101C80004BBBD1E9022382FA4CF200F10800A4FA1E
:101C90008CF283FA4CF3A2FA8CF3E3B9D1E9042372
:101CA00082FA4CF200F10800A4FA8CF283FA4CF3A9
:101CB000A2FA8CF37BB9D1E9062301F1200182FA63
:101CC0004CF200F10800A4FA8CF283FA4CF3A2FA69
:101CD0008CF3002BC6D0002A04BF04301A4612BA77
:101CE000B2FA82F2FDE8024500EBD2007047D1E97A
:101CF000002304F00305C4F100004FEAC50514F009
:101D0000040F91F840F00CFA05F562EA05021CBFD9
:101D100063EA050362464FF00004A9E72DE9F84F96
:101D20004B6E9C0493462FD59368126853B30E46AE
:101D3000074602F1080919E920045FEA9A0817D05A
:101D4000043D002401E0A04510D0324655F8041FA0
:101D5000384601F0BBF8431C04F10104F3D1002321
:101D6000CBF80830CBF80430BDE8F88FDBF808304A
:101D70002AF0030AA3EB0A03CBF8083009F108099B
:101D8000002BD8D10020EAE701F00AFA0023CBF8B3
:101D90000830CBF80430BDE8F88F00BF2DE9F04FD4
:101DA000ADB01D468B4690460793069018B1836BE5
:101DB000002B00F0F380DBF86430BBF90C00DF0788
:101DC00081B202D48E0540F1FC808C040AD4DBF889
:101DD000643040F4005123F40053ABF80C10CBF8FE
:101DE000643089B2080740F1B380DBF81030002B73
:101DF00000F0AE8001F01A030A2B00F0B58000233A
:101E00000DF170090B93119310930393CDF83C904F
:101E1000CA46CDF810B098F800304446FBB1252BE7
:101E200002D11CE0252B03D014F8013F002BF9D17F
:101E3000A4EB08059DB1109B119ACAF800800133EC
:101E40002A44072BCAF80450119210937ADD002A15
:101E500040F0B084039B10922B44CA46039323782E
:101E6000002B00F0E08300204FF000038DF83730A6
:101E700004F1010862780546064603464FF0FF3438
:101E800008F10108A2F12001582900F2DE82DFE802
:101E900011F02102DC02DC022902DC02DC02DC029D
:101EA000DC02DC02DC0289029502DC02A200BD0237
:101EB000DC029F01A401A401A401A401A401A401C6
:101EC000A401A401A401DC02DC02DC02DC02DC02CD
:101ED000DC02DC02DC02DC02DC02B201DC02DC023D
:101EE000DC02DC02DC02DC02DC02DC02DC02DC0202
:101EF0009701DC02DC02DC02DC02DC029B01DC027A
:101F0000DC025302DC02DC02DC02DC02DC02DC026A
:101F1000DC02DC02DC02DC025A021B02DC02DC0214
:101F2000DC026E021B02DC02DC027302DC02F50141
:101F300082010902D702DC029A02DC02A700DC025D
:101F4000DC022E020AF1080A039B2B44039386E766
:101F50005946069800F0ACFD18BBBBF80C1001F018
:101F60001A030A2B7FF44BAFBBF90E30002BFFF6A0
:101F700046AFDBF86430DB0705D48F0503D4DBF80C
:101F8000580001F0C3FA2B4642465946069800F025
:101F90004DFD039003982DB0BDE8F08F00F0F4FEE6
:101FA00009E7DBF86430D90704D4BBF80C309A0594
:101FB00040F1AA844FF0FF33039303982DB0BDE89E
:101FC000F08FDBF8580001F09FFABBF90C0081B2EA
:101FD000FBE67642079243F0040398F800204FE7AF
:101FE00008969E0600F150840799DD060A4600F126
:101FF000EF83580640F1EC830E880431002701225C
:1020000007914FF000018DF837100025611C00F09A
:10201000168123F08001029156EA070140F01481F5
:10202000002C40F05C83002A40F0B78313F00103DA
:10203000059300F057840DF1B00B30230BF8413DB0
:10204000059BA342B8BF234601930DB10133019311
:10205000029B13F00203099302D0019B0233019308
:10206000029B13F084030A9340F01782089B019AA5
:102070009D1A002D40F31182102D40F39084109B87
:10208000119AC44ED6461027A2461946069C07E070
:1020900001F1020C0EF1080E0146103D102D11DD6C
:1020A000481C1032072811928EE8C0001090EFDD16
:1020B000002A40F0E481103D102D11464FF0010C34
:1020C000CE46EDDC54466146F2462A440729119279
:1020D000CAF80060CAF80450109100F3EC829DF831
:1020E00037500AF1080A481C002D40F0DE81099B98
:1020F000002B00F0F88102320EA90223072811926A
:1021000010908AE80A0040F3EA81002A40F08C83AC
:102110000A9B802B4FF001001146CA4640F0E78130
:10212000089B019D5E1B002E40F3E181102E9A4D0D
:1021300040F35084D4461027A246069C07E001F1E4
:10214000020E0CF1080C0146103E102E11DD481C49
:102150001032072811928CE8A0001090EFDD002AC1
:1021600040F09D82103E102E4FF0010E1146CC46DD
:10217000EDDC5446E2463244BEF1070F11928AE884
:102180006000CDF840E000F369830AF1080A0EF11F
:1021900001007146ABE1089613F0200240F08C83F9
:1021A00013F0100140F01A8313F0400200F0168380
:1021B00007980A460146043106880791002720E760
:1021C000089643F01003E7E7089643F0100308E78A
:1021D00043F0800398F8002052E6A2F13001002677
:1021E00018F8012B06EB860601EB4606A2F130013A
:1021F0000929F5D946E60896002840F0088443F0FE
:1022000010039E0600F14C83DD0600F1F3825806B0
:1022100040F1F082079DB5F900602A46F7170432B5
:10222000304639460792002871F10002C0F25D8302
:10223000611C9DF837504FF001027FF4EAAE56EA78
:10224000070100F04D820293012A00F08C82022ADD
:1022500040F05C820B98CB46330906F00F0143EA4D
:1022600007733A091E461746435C0BF8013D56EAD0
:102270000703F1D1A9EB0B030593E1E6002840F039
:10228000C083990600F16783DA0600F1F1805B06EE
:1022900040F1EE80079A136804320792BDF80C20D3
:1022A0001A80B8E507983D4A08960B92066878228E
:1022B000302104308DF8392043F0020307900027C5
:1022C0008DF8381002229CE60896002899D08DF8E7
:1022D000375096E798F80020002D7FF4D1AD01200B
:1022E0002025CDE543F0010398F80020C8E50896C5
:1022F000002840F0938329490B919F0600F1E88262
:102300000798DE06014600F170825D0640F16D829D
:102310000431068807910027D80740F1228256EA47
:10232000070100F01E8230218DF8392043F00203AE
:102330008DF83810022264E60896002840F06B837E
:1023400017490B91D9E7079908960A688DF8482034
:102350004FF000000A468DF837000432012001904A
:10236000079205900DF1480B0293002470E643F0AC
:10237000400398F8002083E598F800206C2A03BFFA
:1023800098F8012043F0200308F1010843F01003FE
:1023900076E500BF484D4000584D40002C4D4000B0
:1023A000184D400007990E680A46002E02F10402FB
:1023B000FFF60FAE079298F8002061E598F800202C
:1023C00001202B255CE507990896D1F800B04FF065
:1023D00000028DF837200E1DBBF1000F00F0E582E2
:1023E000671C00F0C482224600215846019301F088
:1023F000D7FB019B002800F0E582A0EB0B020592C1
:10240000079602939DF83750002419E698F80020AB
:102410002A2A08F1010700F0E982A2F13001092916
:10242000B8464FF000043FF62DAD18F8012B04EB31
:10243000840401EB4404A2F130010929F5D921E516
:1024400043F0200398F800201AE50896002840F091
:10245000DB82002A00F0E78001218DF848204FF050
:10246000000201918DF8372005910DF1480B7BE7B3
:10247000079A136804320792039A1A60CBE40FAAF2
:1024800004992046FFF74AFC002840F03981109952
:10249000119A01F1010CCE46FFE51099119A481CE2
:1024A0009DF83750002D3FF422AE01320DF1370573
:1024B0000121072811921090CAF80050CAF80410A0
:1024C00040F30881002A40F0BC81099B002B3FF4B7
:1024D0001FAE0EAB022208461C931D92CA4601464F
:1024E0000AF1080A01300A9B802B3FF419AE059BC4
:1024F000E41A002C2EDD102CB34D1EDDD64610261E
:10250000069FDDF810A006E0881C0EF1080E1946A3
:10251000103C102C10DD4B1C1032072B11928EE852
:1025200060001093F0DD002A65D1103C102C4FF0B4
:1025300001001146CE46EEDCF246224407281192F5
:10254000CAF80050CAF80440109000F385800AF1E0
:10255000080A01300599CAF800B00A440728119208
:10256000CAF80410109040F38280002A40F01881CD
:10257000029B1092580735D5089B01995C1A002CD4
:1025800040F3E780CA46102C40F3188210998F4E12
:10259000069FDDF810B0102506E0881C0AF1080A35
:1025A0001946103C102C11DD4B1C1032072B1192D8
:1025B000CAF80060CAF804501093EEDD42BB103C2C
:1025C000102C4FF001001146CA46EDDC22440728CA
:1025D0001192CAF80060CAF80440109051DD002A38
:1025E00040F09B81039B089A01998A42ACBF9B18DB
:1025F0005B1803934EE00FAA51463846FFF78EFB57
:10260000002840F03F811099119A481CCE467FE780
:102610000FAA59463846FFF781FB60B91099119A05
:10262000481CCA46BDE7119BDDF810B0002B40F0F6
:10263000D48100231093DBF8643013F0010FBBF852
:102640000C3002D19A0540F1DE805B063FF5B2AC5A
:1026500003982DB0BDE8F08F002A40F00681059A5E
:102660001D9201231192CDF870B01093CA460AF161
:10267000080A029B590704D5089B01995C1A002C93
:1026800081DC039B089901988142ACBF5B181B1841
:10269000039372BB00231093CA46FFF7BCBB0FAA7B
:1026A00004992046FFF73AFB50BB1099119A01F1AB
:1026B000010ECC4648E5002A40F040819DF83710D5
:1026C000002900F01B8101220DF1370110461D92F7
:1026D0001C91CA4601460AF1080A013007E5029B2F
:1026E000012A00F09880022A0DD1029300260027CB
:1026F000B0E50FAA04990698FFF710FB0028C9D08F
:10270000DDF810B097E7029300260027494600E065
:102710005946F20842EA4772F80806F007030746EE
:102720001646303356EA070201F8013C01F1FF3B3F
:10273000EED1029AD6077FF59DAD302B3FF49AADCE
:10274000023930230BF8013CA9EB010305938B46BA
:1027500076E4039B089A8A42ACBF9B185B180393EC
:1027600098E702224DE4002F08BF0A2E52D3CB4631
:10277000304639460A22002301F036FF30320BF88A
:10278000012D3046394600230A2201F02DFF06466E
:102790000F4656EA0703EBD16CE50594CB464FE4B0
:1027A0000FAA04990698FFF7B9FA0028A8D1119A40
:1027B000CA465EE70FAA04990698FFF7AFFA002809
:1027C0009ED1CA46FFF7C0BB584D4000484D40005F
:1027D0000431166807910122002712E40798014688
:1027E00004310668079100270BE40E680431079155
:1027F000002791E507990E680A46F71704320792F9
:10280000304639460FE5DBF8580000F07FFEBBF894
:102810000C301AE7029B02930DF1B00B3036012306
:102820000BF8416D05930BE40FAA04990698FFF786
:1028300075FA00287FF464AF1099119A481CCA46B3
:1028400051E60FAA04990698FFF768FA00287FF46A
:1028500057AF1099119A481CCA4648E4002A40F024
:10286000918001201146CA4641E60FAA04990698B4
:10287000FFF754FA00287FF443AF1098119A013003
:10288000CA4667E6D346D6E6079E073626F0070215
:1028900002F10801D2E9006707910122FFF7B1BBFD
:1028A000079E073626F00706D6E9000106F1080262
:1028B000079206460F46B6E4079E073626F0070243
:1028C00002F10801D2E9006707910022FFF799BBE6
:1028D000079E073626F0070101F108000790D1E9AD
:1028E000006719E5CB46FFF7ABBB2D25764267EBBA
:1028F00047078DF837500122FFF788BB099BB3B912
:1029000011460120CA46F2E5DBF8580000F0FEFD52
:102910004FF0FF330393FFF750BB0FAA04990698BB
:10292000FFF7FCF900287FF4EBAE119AA9E60EAB95
:1029300002221C931D920120CA46D0E50FAA0499D9
:102940000698FFF7EBF900287FF4DAAE1099119A98
:10295000481CCA46A4E5079A03991368CD17084690
:10296000043229460792C3E90001FFF754BA5846DA
:1029700007960293FFF764F9002405909DF83750FD
:10298000FFF75EBB0FAA04990698FFF7C7F9002866
:102990007FF4B6AE1099119A481CCA46A7E5109963
:1029A000119A204E0131FFF790BB062C28BF062458
:1029B000059407960194DFF870B0D5E41098194E8D
:1029C000013003E605949DF83750079602930446BC
:1029D000FFF736BB8646FFF7CEBB06980FAA5946CF
:1029E000FFF79CF900283FF424AE24E6079998F8F5
:1029F00001200C68043144EAE474B8460791FFF7FB
:102A00003FBA8DF837503CE48DF8375021E58DF80A
:102A10003750FFF7F4BB8DF8375091E48DF83750FD
:102A200069E400BF484D4000404D40002DE9F041B1
:102A30000C46ADF58D6D8989666EE589199621F094
:102A400002010646E069ADF80C1017464FF48061AC
:102A5000626AADF80E5098461AAD0023079016A88A
:102A600009920693009504950291059100F048FDA6
:102A700043463A4669463046FFF790F9051E07DBA4
:102A80003046694600F028F9002818BF4FF0FF359E
:102A9000BDF80C305B0603D5A38943F04003A38146
:102AA000169800F02FFD28460DF58D6DBDE8F081DC
:102AB00038B5304B1B6805460C4613B19A6B002A9B
:102AC00038D0B4F90C2093B218070CD52069A8B1FE
:102AD00013F001021ED0636900225B42A361A26071
:102AE000F0B1002038BDD9063CD5580726D420695E
:102AF00042F00803A3819BB20028E9D103F42072BD
:102B0000B2F5007FE4D02846214600F02FFDA389CE
:102B10002069DDE7990758BF6269A2600028E0D10B
:102B2000B4F90C301A06DDD543F04003A3814FF011
:102B3000FF3038BD184600F027F9C2E7216B51B1CC
:102B400004F14003994204D0284600F043FAB4F956
:102B50000C200023236300232069636022F02402F9
:102B60002060C5E742F0400209232B604FF0FF30A0
:102B7000A28138BD08000020024B13B1024800F0CA
:102B800005B8704700000000F92D40000023014601
:102B90001A46184601F000BCB1F90C309AB22DE982
:102BA000F0410D46110780463AD46A6843F4006349
:102BB000002AAB816FDDAC6A002C49D000229BB2A9
:102BC000D8F80060C8F8002013F4805267D02A6D4E
:102BD0005F0705D569682B6B521A0BB1EB6BD21AE4
:102BE0000023E9694046A047441C3CD0B5F90C30AD
:102BF0002A692A6023F400630022AB81DB046A6047
:102C000047D4296BC8F8006011B305F1400399421D
:102C100002D0404600F0DEF900202863BDE8F081D4
:102C20002E69AEB12C682E6091070CBF6B69002332
:102C3000A41BAB600AE0234632466F6AE96940464E
:102C4000B8470028A4EB0004064404DD002CF2DCA5
:102C50000020BDE8F081AB8943F04003AB814FF029
:102C6000FF30BDE8F081D8F800401D2CF3D8194B97
:102C7000E340DB4313F00103EDD1B5F90C206B60A9
:102C800022F400632969AB81DA042960B9D5002CEC
:102C9000B7D12865B5E7EA6B002A8CDCD8E70123B9
:102CA000E9694046A047431C024602D0AB89AC6AA2
:102CB0008EE7D8F80030002BF8D01D2B01D0162B52
:102CC00002D1C8F80060C3E7AB8943F04003AB8191
:102CD000BDE8F0810100402038B50D46044608B13A
:102CE000836BBBB1B5F90C0088B16B6EDB0701D407
:102CF000810517D520462946FFF74EFF6B6EDA0790
:102D0000044602D4AB899B0507D5204638BD04464E
:102D1000204638BD00F038F8E4E7A86D00F0F6FB77
:102D2000204638BDA86D00F0EFFBE3E7014900F055
:102D3000AFBB00BF8144400010B500230446818131
:102D4000C2810360436083604366036143618361C2
:102D5000194608225C30FEF7FFFD07480749084A7C
:102D6000084B2062E4616162A262E36204F15800F0
:102D7000BDE8104000F0C4BBC5414000E94140003F
:102D8000254240004542400010B50446124800F07C
:102D9000BBFBA26BD2B904F53B731048C4F8E83210
:102DA0000321C4F8E022E063C4F8E412606804215F
:102DB000FFF7C2FF01220921A068FFF7BDFF022231
:102DC0001221E068FFF7B8FF0123A3630248BDE8C2
:102DD000104000F09BBB00BFB00A00202D2D40002A
:102DE000014800F091BB00BFC40A0020014800F078
:102DF0008DBB00BFC40A002038B50A4C0A4D641BC5
:102E0000A4100AD004F18043013B05EB8305013C8B
:102E100055F804399847002CF9D1BDE8384002F044
:102E200037B800BFA04E40009C4E40002DE9F0474F
:102E300082B080468946144600F054FB012836D003
:102E40004A4604F15C0301A9404601F057FA421CCE
:102E5000064625D0A8B39DF804E000250DF1040A2C
:102E600009E023685A1C226083F800E00135B5426E
:102E700027D215F80AE0A368013B002BA360F0DA23
:102E8000A769BB4271462246404602DBBEF10A0FEB
:102E9000E7D101F0DBF9431CE8D102B0BDE8F087CF
:102EA000A38943F04003A38102B0BDE8F08709F194
:102EB000FF33FE2BC4D85FFA89FE06468DF804E086
:102EC000CBE7484602B0BDE8F08700BF30B5536E8F
:102ED00013F0010FB2F90C30144683B005469AB2D4
:102EE00001D190051CD5900406D4626E43F40053C2
:102EF00042F40052A381626628462246FFF796FFFD
:102F0000636EDA07054602D4A3899B0502D52846DD
:102F100003B030BDA06D00F0F9FA284603B030BD13
:102F2000A06D019100F0F0FAB4F90C3001999AB259
:102F3000D9E700BFF8B5244F0C46064600F07EFFE7
:102F4000BB685D68C4F57E610F3125F00305294437
:102F500021F47F6121F00F01A1F58054B4F5805F69
:102F600007DB0021304601F01BF9BB682B44984277
:102F700004D0304600F068FF0020F8BD61423046C2
:102F800001F00EF901300DD0104BBA6819682D1BF5
:102F900045F001053046091B5560196000F054FFEB
:102FA0000120F8BD0021304601F0FAF8BA68831A12
:102FB0000F2BDEDD064C0549246843F00103001B9E
:102FC00053600860D5E700BFA8050020500A002024
:102FD000B0090020002944D02DE9F0410D4680467B
:102FE00000F02CFF55F8047C694927F00103A5F196
:102FF0000804E2188E685068B24220F003005ED0E8
:10300000FE0750600BD455F8087CE41B01F1080E54
:10301000A56875453B446DD0E768EF60BD60151845
:103020006D68ED073ED543F001026260E350B3F5F1
:10303000007F17D2DB08581C9A104D6851F8307089
:10304000A7600123934001EBC0022B43083AE260E2
:103050004B6041F83040FC604046BDE8F04100F074
:10306000F3BE70475A0A042A52D89A0902F1390766
:10307000FF0002F13805C819CA59083890424FD0EC
:10308000516821F003018B4232D292689042F7D10D
:10309000C368A060E3609C60C4604046BDE8F04146
:1030A00000F0D2BE95683B4FBD42034440D0D0688B
:1030B000E86043F0010285606260E350B7E7FF0714
:1030C000034407D455F8082CA41A1344A068E268F6
:1030D000C2609060304A126843F001009342606021
:1030E0008C60B9D32D4B40461968FFF723FFB3E737
:1030F0001046CDE711184968C90744D49168D268D1
:10310000CA60034443F0010091606060E350A3E7AC
:10311000142A16D802F15C07FF0002F15B05AAE74A
:10312000AA1001234D6893402B434B600346B0E740
:1031300043F001024C610C61E560A5606260E35000
:103140008AE7542A06D81A0B02F16F07FF0002F132
:103150006E0590E7B2F5AA7F06D8DA0B02F1780780
:10316000FF0002F1770586E740F25450824206D80C
:103170009A0C02F17D07FF0002F17C057BE74FF41A
:103180007E777E2577E743F001016160136063E796
:10319000A8050020B0050020B4090020800A002006
:1031A0009368002B73D02DE9F04F8B8983B00C46C8
:1031B00019070090164626D5226922B313F00200A3
:1031C00035682CD04FF00009B04FC846B246B8451C
:1031D00043464A4628BF3B460098B8F1000F50D0FE
:1031E000E169666AB047002858DDDAF808301B1A32
:1031F0008144A8EB0008CAF80830002BE7D1002072
:1032000003B0BDE8F08F21460098FFF751FC00287D
:1032100040F03381A389356813F00200D2D113F056
:10322000010945D14F46019637B39A05D4F8088075
:1032300040F183804745C346C0F0AB8013F4906FE4
:1032400040F0AC802068BA465A46494600F092FDEC
:10325000A2682368A2EB08025B44A2602360019A83
:103260009368A3EB0A03D144A7EB0A079360002BF2
:10327000C5D0A389002FD8D1D5F800906F68083544
:10328000D2E7D5F80090D5F8048008359FE70020F4
:10329000704721460098FFF71FFD70B3B4F90C305A
:1032A00043F040034FF0FF30A38103B0BDE8F08F3F
:1032B000814633464E46A8469A464D464EB380B3A5
:1032C000206823696269B145CB4628BFB34698425E
:1032D0005F4604D9A36813449B4500F3A680934539
:1032E0004BDB1346676AE16900982A46B847071E18
:1032F000D4DDB9EB0709CCD00120DAF80830DB1BAC
:103300003D44F61BCAF80830002B3FF478AF002E7E
:10331000D5D108F1080313E9600098460833002E60
:10332000F9D032460A21284600F03AFC002800F085
:10333000A1800130A0EB0509C2E72068236998420B
:1033400002D863699F425DD2B84528BFB84642465D
:10335000494600F00FFDA3682268A3EB080342442E
:10336000A36022600BB1C24679E721460098FFF7BF
:10337000B3FC002892D1C24671E75A46294600F0B4
:10338000F9FCA2682368A2EB0B025B44A2602360F5
:10339000AFE72068B846BA46BB4655E76269206881
:1033A000216902EB4208A0EB010A08EBD8780AF188
:1033B00001004FEA680838444045424684BF8046D1
:1033C00042465B0544D51146009800F021F983463A
:1033D000002855D05246216900F032FCA38923F41D
:1033E000906343F08003A3810BEB0A00A8EB0A0370
:1033F000C4F810B0C4F814802060A360B846BA4680
:10340000BB4621E76FF00041B94228BF39464A4622
:1034100091FBF3F10098666A03FB01F3E169B047A1
:10342000B0F1000A3FF71BAF38E71A46294601936F
:1034300000F0A0FC2268019B00981A4422602146FB
:10344000FFF74AFC019B00287FF428AF1F4650E796
:10345000009800F0FFFC83460028C5D1009D21693B
:103460002846FFF7B7FDB4F90C300C2223F0800397
:103470002A6015E706F1010922E74FF0FF30BFE6A9
:10348000009A0C231360B4F90C3009E700FCFF7FAD
:103490002DE9F84310F538771FD0884606464FF0DF
:1034A00000097D68BC68013D11D4A389012B05F199
:1034B000FF3508D9B4F90E3001332146304602D029
:1034C000C04749EA00096B1C04F16804EDD13F686C
:1034D000002FE6D14846BDE8F883B9464846BDE826
:1034E000F88300BF044B054A1B685B6B002B08BFC9
:1034F000134693F828017047080000203C04002080
:10350000704700BF704700BF704700BF704700BFE3
:1035100070B50C46B1F90E10002990B015461E4644
:1035200014DB01AA01F00EF800280FDB029A02F466
:103530007042A2F50052B2FA82F252094FF480634F
:103540004FF4006032602B6010B070BDA289002380
:1035500012F08000336004D0402218462A6010B078
:1035600070BD4FF480632B6010B070BD8A899207E4
:103570000B4606D501F1430201211A601A61596117
:103580007047F0B583B001AB6A460C460646FFF7BC
:10359000BFFF00990546304600F03AF8B4F90C3008
:1035A000D8B1019A154F0099F76343F08003A381C6
:1035B0002060206161611AB92B43A38103B0F0BD83
:1035C0003046B4F90E1000F0D1FFA0B1A38923F06A
:1035D000030343F001031BB2EEE79A05EED423F098
:1035E000030304F1430243F002030121A38122609B
:1035F00022616161E2E7B4F90C30DDE72D2D400076
:10360000024B0146186800F003B800BF0800002014
:103610002DE9F04F01F10B06162E83B0054640F25E
:103620009E8036F0070600F1BD80B14200F2BA80FC
:1036300000F004FCB6F5FC7FC0F09382730A00F042
:10364000B880042B00F27981B30903F1390003F14A
:10365000380EC300BF4F3B44A3F108015C68A14290
:1036600006D10CE0002A80F2AA80E468A14206D0CC
:10367000636823F003039A1B0F2AF3DD70463C694D
:10368000DFF8E4E2744500F0AB81636823F00303E4
:103690009A1B0F2A00F39081002AC7F814E0C7F89C
:1036A00010E080F29D80B3F5007F80F06181DB083F
:1036B00003F1010C99107A6857F83C80C4F808802F
:1036C00001238B4007EBCC0113430839E1607B6099
:1036D00047F83C40C8F80C408210012494409C42BA
:1036E00000F28B801C4206D120F0030064001C42D3
:1036F00000F10400FAD007EBC009CC468046DCF8A4
:103700000C309C4507D16DE1002A80F27B81DB689B
:103710009C4500F06781596821F003018A1B0F2A3C
:10372000F2DDD3F80CC0D3F8088000939C1928462A
:1037300046F0010642F001055E60C8F80CC0CCF806
:1037400008807C613C61C4F80CE0C4F808E0656066
:103750005A5000F079FB009B03F108041EE0102989
:1037600020D800F06BFB102618230220794F3B4431
:10377000A3F108025C68944200F03D816368E1684F
:10378000A66823F00303234428465A68F16042F0F8
:1037900001028E605A6000F057FB0834204603B0E7
:1037A000BDE8F08F00240C2320462B6003B0BDE859
:1037B000F08F40204FF400734FF03F0E4AE7234450
:1037C000E1685A68A66842F00102F16028468E60FE
:1037D0005A6000F039FB0834204603B0BDE8F08F92
:1037E000234428465A6842F001025A6000F02CFB3C
:1037F0000834204603B0BDE8F08FBC68636823F04E
:103800000308B04504D3A8EB06030F2B00F3858013
:10381000DFF85891504BD9F800201B68013233442F
:1038200004EB080A00F0558103F580530F3323F4AD
:103830007F6B2BF00F0B5946284600F0B1FC411C62
:10384000024600F0FC80824500F2F780434B196885
:103850005944196000F04D81D9F8000001301BBFB8
:10386000A2EB0A0A5144C9F80020196012F00701BE
:1038700000F01581C1F10800C1F580510244083102
:1038800002EB0B09C9F30B09A1EB090949462846CC
:103890000193009200F084FC431C9DE80C0000F0B2
:1038A0004381801A484440F001001968BA604944D5
:1038B000BC425060196017D0B8F10F0F40F2FB8086
:1038C0006068A8F10C0222F0070204EB020E00F07F
:1038D00001004FF0050C10430F2A6060CEF804C0C1
:1038E000CEF808C000F217811D4BBC681A689142DF
:1038F00088BF19601B4B1A689142626888BF1960C3
:1039000022F003029642A2EB060301D80F2B04DC3F
:10391000284600F099FA002440E7A21943F0010379
:1039200046F0010666602846BA60536000F08CFAE3
:103930000834204603B0BDE8F08F142B71D9542B06
:1039400000F2A380330B03F16F0003F16E0EC3008E
:1039500080E600BFA8050020800A0020500A002051
:10396000780A00207C0A0020B0050020B009002061
:103970005A0A042A5BD9142A00F2AE8002F15C01D3
:10398000C9005B3207EB010C7958ACF1080C8C458F
:1039900000F088804A6822F00302934273D289685B
:1039A0008C45F7D1DCF80C207B68E260C4F808C0D5
:1039B0009460CCF80C408FE6A11946F0010C42F05F
:1039C0000106C4F804C0284679613961C1F80CE0E9
:1039D000C1F808E04E60E25000F036FA0834DDE647
:1039E0007B6879E608F1010818F0030F0CF1080C68
:1039F0007FF485AE2DE0DC68A34208BF02303FF4BF
:103A00003EAEBBE619441C464A68DB6854F8086FB2
:103A100042F001024A602846F3609E6000F014FA0A
:103A2000BCE603F15C0003F15B0EC30012E69A09E9
:103A300002F13901C9003832A4E7BC4254D0BC6855
:103A4000626822F003025DE759F80839994540F0B1
:103A5000868010F0030F00F1FF30F5D17B6823EA78
:103A600004037B6064009C423FF6C7AE002C3FF429
:103A7000C4AE1C4240467FF43EAE64001C4200F1DE
:103A80000400FAD037E68C468CE7B3F5AA7F15D848
:103A9000F30B03F1780003F1770EC300DAE54FF47E
:103AA0008051EDE67B689210012101FA02F2134386
:103AB0007B60624679E70123536029E740F2545264
:103AC000934222D8B30C03F17D0003F17C0EC300B6
:103AD000C0E503F1100BAEE6542A29D81A0B02F107
:103AE0006F01C9006E324DE7204B196859441960C7
:103AF000B2E6CAF30B0000287FF4AEAE08EB0B036E
:103B0000BA6843F001035360EEE67F204FF47E7302
:103B10004FF07E0E9EE504F1080128460093FFF762
:103B200059FA009B1968DFE601204FF00009BCE656
:103B3000B2F5AA7F05D8DA0B02F17801C900773215
:103B400020E740F254518A4205D89A0C02F17D01D7
:103B5000C9007C3216E74FF47E717E2212E77B6843
:103B600080E7F00806F1080300E600BF500A0020D5
:103B700082B049B15AB16BB113780B601278101C46
:103B800018BF012002B0704701A9002AF3D11046E6
:103B900002B070476FF00100F4E700BF00000000C2
:103BA00001F0FF01102A2BDB10F0070F08D010F8EE
:103BB000013B013A8B422DD010F0070F42B3F6D1F2
:103BC000F0B441EA012141EA014122F007047FF00B
:103BD00000070023F0E80256083C85EA010586EA62
:103BE000010685FA47F5A3FA87F586FA47F6A5FA9E
:103BF00087F68EB9EED1F0BC01F0FF0102F00702AA
:103C000032B110F8013B013A83EA010313B1F8D154
:103C10000020704701387047002D06BF3546033835
:103C2000073815F0010F07D1013015F4807F02BF6E
:103C3000013015F4C03F0130F0BC0138704700BFBF
:103C4000844641EA000313F003036DD1403A41D3A7
:103C500051F8043B40F8043B51F8043B40F8043B66
:103C600051F8043B40F8043B51F8043B40F8043B56
:103C700051F8043B40F8043B51F8043B40F8043B46
:103C800051F8043B40F8043B51F8043B40F8043B36
:103C900051F8043B40F8043B51F8043B40F8043B26
:103CA00051F8043B40F8043B51F8043B40F8043B16
:103CB00051F8043B40F8043B51F8043B40F8043B06
:103CC00051F8043B40F8043B51F8043B40F8043BF6
:103CD000403ABDD2303211D351F8043B40F8043B96
:103CE00051F8043B40F8043B51F8043B40F8043BD6
:103CF00051F8043B40F8043B103AEDD20C3205D3A6
:103D000051F8043B40F8043B043AF9D2043208D09D
:103D1000D2071CBF11F8013B00F8013B01D30B880F
:103D200003806046704700BF082A13D38B078DD0ED
:103D300010F003038AD0C3F10403D21ADB071CBFBF
:103D400011F8013B00F8013B80D331F8023B20F829
:103D5000023B7BE7043AD9D3013A11F8013B00F862
:103D6000013BF9D20B7803704B7843708B788370EA
:103D7000604670478842F0B50DD98B1898420AD238
:103D80008418002A51D0224613F8014D02F8014D43
:103D90009942F9D1F0BD0F2A48D941EA00039B07A7
:103DA00046D100F1100401F11003154653F8106CD0
:103DB00044F8106C53F80C6C44F80C6C53F8086C15
:103DC00044F8086C103D53F8046C44F8046C0F2D53
:103DD00003F1100304F11004E8D8A2F1100323F05A
:103DE0000F0302F00F0E1033BEF1030F194403440A
:103DF00021D91E1F0D467446043C55F8047B46F835
:103E0000047F032CF8D8AEF1040424F00304043436
:103E10002144234402F0030262B1013B0A4411F839
:103E2000014B03F8014F8A42F9D1F0BD0346F3E795
:103E30000346F2E7F0BD7246EEE700BF0148FFF728
:103E400063BB00BFB40A00200148FFF75FBB00BF9F
:103E5000B40A0020002900F095802DE9F04F0D46AE
:103E6000164683B0804606F10B07FFF7E7FF55F8CB
:103E700004EC162F2EF00304A5F108093CD81022FB
:103E80001746BE423DD8944243DAC44B996809EBC9
:103E90000400884200F0B480436823F0010101442B
:103EA0004968C9074CD51EF0010F00F09B803146D0
:103EB0004046FFF7ADFB064600283AD055F8043CD3
:103EC00023F001034B44A0F108029A4200F0218143
:103ED000221F242A00F20781132A00F2DB80034606
:103EE0002A46116819605168596092689A6029469B
:103EF0004046FFF76FF81CE027F00707002F3A460F
:103F0000BFDA00260C233046C8F8003003B0BDE805
:103F1000F08F2E46E31B0F2B1ED8D9F8043003F088
:103F2000010323434C44C9F80430636843F00103A0
:103F300063604046FFF788FF304603B0BDE8F08F6E
:103F400023F00303E11891421FDBC36882682E4609
:103F5000D3600C469A60DDE7D9F8042009EB07012D
:103F600002F001024C4443F001031743C9F8047006
:103F70004B60636843F00103083163604046FFF71C
:103F800029F8D6E71146FFF743BB1EF0010F8ED18B
:103F900055F8081CA9EB010ADAF8041021F0030116
:103FA0000B442344934225DBC26881685646CA60AD
:103FB0009160DAF80C1056F8080F221F242AC1600D
:103FC000886000F29480132A6FD92968CAF8081013
:103FD0006968CAF80C101B2A00F2A28008350AF1A1
:103FE000100263E055F8083CA9EB030ADAF8041064
:103FF00021F0030163189342FFF659AF5646D8E704
:10400000416821F0030BA34407F11000834556DA01
:104010001EF0010F7FF44BAF55F8081CA9EB010A05
:10402000DAF8041021F003018B445845E2DC5646CF
:10403000DAF80C1056F8080F221F242AC160886095
:1040400000F28F80132A40F28A802968CAF808108B
:104050006968CAF80C101B2A00F28A8008350AF138
:1040600010022968116069685160A96891600AEBC3
:104070000701ABEB070242F0010299604A60DAF8EF
:10408000043003F001031F434046CAF80470FFF7F1
:10409000DBFE51E72B6803606B6843601B2A2DD859
:1040A00000F1080305F108021BE732462968116098
:1040B00069685160A96891601C46D1462AE709EBFE
:1040C0000701ABEB070B4BF0010299604A6055F812
:1040D000043C03F001031F43404645F8047CFFF70E
:1040E000B3FE2E4628E72946FFF744FEFFE62946A1
:1040F00030461C46D146FFF73DFE0BE7AB688360B8
:10410000EB68C360242A17D000F1100305F11002F8
:10411000E7E650F8043C23F003031C442E46F9E67E
:10412000A968CAF81010E968CAF81410242A0CD03B
:1041300010350AF11802B9E72B6903616B69436115
:1041400005F1180200F11803CBE62A69CAF8182015
:104150006A69CAF81C2018350AF12002A6E732461F
:104160007FE7294630460193FFF704FE019B7EE777
:10417000A968CAF81010E968CAF81410242A03D0F4
:1041800010350AF118026CE72A69CAF818206A6922
:10419000CAF81C2018350AF1200262E7A8050020A1
:1041A00038B5074C0023054608462360FDF770FB31
:1041B000431C00D038BD2368002BFBD02B6038BDDA
:1041C000C80A002010B50C46B1F90E1000F0F6F93F
:1041D000002803DB236D0344236510BDA38923F46A
:1041E0008053A38110BD00BF2DE9F0411646B1F9FF
:1041F0000C201F46D3050C46054607D50022022396
:10420000B1F90E1000F0C4F9B4F90C20B4F90E1095
:1042100022F48052A2813B4632462846BDE8F04156
:1042200000F0A4B810B50C46B1F90E1000F0B0F9CA
:10423000A389421C0EBF23F4805343F480532065AE
:10424000A38110BDB1F90E1000F008B9F8B50D4604
:104250001446064610B1836B002B4BD0B4F90C20EA
:10426000A369A36091B2080739D52369002B36D022
:10427000EDB289042F4615D522686169D31A8B42A5
:104280001CDA0133A168501C0139A160206015704F
:1042900062699A421AD0A389DB0701D50A2D15D08D
:1042A0003846F8BD616E42F4005221F40051A281FB
:1042B000226861666169D31A8B42E2DB214630468F
:1042C000FEF70AFD40B922680123DBE721463046AC
:1042D000FEF702FD0028E3D04FF0FF37E0E721466C
:1042E0003046FEF7E5FB0028F6D1B4F90C2023692F
:1042F00091B2BDE7FEF748FDB0E700BFF0B5064656
:1043000085B01F4689B1104C104D2468646B002C99
:1043100008BF2C46D4F8E040A047431C03D100223C
:104320008A233A60336005B0F0BD0C460649074A5F
:104330000968496B002908BF11462246D1F8E040C0
:1043400001A9A047E9E700BF080000203C040020C5
:1043500021B1FF2A04D80A7001207047084670472F
:104360008A2303604FF0FF30704700BF70B50D46E1
:10437000084C114606461A46284600232360FCF7DF
:104380002FFC431C00D070BD2368002BFBD0336092
:1043900070BD00BFC80A00202DE9F8432C4D064629
:1043A000286898460F469146FFF7AEF8294B1C68DF
:1043B000D4F84831002B3ED05A681F2A1CDC02F189
:1043C000010E76B103EB82010124C1F88890D3F885
:1043D000880194402043022EC3F88801C1F8088167
:1043E00023D00232C3F804E0286843F82270FFF7B4
:1043F0008DF80020BDE8F883174B0BB34FF4C8705D
:10440000FFF7FEF80346D8B1D4F848210260002136
:1044100041600A46C4F848014FF0010EC0F8881107
:10442000C0F88C11002EDCD0CCE7D3F88C110C43F3
:10443000C3F88C41D5E704F5A673C4F84831BBE74F
:104440002868FFF763F84FF0FF30BDE8F88300BF3E
:1044500038040020104D40000136400038B5074CAC
:104460000023054608462360FDF72EFA431C00D0C2
:1044700038BD2368002BFBD02B6038BDC80A002054
:1044800070B559B105460C4610B1836B002B3CD07A
:10449000636ED80705D5B4F90C302BB90026304629
:1044A00070BDA38999053CD521462846FEF774FBCB
:1044B000E36A064633B1E169284698470028B8BF49
:1044C0004FF0FF36A3891A0622D4216B41B104F1C3
:1044D0004003994202D02846FEF77CFD0023236367
:1044E000616C21B12846FEF775FD00236364FEF779
:1044F00077FC636E0022DB07A2810ED5A06DFFF76B
:1045000001F8FEF773FC304670BDFEF73DFCBFE7D7
:1045100021692846FEF75EFDD7E7A06DFEF7F6FF9E
:10452000ECE7A06DFEF7F0FFB4F90C30002BBBD127
:10453000666E16F00106B1D1A06DFEF7E7FF3046BA
:1045400070BD00BF38B50B46074C054611461846EE
:1045500000232360FDF7BBF9431C00D038BD23685E
:10456000002BFBD02B6038BDC80A002038B5074CA3
:104570000023054608462360FDF7AEF9431C00D032
:1045800038BD2368002BFBD02B6038BDC80A002043
:1045900070B50D46084C114606461A4628460023BB
:1045A0002360FDF79BF9431C00D070BD2368002BEE
:1045B000FBD0336070BD00BFC80A002070B50D4647
:1045C000084C114606461A46284600232360FCF78D
:1045D000E9FA431C00D070BD2368002BFBD0336088
:1045E00070BD00BFC80A002053B94AB9002908BFEE
:1045F00000281CBF4FF0FF314FF0FF3000F07AB9B8
:10460000ADF1080C6DE904CE00F006F8DDF804E029
:10461000DDE9022304B070472DE9F0478C460D46D2
:104620000446089E002B51D18A4217466DD9B2FA32
:1046300082FEBEF1000F0BD0CEF1200C01FA0EF578
:1046400020FA0CFC02FA0EF74CEA050C00FA0EF404
:104650004FEA174A250CBCFBFAF81FFA87F90AFB48
:1046600018CC45EA0C4508FB09F3AB420AD9ED1911
:1046700008F1FF3280F02381AB4240F22081A8F1A3
:1046800002083D44ED1AA4B2B5FBFAF00AFB10553E
:1046900044EA054400FB09F9A14509D9E41900F1F0
:1046A000FF3380F00A81A14540F2078102383C4483
:1046B000A4EB090440EA08400021002E61D024FA4E
:1046C0000EF4002334607360BDE8F0878B4207D995
:1046D000002E54D0002186E821000846BDE8F0876E
:1046E000B3FA83F1002940F08E80AB4202D38242BC
:1046F00000F2FA80841A65EB03050120AC46002E17
:104700003FD086E81010BDE8F08712B90127B7FB4B
:10471000F2F7B7FA87FEBEF1000F34D1EB1B3A0C6B
:104720001FFA87FC0121B3FBF2F8250C02FB1833BA
:1047300045EA03450CFB08F3AB4207D9ED1908F134
:10474000FF3002D2AB4200F2D1808046ED1AA3B214
:10475000B5FBF2F002FB105543EA05440CFB00FCEC
:10476000A44507D9E41900F1FF3302D2A44500F2B1
:10477000B8801846A4EB0C0440EA08409DE7314697
:104780003046BDE8F087CEF1200405FA0EF307FAB3
:104790000EF720FA04F83A0C25FA04F448EA030864
:1047A000B4FBF2F14FEA184502FB11441FFA87FCF3
:1047B00045EA044501FB0CF3AB4200FA0EF409D9BB
:1047C000ED1901F1FF3080F08A80AB4240F2878022
:1047D00002393D44EB1A1FFA88F5B3FBF2F002FBF5
:1047E000103345EA034500FB0CF3AB4207D9ED1942
:1047F00000F1FF386FD2AB426DD902383D44EB1A5D
:1048000040EA01418FE7C1F1200722FA07F88B4007
:1048100005FA01F448EA030320FA07FE4FEA134CB5
:10482000FD404EEA040EB5FBFCF94FEA1E440CFBBA
:1048300019551FFA83F844EA054509FB08F4AC4210
:1048400002FA01F200FA01FA08D9ED1809F1FF3075
:1048500043D2AC4241D9A9F102091D442D1B1FFAD4
:104860008EFEB5FBFCF00CFB10554EEA054400FB38
:1048700008F8A04507D9E41800F1FF3529D2A04572
:1048800027D902381C4440EA0940A4EB0804A0FBE5
:1048900002894C45C6464D4615D312D056B1BAEBE7
:1048A0000E0364EB050404FA07F7CB401F43CC402A
:1048B000376074600021BDE8F0871846F8E690463E
:1048C000E0E6C245EAD2B8EB020E69EB0305013817
:1048D000E4E72846D7E7404691E78146BEE7014630
:1048E00078E702383C4445E7084608E7A8F10208A3
:1048F0003D442BE7704700BF0A0D3D3D3D3D3D3D2A
:104900003D3D3D3D3D3D3D3D3D3D3D3D3D3D3D3DD7
:104910003D3D3D3D3D3D3D3D3D3D3D3D3D3D3D3DC7
:104920003D3D3D3D3D3D3D3D3D3D3D3D3D0A0D4D0A
:10493000656E753A2070726573732061206B6579BE
:1049400020746F206368616E6765207468652063FA
:104950006F6E66696775726174696F6E2E0A0D2DD0
:104960002D2D2D2D2D2D2D2D2D2D2D2D2D2D2D2D77
:104970002D2D2D2D2D2D2D2D2D2D2D2D2D2D2D2D67
:104980002D2D2D2D2D2D2D2D2D2D2D2D2D2D2D2D57
:104990002D2D2D2D2D2D2D2D0A0D00005B25635D58
:1049A00020303A2053657420414443207472696773
:1049B000676572206D6F64653A20536F6674776126
:1049C00072652E0A0D0000005B25635D20313A20E0
:1049D000536574204144432074726967676572208F
:1049E0006D6F64653A2041445452472E0A0D000011
:1049F0005B25635D20323A20536574204144432097
:104A000074726967676572206D6F64653A205469D6
:104A10006D65722054494F412E0A0D005B25635D80
:104A200020333A20536574204144432074726967EF
:104A3000676572206D6F64653A2050574D2045764A
:104A4000656E74204C696E652E0A0D005B25635DF2
:104A500020343A20536574204144432074726967BE
:104A6000676572206D6F64653A20467265652072D5
:104A7000756E206D6F64652E0A0D00005B25635D09
:104A800020543A20456E61626C652F4469736162FF
:104A90006C6520746F207472616E73666572207726
:104AA000697468205044432E0A0D00005B25635D45
:104AB00020533A20456E61626C652F4469736162D0
:104AC0006C6520746F207573652075736572207333
:104AD000657175656E6365206D6F64652E0A0D00E6
:104AE0005B25635D20503A20456E61626C652F4402
:104AF000697361626C652041444320706F77657211
:104B00002073617665206D6F64652E0A0D000000CC
:104B10005B25635D20473A20456E61626C652F44DA
:104B2000697361626C6520746F20736574206761BE
:104B3000696E3D3220666F7220706F74656E7469A5
:104B40006F6D65746572206368616E6E656C2E0AA8
:104B50000D0000005B25635D204F3A20456E6162C9
:104B60006C652F44697361626C65206F666673655E
:104B70007420666F7220706F74656E74696F6D65F6
:104B8000746572206368616E6E656C2E0A0D00009C
:104B90005B25635D20433A20456E61626C65204170
:104BA00075746F2043616C6962726174696F6E2005
:104BB0004D6F64652E0A0D0020202020513A2051AF
:104BC00075697420636F6E66696775726174696F69
:104BD0006E20616E64207374617274204144432EB0
:104BE0000D0000003D3D3D3D3D3D3D3D3D3D3D3DDC
:104BF0003D3D3D3D3D3D3D3D3D3D3D3D3D3D3D3DE5
:104C00003D3D3D3D3D3D3D3D3D3D3D3D3D3D3D3DD4
:104C10003D3D3D3D3D3D3D3D3D3D3D3D3D0D00006E
:104C20002D2D20414443204578616D706C65202D09
:104C30002D0D0A2D2D2053414D34532D454B32203F
:104C40002D2D0D0A2D2D20436F6D70696C65643A12
:104C5000204A616E20313920323032322031333AED
:104C600030393A3339202D2D0D000000436F6E6628
:104C700069677572652073797374656D20746963F3
:104C80006B20746F2067657420316D7320746963C5
:104C90006B20706572696F642E0D00005072657331
:104CA0007320616E79206B657920746F206469735D
:104CB000706C617920636F6E666967757261746983
:104CC0006F6E206D656E752E0D0000004348253017
:104CD00032643A2025303464206D762E2020202046
:104CE00000000000010000000200000004000000BD
:104CF000080000001000000020000000400000003C
:104D0000800000000001000000020000000400001C
:104D1000100000200A0000003031323334353637BD
:104D200038394142434445460000000030313233B7
:104D300034353637383961626364656600000000D7
:104D4000286E756C6C290000202020202020202057
:104D500020202020202020203030303030303030D3
:104D6000303030303030303043000000504F534945
:104D7000580000002E0000000020202020202020CD
:104D800020202828282828202020202020202020FB
:104D9000202020202020202020881010101010100B
:104DA0001010101010101010100404040404040457
:104DB00004040410101010101010414141414141F1
:104DC00001010101010101010101010101010101D3
:104DD00001010101101010101010424242424242E3
:104DE00002020202020202020202020202020202A3
:104DF000020202021010101020000000000000004B
:104E000000000000000000000000000000000000A2
:104E10000000000000000000000000000000000092
:104E20000000000000000000000000000000000082
:104E30000000000000000000000000000000000072
:104E40000000000000000000000000000000000062
:104E50000000000000000000000000000000000052
:104E60000000000000000000000000000000000042
:104E7000000000000000000000000000F8B500BFC6
:104E8000F8BC08BC9E467047792B4000F1004000FA
:104E9000F8B500BFF8BC08BC9E467047CD00400086
:084EA00078F7FF7F010000001C
:104EA8000F05000000093D00100000200000000070
:104EB80000000000FC02002064030020CC03002056
:104EC80000000000000000000000000000000000DA
:104ED80000000000000000000000000000000000CA
:104EE80000000000000000000000000000000000BA
:104EF80000000000000000000000000000000000AA
:104F08000000000000000000000000000000000099
:104F18000000000000000000000000000000000089
:104F28000000000000000000000000000000000079
:104F38000000000000000000000000000000000069
:104F48000000000000000000000000000000000059
:104F58000000000000000000010000000000000048
:104F68000E33CDAB34126DE6ECDE05000B0000000D
:104F78000000000000000000000000000000000029
:104F88000000000000000000000000000000000019
:104F98000000000000000000000000000000000009
:104FA80000000000000000000000000000000000F9
:1052D8000000000000000000A40A002043000000B5
:1052E80000000000000000000000000000000000B6
:1052F8000000000000000000000000004300000063
:105308000000000000000000000000000000000095
:105318000000000000000000000000004300000042
:105328000000000000000000000000000000000075
:105338000000000000000000000000004300000022
:105348000000000000000000000000000000000055
:105358000000000000000000000000004300000002
:105368000000000000000000000000000000000035
:1053780000000000000000000000000043000000E2
:105388000000000000000000000000000000000015
:1053980000000000000000000000000043000000C2
:1053A80000000000000000000000000000000000F5
:1053B8000000000000000000000000005143400011
:1053C800713B400000000000784D4000744D4000E3
:1053D800E04C4000E04C4000E04C4000E04C400015
:1053E800E04C4000E04C4000E04C4000E04C400005
:1053F800E04C4000FFFFFFFFFFFFFFFFFFFFFFFF45
:10540800FFFF00000100415343494900000000002C
:105418000000000000000000000000000000000084
:10542800000000000000415343494900000000000B
:105438000000000000000000000000000000000064
:105448000000000000000000000000000000000054
:10545800A8050020A8050020B0050020B005002000
:10546800B8050020B8050020C0050020C0050020B0
:10547800C8050020C8050020D0050020D005002060
:10548800D8050020D8050020E0050020E005002010
:10549800E8050020E8050020F0050020F0050020C0
:1054A800F8050020F805002000060020000600206E
:1054B800080600200806002010060020100600201C
:1054C80018060020180600202006002020060020CC
:1054D800280600202806002030060020300600207C
:1054E800380600203806002040060020400600202C
:1054F80048060020480600205006002050060020DC
:10550800580600205806002060060020600600208B
:10551800680600206806002070060020700600203B
:1055280078060020780600208006002080060020EB
:10553800880600208806002090060020900600209B
:105548009806002098060020A0060020A00600204B
:10555800A8060020A8060020B0060020B0060020FB
:10556800B8060020B8060020C0060020C0060020AB
:10557800C8060020C8060020D0060020D00600205B
:10558800D8060020D8060020E0060020E00600200B
:10559800E8060020E8060020F0060020F0060020BB
:1055A800F8060020F8060020000700200007002069
:1055B8000807002008070020100700201007002017
:1055C80018070020180700202007002020070020C7
:1055D8002807002028070020300700203007002077
:1055E8003807002038070020400700204007002027
:1055F80048070020480700205007002050070020D7
:105608005807002058070020600700206007002086
:105618006807002068070020700700207007002036
:1056280078070020780700208007002080070020E6
:105638008807002088070020900700209007002096
:105648009807002098070020A0070020A007002046
:10565800A8070020A8070020B0070020B0070020F6
:10566800B8070020B8070020C0070020C0070020A6
:10567800C8070020C8070020D0070020D007002056
:10568800D8070020D8070020E0070020E007002006
:10569800E8070020E8070020F0070020F0070020B6
:1056A800F8070020F8070020000800200008002064
:1056B8000808002008080020100800201008002012
:1056C80018080020180800202008002020080020C2
:1056D8002808002028080020300800203008002072
:1056E8003808002038080020400800204008002022
:1056F80048080020480800205008002050080020D2
:105708005808002058080020600800206008002081
:105718006808002068080020700800207008002031
:1057280078080020780800208008002080080020E1
:105738008808002088080020900800209008002091
:105748009808002098080020A0080020A008002041
:10575800A8080020A8080020B0080020B0080020F1
:10576800B8080020B8080020C0080020C0080020A1
:10577800C8080020C8080020D0080020D008002051
:10578800D8080020D8080020E0080020E008002001
:10579800E8080020E8080020F0080020F0080020B1
:1057A800F8080020F808002000090020000900205F
:1057B800080900200809002010090020100900200D
:1057C80018090020180900202009002020090020BD
:1057D800280900202809002030090020300900206D
:1057E800380900203809002040090020400900201D
:1057F80048090020480900205009002050090020CD
:10580800580900205809002060090020600900207C
:10581800680900206809002070090020700900202C
:1058280078090020780900208009002080090020DC
:10583800880900208809002090090020900900208C
:105848009809002098090020A0090020A00900203C
:08585800FFFFFFFF000002004A
:040000050040164160
:00000001FF
