S021000042617474657279204D6F6E69746F72696E672053797374656D2E737265633D
S21440000020760020CD364000C9364000C936400034
S214400010C9364000C9364000C936400000000000DE
S214400020000000000000000000000000C93640004C
S214400030C936400000000000C9364000C9364000BE
S214400040C9364000C9364000C9364000DD49400048
S214400050C9364000C9364000C9364000000000009E
S2144000605D2D4000692D400000000000DD28400066
S214400070B50F400000000000C936400000000000F8
S214400080000000000000000000000000C9364000EC
S214400090C9364000C9364000C93640002D494000A8
S2144000A07D494000A94940000000000000000000D3
S2144000B000000000C947400000000000C93640006C
S2144000C0C9364000C93640006916400010B5054C98
S2144000D0237833B9044B13B10448AFF300800123AF
S2144000E0237010BD380B002000000000FCAA400022
S2144000F00C4B43B10C480D4910B5AFF300800C488B
S214400100036823B910BD0A48036833B97047094BE2
S214400110002BF7D0BDE810401847064B002BF5D013
S214400120184700BF00000000FCAA40003C0B00201F
S214400130FCAA4000000000000E4900230B700E4A47
S21440014013800E4AA1201070202050705380938058
S2144001500220D08013810A4A4FF4E13010601371B8
S2144001605371082393710B780133DBB20B70012077
S214400170704700BF5F0B0020F40B00208C0C002063
S214400180580B0020024A1378013BDBB213707047CD
S2144001905F0B0020044A1378013BDBB213701378E0
S2144001A00022024B1A707047600B0020560B00204E
S2144001B000207047002070471D4B1B7813F0800FBF
S2144001C005D103F06003202B18D00020704703F0C1
S2144001D06003202B01D000207047154B5B78212B05
S2144001E024D1134BDB88072B01D000207047104BDF
S2144001F0104A9A6007229A81012070470C4B587823
S214400200202804D0222814BF002001207047084B25
S214400210DB88072B01D000207047054B064A1A6141
S214400220044A9A6007229A8101207047002070474E
S214400230C8170020580B00203D02400070470000C1
S214400240444B1B7803B1704770B584B0424B984717
S214400250002841D0414B1C88414B9847844276D079
S214400260EFF31083B3FA83F35B09039372B6BFF3DD
S2144002705F8F00223B4B1A70039D3B4B1C78E4B2C9
S2144002803A4B33F81430002B2DD00022384B1A80CE
S214400290384B1B78002B42D1B4FA84F35B09324AC0
S2144002A0137001222B4B1A7025B12E4B1A70BFF3D8
S2144002B05F8F62B626462D4B33F81430402B14BF62
S2144002C00125002534D0244B984700282BD0244BBA
S2144002D09847224B18802EE0204B1C88264B984788
S2144002E08442BDD133E0224A1388013313801A4B2F
S2144002F0984718B91E4B1B88632B08D9164B98474E
S2144003000028C2D01A4B1B88B3F5487FBDD2F5B142
S2144003100122144B1A70BFF35F8F62B617E0B4FA2F
S21440032084F46409BDE7144B98470C4B188002E0F0
S21440033000220A4B1A800D4B33F816300F4A0092B3
S2144003400F4A02EB8412294681200E4CA04704B087
S21440035070BD00BF880C0020C9204000840C0020DF
S2144003603521400028010020800C00207C0C002015
S214400370540B0020F80B0020252140008903400044
S214400380FC0B00208D24400000B1704708B5074B99
S2144003901B78B3FA83F35B09054A22F81300054B32
S2144003A01870054B1870054B984708BD800C002008
S2144003B07C0C0020F80B0020880C002041024000F6
S2144003C008B50020014B984708BD00BF41024000D9
S2144003D082B0EFF31083B3FA83F35B09019372B6EE
S2144003E0BFF35F8F00220B4B1A7001990A4B188897
S2144003F083B20A4A1278D2B2094830F8120080B264
S214400400C01A29B10122034B1A70BFF35F8F62B640
S21440041002B0704728010020EC0B0020E80B0020BB
S214400420E40B002008B50020014B984708BD00BFEC
S214400430D103400008B5034B9847003018BF012051
S21440044008BD00BFD103400010B584B0EFF3108361
S214400450B3FA83F35B09039372B6BFF35F8F002250
S2144004601E4B1A70039B1E4A14781E4A12784AB9CD
S214400470E4B21D4A118889B21C4A32F8142092B25E
S214400480914209D23BB30122144B1A70BFF35F8FDF
S21440049062B6002004B010BD0021134A1180B4FAA1
S2144004A084F252090E490A7001210E4A117023B196
S2144004B00A4B1970BFF35F8F62B600200C4B98470B
S2144004C00C4B009340230C4A02EB8412012102207D
S2144004D00A4CA047DEE70020DCE700BF28010020EA
S2144004E0E80B0020F00B0020EC0B0020E40B002073
S2144004F03504400095054000640B00208D244000E4
S21440050010B50024164B1C70164B1C70164B1C70F6
S214400510164B1C70164B1C805C80164B1C8020466D
S214400520154B9847154B1C70154B1C70154B1C8073
S2144005305C80154B1C802046144B9847014640B1C2
S214400540074A13780133DBB213701378DBB2012B02
S21440055001D0084610BD01220D4B1A70F9E700BFC6
S214400560600B0020880C0020F80B0020800C002038
S2144005707C0C0020840C002041024000F00B002040
S214400580E80B0020E40B0020EC0B00204904400060
S214400590560B0020E8B910B582B010460D4B1C78BB
S2144005A0B4FA84F4640951B189B20B4B23F81410A1
S2144005B000200A4B18700A4B984702B010BD094BF2
S2144005C000934023084A02EB84120121074CA047BF
S2144005D0F3E77047E80B0020E40B0020F00B002008
S2144005E04904400095054000640B00208D244000DF
S2144005F02DE9F04782B0254B93F80680B8F1090FF5
S21440060014BF4FF000084FF001084FF0000A204C8E
S214400610D14657461F4D204E04E08B4223D31F4BF6
S2144006201B78D3B1EFF31083B3FA83F35B090193DE
S21440063072B6BFF35F8F277001982B889BB23278D3
S214400640D2B2174931F8121089B20028E5D00120FD
S2144006502070BFF35F8F62B6DFE74FF0000A504668
S21440066002B0BDE8F0870F4901EB8212D25C42EA45
S2144006700A0A01339BB22B8048460B4B9847B8F189
S214400680000FECD04FEA0A2AC846CBE7580B0020AA
S21440069028010020EC0B0020E80B0020560B002021
S2144006A0E40B0020640B00204904400008B50020FD
S2144006B0014B984708BD00BFF105400082B0EFF3FC
S2144006C01083B3FA83F35B09019372B6BFF35F8F6F
S2144006D00022144B1A70019A134B1B78DBB2134955
S2144006E031F8130040280AD0C0F140002AB1012258
S2144006F00C4B1A70BFF35F8F62B602B070470C495E
S21440070009780029F0D10B4909780029ECD101205D
S21440071008490870B3FA83F35B0903490B7000205D
S214400720E2E700BF28010020800C00207C0C00205F
S214400730880C0020F80B002008B5034B9847003083
S21440074018BF012008BD00BFBD06400008B5002008
S214400750014B984708BD00BF390740002DE9F041DE
S21440076082B00C461D4B9D79092D14BF00250125EE
S2144007701B4E1C4FDFF87C8022E0EFF31083B3FA69
S21440078083F35B09019372B6BFF35F8F00233B7020
S214400790019898F80030DBB2134A32F8131001F192
S2144007A0010E22F813E0114A02EB83135C5420B189
S2144007B001233B70BFF35F8F62B665B124120025FC
S2144007C00020B0470028D8D1094B1B78002BF7D122
S2144007D002B0BDE8F0810120FAE700BF580B0020C8
S2144007E039074000280100207C0C0020FC0B00202C
S2144007F0560B0020800C002008B501460020014B17
S214400800984708BD5D074000104B1B681A68538820
S2144008101A4403781844904211D24378042B10D0DF
S2144008208B4209D003781844904206D24378042B72
S21440083009D08B42F6D107E0704700207047002071
S2144008407047002070470020704700BFA40C00206F
S21440085008B5034B987800F07F00024B984708BDD8
S214400860C8170020CD204000194B1B784BB3194BBE
S2144008701B681B681A79824225D970B4164A1360E1
S2144008805C881C44A34220D20025012607E0124A79
S21440089013600FE01A7813443546A3420CD25A78B8
S2144008A0042AF7D19A788242F4D1DA788A42F1D192
S2144008B0002DECD1012002E0074A1360002070BCF6
S2144008C0704700207047002070470020F7E700BFC1
S2144008D0A00C0020A40C0020A80C00202DE9F84312
S2144008E004460021134B9847804610B94046BDE861
S2144008F0F883114B1B685B6853F82490D9F80C308A
S2144009009847014620460B4B984780460028EDD036
S2144009100A4B1C6805260A4D0A4F31462046A84712
S214400920044610B18078B847F7E7D9F804309847BE
S214400930DCE700BF69084000A40C0020A80C00209B
S214400940090840003D2240002DE9F0418046104B0A
S21440095098470346C8B10F4B1C6805260E4D0F4FEF
S21440096031462046A847044638B18288C178807808
S214400970B84703460028F3D107E0094B1B685B687D
S21440098053F828301B68984703461846BDE8F08160
S21440099069084000A80C0020090840004521400096
S2144009A0A40C002008B5014B984708BDED1F400039
S2144009B070B50D4B1B7883B10C4B1B681B681B79BD
S2144009C05BB100240A4E094D2046B0470134E4B2DC
S2144009D02B681B681B79A342F6D80022024B1A707C
S2144009E00122044B1A8070BDA00C0020A40C0020ED
S2144009F0DD084000960C002038B50D4B1B78B3B18F
S214400A000C4B1B681A6812798AB10024094D06E01F
S214400A100134E4B22B681A681279A24207D95B689F
S214400A2053F824301B69002BF2D09847F0E738BDC6
S214400A30A00C0020A40C0020F8B5964B00229A810A
S214400A401A615A611B7813F0800F14D113F0600FAF
S214400A5000F0B8808F4B1B7803F01F03012B00F08B
S214400A608B818C4B1B7803F01F03022B00F0AC816C
S214400A7000231846F8BD874AD288002A00F0CD8168
S214400A8013F0600FE6D113F01F0306D18149497871
S214400A90062913D0082958D049B1012B5CD0022B27
S214400AA0D8D17C4B5B78002B7ED0002360E1022AB5
S214400AB0D0D102217848794B98479FE0754B5A88A9
S214400AC0130A013B0E2B00F25081DFE813F00F00B3
S214400AD01C0036004E014E014E014E014E014E01A5
S214400AE04E014E014E014E014E012E006C4B1868D1
S214400AF001786A4B9847674BDA889B8993427DD941
S214400B00644B9A817AE0D2B2654B1B685B7C934219
S214400B10A0D9634B5B6853F8320041885F4B9847D7
S214400B205C4B9B6802225A70E5E75D4B986800284C
S214400B3090D04188594B9847DDE712F0FF0F89D196
S214400B4004215848554B9847D5E7012A82D10121C0
S214400B505548524B984751E04E4949780A299ED10C
S214400B60012A7FF477AF504B1B78002B3FF472AFCF
S214400B70484B1C794D4B1D682B681B79A3427FF66A
S214400B8069AF002120464A4B984700283FF462AFA1
S214400B906B6853F82430DB689847464B1870012141
S214400BA018463E4B984729E0022A7FF453AF394B0C
S214400BB01879414B9847414B188002211846374BCD
S214400BC098471BE013F01F0340F08280314A52786A
S214400BD0013A082A7CD8DFE812F013007B00CA00EE
S214400BE07B0009007B007B007B002300294BDB88D1
S214400BF0002B7FF42FAF324A264B1A61012338E789
S214400C00244BDB88002B7FF425AF224B5B88012BDF
S214400C107FF420AF204A138823F002031380EDE7C9
S214400C201C4BDB88002B7FF415AF264B98470028DB
S214400C303FF410AF174B9A78194B1B685B7C9A426F
S214400C403FF708AF204B9847124B9B78164A1370D5
S214400C50002BD3D003F10053013B114A526802EBFC
S214400C60C3001249086052F833301B79002BC5D0B8
S214400C7000242646154D0F4631462046A8470028F4
S214400C803FF4E8AE0134E4B23B681B681B79A342EC
S214400C90F2D8B3E7C8170020960C00203921400050
S214400CA0B000002024010020A00C0020A40C00204E
S214400CB0690840009C0C002095224000980C0020BB
S214400CC05108400009214000B10940004909400050
S214400CD0012B0AD0022B7FF4BDAE524B5B78012B22
S214400CE020D0032B2ED0002342E04E4A52780B2AC7
S214400CF0F0D14C4BDB88002B7FF4ACAE4A4B1B78D4
S214400D00002B3FF4A7AE474B1C795D882046474BE7
S214400D10984700283FF49EAEE9B22046444B984799
S214400D20034625E03F4BDB88002B7FF493AE3D4BDC
S214400D305B88002B7FF48EAE3A4B18793D4B984734
S214400D40034615E0374BDB88002B7FF483AE354BEC
S214400D505B88002B7FF47EAE324C2079364B98472A
S214400D602079364B9847034602E0002300E00023F4
S214400D70002B7FF47EAE6DE62B4B1B78002B4ED0BF
S214400D80284B1C792E4B1D682B681B79A34201D833
S214400D9000236EE6002120462A4B984700283FF461
S214400DA060AE6B6853F82450EB689847014620467F
S214400DB0244B984700283FF454AEAB689847034608
S214400DC000287FF456AE4CE6174B1B780BB31C4BF3
S214400DD01A6813681B79F3B100241A4E184F5368EB
S214400DE053F82450EB68984701462046B0470346E0
S214400DF000283FF43EAEAB689847034600287FF491
S214400E0038AE0134E4B23A6811680979A142E6D8AE
S214400E102FE600232DE600232BE6002329E60023B9
S214400E2027E600BFC8170020A00C0020DD084000C1
S214400E3049094000B523400009264000D52240001D
S214400E40A40C00206908400030B40124046000244B
S214400E50446040F20225C0F82051C0F80441C0F872
S214400E60144145685200B1FBF2F2013A120292B2C6
S214400E702B431A434260204630BC70474368D20139
S214400E80D2B219430A434260704710B44468090618
S214400E9001F0706121430A43190701F040511143A4
S214400EA0416010BC7047022303607047012303FA79
S214400EB001F101617047012303FA01F14161704776
S214400EC00F299ABF503050F82100002070474162E9
S214400ED07047000008B5120202F4706241F080616B
S214400EE01143024B9847002008BD00BF6900002010
S214400EF0A1F10E03012B02D84FF0FF30704710B51A
S214400F0082B0EFF31083B3FA83F35B09019372B6B2
S214400F10BFF35F8F00240B4B1C70019C120222F023
S214400F207F4222F0FF0242F0B442C9B21143064B60
S214400F3098472CB10122034B1A70BFF35F8F62B6FD
S214400F4002B010BD280100206D0000202DE9F843B6
S214400F5081460F46124B984705464846114B9847E0
S214400F60054013D0104C04F1600603E0B4420DD0A7
S214400F7010345DB12068B842F8D161682942F5D096
S214400F80E3689847636825EA0305EFE7074B1B6865
S214400F9023B1074B1B680BB148469847BDE8F8831A
S214400FA04D32400051324000AC0C0020F823002067
S214400FB01C0D002008B50C210148024B984708BD7F
S214400FC000100E404D0F4000034B1B6843F4802337
S214400FD01943016000207047200D00200268034B33
S214400FE01B68194311430160704700BF200D002065
S214400FF0036823EA0101024B1B68194301607047EE
S214401000200D0020C068704770B506460D4604683F
S21440101004F480344FF4803109480A4B98472DB980
S2144010204FF0FF33736024B9002070BD013D7560FA
S214401030F9E74FF480310248034B9847F4E700BF86
S21440104030140E40F10F4000DD0F4000034B0360AC
S2144010508368BFF34F8F20BF30BF7047040000A5A2
S214401060C16070470A430261704710B48901431853
S214401070022444504FF0FF319962196A5A6010BCFE
S2144010807047890105234350704789010223435026
S214401090704700EB8111CA61704700EB81114A62CC
S2144010A0704700EB8111086A7047000082B0014625
S2144010B028BB244B1B781BB9224B197002B07047D3
S2144010C0214B9B7803B9FEE7EFF31083B3FA83F323
S2144010D05B09009372B6BFF35F8F00221B4B1A70FA
S2144010E00098194A9378013B93700028E4D0012277
S2144010F0164B1A70BFF35F8F62B6DDE7FEE7114B03
S2144011001B78002BD8D1104B9B78FF2BF6D0EFF3F3
S2144011101083B3FA83F35B09019372B6BFF35F8F14
S21440112000220A4B1A700198074A9378013393704D
S2144011300028C1D00122054B1A70BFF35F8F62B6FC
S214401140BAE700BF250D0020C01700202801002068
S214401150034A0023136153619381024A1370704718
S214401160C81700202A0D002082B005220A4B1A70AC
S2144011700A4A136B0193019B43F04F030193019B73
S21440118043F020030193019B1363136B13F0200F6E
S214401190FBD002B0704700BF2A0D0020004003403D
S2144011A082B003220A4B1A700A4A136B0193019BC2
S2144011B043F04F030193019B43F010030193019BBF
S2144011C01363136B13F0100FFBD002B0704700BFD1
S2144011D02A0D00200040034008B5024B1B6903B1AE
S2144011E0984708BDC817002030B587B0634B1B78BA
S2144011F0032B29D0624B1B88624A9489E41AA4B216
S214401200002C44D1604A11880B449BB213805D4A3F
S214401210D2889A4203D05D4B1B78002B2BD00422F9
S214401220564B1A705A4A136B0193019B43F04F0377
S2144012300193019B23F001030193019B1363136BFE
S21440124013F0010FFBD114E0514A136B0093009B3F
S21440125043F04F030093009B23F001030093009B51
S2144012601363136B13F0010FFBD14A4B98474A4B5D
S214401270984707B030BD434B5B69002B5DD098471D
S21440128000285AD000223E4B1A803E4B9C893F2C69
S21440129053D900223D4B1A7040243A4B9968384B3C
S2144012A01888EFF31083B3FA83F35B09059372B69D
S2144012B0BFF35F8F0022394B1A70059D344B1B6B72
S2144012C013F0020F3DD14CB101440A46304812F8A3
S2144012D0013B0365531ADBB2A342F8D3284B1A8866
S2144012E014441C802A4A136B0393039B43F04F031A
S2144012F00393039B43F010030393039B1363136B07
S21440130013F0100FFBD0224A136B0493049B43F058
S2144013104F030493049B23F001030493049B13633D
S214401320136B13F0010FFBD1002DA2D001221B4BF3
S2144013301A70BFF35F8F62B69BE70122134B1A7099
S214401340ABE72DB10122154B1A70BFF35F8F62B623
S21440135004220A4B1A700E4A136B0293029B43F008
S2144013604F030293029B23F001030293029B1363F5
S214401370136B13F0010FFBD17BE700BF2A0D002053
S214401380260D0020C8170020280D0020240D002020
S21440139000400340D9114000511140002801002070
S2144013A038B5437C13F0100F16D00D46437C6FF3D0
S2144013B00413437404687CB102F10C03074951F8E6
S2144013C0233013F4806F18BF42F080028168012DED
S2144013D014BF00200120A04738BD00BF0040034096
S2144013E030B482B0411E830003F1402303F54033FE
S2144013F01A6B1C6B12F0020F32D014F0400F08D15B
S21440140001EB81022A4C04EB8202547C6FF3830486
S214401410547401EB8102264C04EB8202527C12F09B
S2144014200C0F28D11A6B0092009A42F04F0200929D
S214401430009A22F002020092009A1A631A6B12F087
S214401440020FFBD180B303282ED001EB8101184B4D
S21440145003EB81035A7C012161F383025A7423E033
S21440146001EB8102124C04EB8202547C012565F3A9
S21440147083045474CDE71A6B0192019A42F04F02EE
S2144014800192019A22F040020192019A1A631A6B65
S21440149012F0400FFBD101EB8101054B03EB8101BC
S2144014A04B7C6FF383034B7402B030BC704700BF75
S2144014B02C0D00202DE9F04383B088468146461E19
S2144014C006EB8602664B03EB820393F811C0CCF31F
S2144014D0810C002800F0B78003280CBF01230223AC
S2144014E0634540F3B28006EB86035D4A02EB830316
S2144014F0DA689B689A4209D306EB8601584C04EB9F
S2144015008101497C11F0400F00F0A38006EB860570
S214401510534901EB85056C681444991A2B8AC3F32A
S2144015200907B9423ABF0F464FF0010E4FF0000E82
S21440153006EB86034A4901EB83033A44DA60072FF9
S2144015402BD904F108033D46820002F1402202F501
S214401550403213F8081C116513F8071C116513F880
S214401560061C116513F8051C116513F8041C11655B
S21440157013F8031C116513F8021C116513F8011CBF
S2144015801165083D0833072DE3D8A7F1080323F07B
S214401590070308331C4407F007074FB1E3193149E6
S2144015A009F1140914F8012B41F829209C42F9D17D
S2144015B006EB86032A4A02EB83030CF1010C5A7CA5
S2144015C06CF383025A74B8F1000F14D0800000F117
S2144015D0402000F54030036B0193019B43F04F03DE
S2144015E00193019B43F010030193019B0363036B3C
S2144015F013F0100FFBD0BEF1000F08D006EB8603A9
S214401600174A02EB83035A7C6FF386125A7406EB32
S2144016108603134A02EB8303DA689B689A421AD31E
S21440162006EB86030E4A02EB83035B7C13F0400F07
S21440163013D106EB860602EB8606737C43F08003E6
S2144016407374002002E001234AE7012003B0BDE89E
S214401650F0830020FAE70120F8E70120F6E700BF14
S2144016602C0D0020004003402DE9F04F9BB0864BE8
S214401670984720B9854BDB6913F4807F3BD0222006
S214401680834B9847814B9B6913F4006F04D07F4B84
S214401690DB6913F4006F37D17C4BDB6913F0010F25
S2144016A000F0B681794B1B6B13F0040F33D1774BA8
S2144016B01B6B13F0010F40F0C380744B1B6B13F091
S2144016C0020F40F0C080714B1B6B13F0080F00F008
S2144016D09F816E4A136B0093009B43F04F03009329
S2144016E0009B23F008030093009B1363136B13F0D7
S2144016F0080FFBD105E072B6BFF35F8F0022654B43
S2144017001A701BB0BDE8F08F4FF400625F4B1A6250
S214401710614B9847F5E7614B1B78CBB95B4B1B6B2E
S214401720C3F30A43082B18D0584A136B0193019B06
S21440173043F04F030193019B23F004030193019B65
S2144017401363136B13F0040FFBD1554B9847D8E740
S214401750544B9847544B9847E0E7544B03F10800E6
S2144017604A490A6D03F8012F8342FAD1504B9847F5
S21440177098B9464A136B0293029B43F04F03029379
S214401780029B23F004030293029B1363136B13F034
S214401790040FFBD1424B9847B3E7464B93F90030D2
S2144017A0002B1DDB394A136B0593059B43F04F0313
S2144017B00593059B23F004030593059B1363136B66
S2144017C013F0040FFBD13B4BDB88002B35D00023B6
S2144017D0394A1380394A13800122304B1A7090E7F9
S2144017E02A4A136B0393039B43F04F030393039BD5
S2144017F043F080030393039B1363136B13F0800F34
S214401800FBD0224A136B0493049B43F04F0304938C
S214401810049B23F004030493049B1363136B13F09D
S214401820040FFBD10023244A1380244A138002224B
S2144018301A4B1A70224B984763E7224B984760E74B
S2144018401F4B98475DE7154B1B78012B3CD0022B6E
S21440185004D0042B02D0124B984701E0114B984716
S2144018600A4A136B0693069B43F04F030693069B68
S21440187023F002030693069B1363136B13F0020FC9
S214401880FBD1094B98473CE73935400000400340C0
S214401890D933400028010020F90940002A0D0020D5
S2144018A069114000D911400051114000C71700206F
S2144018B0390A4000C8170020280D0020260D0020B9
S2144018C0E9114000A1114000934B196BC1F30A4146
S2144018D0924B9B89924A15886A189342BCBF5B1B01
S2144018E099B28E4B9868284471B102468A4C236D53
S2144018F002F8013B131ADBB28B42F8D30D44ADB26B
S214401900874B1D8040291AD0844B9D815B6913B15B
S2144019109847002830D0804A136B0893089B43F0C2
S2144019204F030893089B23F002030893089B136316
S214401930136B13F0020FFBD17A4B9847E1E6774BD7
S214401940DA88794B1B882B449A42DDDD734B9B89A2
S214401950AB4225D0704A136B0B930B9B43F04F035F
S2144019600B930B9B23F002030B930B9B1363136B9E
S21440197013F0020FFBD1C4E66C4B9847664A136BD4
S2144019800793079B43F04F030793079B23F00203FD
S2144019900793079B1363136B13F0020FFBD1B0E65C
S2144019A05E4B5B6953B19847E8B15F495C4A0B8828
S2144019B0108803440B8000231380CBE75B4B98478B
S2144019C0554A136B0993099B43F04F030993099BB0
S2144019D023F002030993099B136313461A6B12F014
S2144019E0020FFBD18DE6514B98474B4A136B0A9337
S2144019F00A9B43F04F030A930A9B23F002030A9381
S214401A000A9B136313461A6B12F0020FFBD178E65B
S214401A10474A0123DFF800E118467FE107EB8702DB
S214401A20434B03EB8203B3F810A0CAF3090A236BB7
S214401A30C3F30A49B9F1000F00F0DF813C4B03EBDA
S214401A408203D3F808E0DA68AEEB020059684845EE
S214401A5040F2C78107EB8700354B03EB800302EB70
S214401A600900D86048464FF0000B11440B46226DE3
S214401A7003F8012B5A1A8242F9D330462D4B984729
S214401A80BBF1000F00F0BC81236B13F0200F7FF4F6
S214401A9038AE214B5D61264BBA00D11903EB81016C
S214401AA0CB688B60324600214046234B984728E659
S214401AB007EB87021E4B03EB8202537CC3F3810184
S214401AC0033161F383035374537C13F0200F5FD0CC
S214401AD013F00C0F32D0236B0C930C9B43F04F0348
S214401AE00C930C9B43F010030C930C9B2363236BCB
S214401AF013F0100FFBD0236B0D930D9B43F04F0359
S214401B000D930D9B23F001030D930D9B2363236BD5
S214401B1013F0010FFBD1F4E500400340C817002046
S214401B20260D0020A1114000280D0020691140001C
S214401B302C0D0020E1134000A1134000236B0E93B0
S214401B400E9B43F04F030E930E9B23F001030E9320
S214401B500E9B2363236B13F0010FFBD1236B0F9374
S214401B600F9B43F04F030F930F9B43F020030F93BD
S214401B700F9B2363236B13F0200FFBD007EB8707E5
S214401B80A14B03EB87035A7C6FF345125A74B8E5B2
S214401B9013F0800F38D107EB87029B4B03EB820391
S214401BA0DA689B689A4241D307EB8702964B03EB71
S214401BB082035B7C13F04C0F38D1EFF31083B3FAFB
S214401BC083F35B09109372B6BFF35F8F00228F4B8F
S214401BD01A70109B8E4A55612BB101228B4B1A709E
S214401BE0BFF35F8F62B6236B1193119B43F04F0395
S214401BF01193119B23F001031193119B2363236BD5
S214401C0013F0010FFBD17CE514237F4A03FB072327
S214401C10597C6FF3C7115974DA689A607C4B5D61E2
S214401C203246002140467B4B9847B4E7002E5BD0B7
S214401C30032E59D007EB8702734B03EB82035B7C82
S214401C4013F00C0F24D0236B1293129B43F04F03D8
S214401C501293129B43F010031293129B2363236B41
S214401C6013F0100FFBD0236B1393139B43F04F03DB
S214401C701393139B23F001031393139B2363236B4C
S214401C8013F0010FFBD100213046634B984738E5EF
S214401C9001213046604B9847A0B1236B1493149BA8
S214401CA043F04F031493149B23F001031493149BA7
S214401CB02363236B13F0010FFBD100213046564BB4
S214401CC098471EE51423504A03FB07277A7C6FF398
S214401CD0C7127A74FB68BB604D4B5D61324600218B
S214401CE040464C4B9847D8E7012130464A4B9847E8
S214401CF0236B1593159B43F04F031593159B23F0C9
S214401D0001031593159B2363236B13F0010FFBD13F
S214401D10F7E401331432042B00F08680DEB2DEF89E
S214401D20181000FA03F52942F3D05F1E90469C0037
S214401D3004F1402404F54034216B11F0420F7FF447
S214401D406DAE216B11F0010F7FF4B2AE216B11F036
S214401D50080FDED0236B1693169B43F04F03169363
S214401D60169B23F008031693169B2363236B13F0EE
S214401D70080FFBD1236B03F4E063B3F5807F3FF499
S214401D80C0AC236BBDE4224BDB6913F4005F50D03C
S214401D901F4C4FF418532362636101201F4B984732
S214401DA04FF48073236223614FF400632361A8E4F9
S214401DB0174B4FF480721A625A614FF400521A6100
S214401DC04FF400721A614FF480621A612220144B5D
S214401DD098470020114B984793E43046114B98475C
S214401DE052E607EB870C084B03EB8C03C3F80CE07A
S214401DF00028F2D04FF0010B37E63046094B9847A3
S214401E00CA453FF641AE7CE42C0D00202801002058
S214401E1000400340A1134000B5144000AD10400000
S214401E202D344000E11340004B4B9B6913F4005F98
S214401E30A9D1494B9B6913F4007F04D0464BDB691C
S214401E4013F4007FA4D1444B9B6913F4806F04D0F5
S214401E50414BDB6913F4806F9AD13F4B9B6913F477
S214401E60807F04D03C4BDB6913F4807FA0D13A4B93
S214401E70DB6913F4805F3FF444AC374C4FF4805337
S214401E802362364E012211463046354DA84702227F
S214401E90012106F11400A8470322012106F128007B
S214401EA0A847304B9847636823F001036360636834
S214401EB023F002036360A36843F48073A360A368BF
S214401EC023F07F03A360236B1893189B43F04F03C4
S214401ED01893189B23F4074323F080031893189B0A
S214401EE043F400431893189B23632246136B13F462
S214401EF0004FFBD0184A136B1993199B43F04F03BE
S214401F001993199B43F400431993199B1363136B5E
S214401F1013F4004FFBD0EFF31083B3FA83F35B095F
S214401F20179372B6BFF35F8F00220F4B1A70179B42
S214401F300121094A116123B10B4B1970BFF35F8F22
S214401F4062B60A4B9847044B4FF480721A614FF4BE
S214401F5000621A61FFF7D5BB004003402C0D0020FD
S214401F60A1134000B1094000280100205111400053
S214401F7010B582B0EFF31083B3FA83F35B09019395
S214401F8072B6BFF35F8F0022144B1A70019C01207B
S214401F90134B98472220134B9847134B5A6F22F403
S214401FA080725A675A6F42F400725A674FF48072D2
S214401FB01A614FF400521A614FF400721A614FF4DE
S214401FC080621A614FF400621A612CB10122034B01
S214401FD01A70BFF35F8F62B602B010BD28010020B2
S214401FE0AD104000D93340000040034030B583B0C8
S214401FF0EFF31083B3FA83F35B09009372B6BFF333
S2144020005F8F0024274B1C70009D2220264B98474C
S214402010264B9847264B502283F8222304225A60A8
S214402020234624489A00D11800EB8101497C1A4483
S21440203000EB820201F083016FF3C7115174013344
S214402040032BEFD14FF480201B4B984700221B4BAD
S2144020501A701B4B1B78FF2B22D0EFF31083B3FA7A
S21440206083F35B09019372B6BFF35F8F00220D4B7B
S2144020701A700199124A13780133137029B101225C
S214402080084B1A70BFF35F8F62B60E4B98472DB160
S2144020900122044B1A70BFF35F8F62B603B030BDA7
S2144020A0FEE700BF28010020D933400091304000B1
S2144020B000E100E02C0D0020A1344000250D00205A
S2144020C0C0170020711F4000002070470D4B5A6813
S2144020D022F001025A609A6822F480729A600246A0
S2144020E070B1986820F07F0002F07F02104398603D
S2144020F09A6842F480729A605A6842F001025A60C6
S214402100704700BF00400340054B5B6813F0010F6B
S2144021101DBF034B986800F07F000020704700BF4B
S21440212000400340024B1868C0F30A00704700BFE7
S2144021300040034000207047014B986099817047EB
S214402140C8170020F0B583B000F00F04032C67D802
S214402150A30003F1402303F540331D6B15F4004FF5
S21440216061D101F00305012D50D0251FEDB2022D9F
S21440217034BF4FF400754025954258DB40B2661E8A
S21440218006EB86072B4D05EB870505F11007B5F8DE
S21440219010E062F3090EA5F810E06A7C02F07F02B8
S2144021A06FF345126A74002835DB234EB56A012268
S2144021B002FA04F42543B5623546AA6A1442FCD0B6
S2144021C01D4DAA6A22EA0404AC621A6B0192019A77
S2144021D042F04F020192019A22F4074222F0800216
S2144021E0019200284FEA012202F44072B4BF42F442
S2144021F0044242F400420199114301910199196346
S214402200196B32EA0101FBD101200AE06CB1032CC4
S214402210ABD1002005E07A786FF383027A70C4E78A
S214402220002003B0F0BD0020FBE70020F9E70020C7
S214402230F7E700BF2C0D00200040034000F00F02DF
S214402240032A22D800B583B0910001F1402101F560
S21440225040310B6B0193019B43F04F030193019B6D
S21440226023F400430193019B0B630B6B13F4004F65
S214402270FBD1501E00EB80000121044B03EB800095
S214402280034B984703B05DF804FB70472C0D0020C5
S214402290A113400000F00F00032815D8431E03EB9F
S2144022A083030A4A02EB83035B7C13F0200F09D1B9
S2144022B00C30074B53F8203013F0280F14BF012082
S2144022C00020704701207047002070472C0D0020EA
S2144022D00040034000F00F0103295FD810B483B0DC
S2144022E0EFF31083B3FA83F35B09019372B6BFF33F
S2144022F05F8F00222C4B1A70019C10F0800F24D167
S2144023008A0002F1402202F54032136B0093009B94
S21440231043F04F030093009B43F020030093009B41
S2144023201363136B13F0200FFBD0012303FA01F164
S2144023301E4B1961002C35D001201B4B1870BFF383
S2144023405F8F62B603B010BC70474B1E01F10C02A3
S214402350164850F8222012F0100F09D103EB8302E2
S214402360134800EB8202527CC2F38102012AC7DD89
S21440237003EB83020E4B03EB82035A7C42F02002AF
S2144023805A74012303FA01F1084B196144B1012044
S214402390054B1870BFF35F8F62B6D3E700207047D7
S2144023A00120CFE70120CDE7280100200040034070
S2144023B02C0D002000F00F0003285ED830B583B007
S2144023C0441E04EB84022F4B03EB82035A7C6FF3CC
S2144023D045125A74830003F1402303F540331A6BC9
S2144023E012F0200F4BD01A6B0092009A42F04F0228
S2144023F00092009A22F020020092009A1A631A6B0A
S21440240012F0200FFBD1204DA96A012202FA00F0FB
S2144024100143A96229468A6A1042FCD01A498A6A50
S21440242022EA000088621A6B0192019A42F04F023B
S2144024300192019A22F008020192019A1A631A6BDD
S21440244012F0080FFBD104EB84030E4A02EB830321
S2144024505B7C13F0100F01D1012011E01146A20061
S214402460131901EB8303587C6FF30410587414441B
S21440247051F824309847012002E0002070470120A0
S21440248003B030BD2C0D002000400340F0B583B0B3
S21440249000F00F07032F00F2A280BC0004F1402496
S2144024A004F54034256B15F4004F00F09B807D1EEC
S2144024B005EB850E504E06EB8E06767C16F0200F0A
S2144024C040F09280266B16F0200F40F08F80EFF39E
S2144024D01086B6FA86F67609009672B6BFF35F8F18
S2144024E04FF0000E454E86F800E0DDF800C005EBE4
S2144024F0850E414E06EB8E06767C16F0100F0AD0FF
S214402500BCF1000F74D001223C4B1A70BFF35F8FB2
S21440251062B6002064E005EB850E374E06EB8E066D
S21440252096F811E04EF0100E86F811E0BCF1000F60
S21440253007D04FF0010E314E86F800E0BFF35F8FB4
S21440254062B6DFF8B4C005EB8506B6000CEB060EA7
S214402550CEF80420CEF808300022CEF80C20089A98
S2144025604CF8062011B9B3FA83F14909224AAE0065
S214402570731902EB83035B7C61F38613354402EBED
S21440258085026FF3C7135374EFF31083B3FA83F3E4
S2144025905B09019372B6BFF35F8F0022174B1A7028
S2144025A0019D0123BB40164A136110F0800F07D1EE
S2144025B005B30120114B1870BFF35F8F62B60FE072
S2144025C0236B13F0110FF3D1012138460D4B98477A
S2144025D00028EDD0002138460A4B9847E8E700200F
S2144025E003B0F0BD0020FBE70020F9E70020F7E746
S2144025F00020F5E70120F3E72C0D002028010020FD
S21440260000400340B5144000F0B587B000F00F0519
S214402610032D40D8EFF31083B3FA83F35B09059399
S21440262072B6BFF35F8F00224B4B1A70059B012496
S214402630AC404A4A54612BB10122474B1A70BFF353
S2144026405F8F62B610F0800F27D1AE0006F14026AD
S21440265006F54036336B13F0420F06D0404F2846FF
S214402660B847336B13F0420FF9D13C4A936A234381
S2144026709362936A1C42FCD0384A936A23EA040465
S2144026809462681E00EB80002A460121354B03EB1E
S2144026908000354B984707B0F0BDAB0003F14023B0
S2144026A003F540331A6B12F0100F3AD04DB3032D9A
S2144026B027D01A6B0192019A42F04F020192019A7A
S2144026C022F010020192019A1A631A6B12F0100F50
S2144026D0FBD11A6B12F0100FFBD11A6B0292029AC2
S2144026E042F04F020292029A42F010020292029A7E
S2144026F01A631A6B12F0100FFBD01A6B12F0100F01
S214402700FBD01A6B0392039A42F04F020392039A4D
S21440271022F010020392039A1A631A6B12F0100FFB
S214402720FBD11A6B0492049A42F04F020492049A28
S21440273022F001020492049A1A631A6B12F0010FF7
S214402740FBD16B1E03EB8302064B03EB82035A7CE2
S2144027506FF383025A7488E7280100200040034044
S214402760E11340002C0D0020A113400008B50A4696
S21440277001460248024B9847002008BD000A0E401A
S214402780D50E400008B5A0F58002C2F34F221121B5
S2144027900348044B9847002818BF102008BD00BFC8
S2144027A0000A0E40F10E40002DE9F04F85B0009132
S2144027B00393A0F58003C3F34F2AC0F3080793465C
S2144027C0002A4DD0DFF8A89009F5FE7511E0019A71
S2144027D001212448244B984700283ED1009B23449F
S2144027E000930AF1010A1FFA8AFA0027BBEB040B92
S2144027F032D0C7F5007302931C465B4528BF5C4643
S214402800CDF804A00AF500534FEA43283A4641461D
S2144028104846164EB0472246009909EB0700B04797
S2144028203819029A121B04EB080192B23944484404
S214402830B047A9F10403A8F1040253F8041F42F874
S214402840041FAB42F9D1039B002BC0D0019A032151
S2144028500448054B9847BFE7584605B0BDE8F08F9B
S2144028601046FAE7000A0E40F10E4000E5634000CD
S214402870680D00202DE9F04120F4FF5020F01F00A5
S21440288021F4FF5121F01F0101F5FF541F3402B11E
S214402890106003B11C60A0F58004640AA4B20C4D1D
S2144028A00D44C5F34F25A54210D9DFF82C800927E3
S2144028B0084E224639464046B047034618B91034BB
S2144028C0A4B2AC42F5D31846BDE8F0810023FAE73F
S2144028D0FF1FC0FFF10E4000000A0E4070B50B4CC3
S2144028E020460B4B98474FF480424FF020512046ED
S2144028F0084DA847064601224FF020512046A847DB
S21440290006B900B170BD044B9847FBE7000E0E4079
S2144029104D3240004D314000D9454000F0B50C46A0
S214402920FF2915DC1746914212DC831C334D05EB1C
S214402930410535F8021F18460E0A03F8026C03F8E4
S214402940011C0134B4F5807F05D00233BC42F0DD73
S214402950B4F5007F21DA9446A24233DB284B03EBE2
S214402960840E284E06E004300134B4F5007F17D0BC
S214402970644527DC5EF8043F190E3170190C7170FF
S214402980190AB170F3703146431EC71C11F8015B3B
S21440299003F8015FBB42F9D1E5E7B4F5407F14DAAE
S2144029A01646944228DC184B2344C4F5407505442B
S2144029B013F8011F00F8011B0134A84205D0B442A9
S2144029C0F6DDF0BDB4F5407F16DBB4F5806F13DA64
S2144029D01646944210DC0D4A2244C4F580650544F0
S2144029E00346201A12F8011F03F8011B9D4203D02C
S2144029F01918B142F6DDF0BDF0BD00BFEE21002053
S214402A00E0190020680F0020DF150020E3150020A5
S214402A10F0B50B46FF2916DC1446914213DA851CA6
S214402A20374800EB4101284615F8027C15F8016C42
S214402A3046EA072621F8026F0133B3F5807F05D0BA
S214402A400235A342EFDBB3F5007F3CDA96469A4266
S214402A501BDD041D2B4E06EB8306204614F8047C33
S214402A6014F8031C090441EA076114F8017C394351
S214402A7014F8027C41EA072146F8041F0133B3F5F7
S214402A80007F23D004347345E7D1B3F5407F35DB70
S214402A90B3F5806F32DA934230DA0138A3F201336D
S214402AA019490B4401F1FF04A2F20132114410F817
S214402AB0012F003218BF012203F8012FA3421DD078
S214402AC08B42F4D1F0BDB3F5407FE1DA9A4215DD92
S214402AD0A3F201210D4D294405F1FF07A2F201247E
S214402AE02C4406461D1A16F8013B01F8013F3046B5
S214402AF0AB19B942CCD0A142F5D1F0BDF0BD00BF74
S214402B00EE210020E0190020E4180020E017002005
S214402B10FF2824D8FF291DD9C0F58070400083B215
S214402B204FF48070B1F5007F25D3C0F5007003EBFD
S214402B30800083B24FF40070B1F5407F23D303F595
S214402B404073181A83B24FF4407001311944081A82
S214402B5080B270470131081A400080B27047B0F525
S214402B60007F06D3B0F5407F0BD3B0F5806F0FD310
S214402B7070470023D6E70131081A03EB800080B285
S214402B8070470023D8E701310B44181A80B27047CB
S214402B900023DAE72DE9F04186B00F4616461D467B
S214402BA02E4B18602E4B9DF830201A702D4B9842B5
S214402BB027D02A4B1A682C4B9A4239D0274C2B4B9D
S214402BC0039304974FF40063059303A92068284BAA
S214402BD098472068274B98472068274B98470121FD
S214402BE02068264B984700220092134629463046D6
S214402BF0234CA047234B1E60234B1D6006B0BDE808
S214402C00F0810820214B9847DFF88C804FF4007203
S214402C104FF0006140461E4CA0474FF480624FF094
S214402C2000614046A0474FF480721A4B1A60C0E7D6
S214402C300920164B9847DFF8648004224FF0006165
S214402C404046134CA04708224FF000614046A0473C
S214402C504FF400720F4B1A60B0E700BFE018002038
S214402C60F423002000060E4000080E40000E270702
S214402C70B5344000F1344000EB344000F7344000B7
S214402C8027324000E4210020EC210020D9334000C8
S214402C906531400000E100E0000E0E4000100E409E
S214402CA010B51F4B18681F4B984780B91C4B1868C7
S214402CB01D4B984750B11D4B1B881D4A12889A429F
S214402CC013D8174B18681B4B9847C8B910BD1A4CF9
S214402CD0218804312144124B1868184B98472388A2
S214402CE00133C3F30903238010BD154AD15C0C4B56
S214402CF01868144B98470D4A13880133138010BD4B
S214402D00114B1968114B1868114CA0474FF480516D
S214402D101048A0470221024B18680F4B9847D5E74A
S214402D20E01800200F354000FF344000EA21002024
S214402D30F2230020073540006C1300202735400062
S214402D40E419002017354000EC210020E421002043
S214402D5049314000000E0E40FB34400008B5014BA0
S214402D60984708BDA12C400008B5014B984708BDC0
S214402D70A12C40000D4B1988A9B110B40C4B5B88B0
S214402D800C48421E01390844094CE118097902F8FA
S214402D90011F0133C3F309038242F6D1044A53802C
S214402DA0044810BC70470348704700BFE821002025
S214402DB06C1300206C0F0020044B18885B889842E8
S214402DC038BF00F58060C01A80B270476C13002090
S214402DD0002916DD10B4044601444FF6FF704AF24F
S214402DE0010201E08C420FD014F8013B5840082302
S214402DF010F0010F14BF82EA50004008013BF7D1A3
S214402E00F0E74FF6FF70704710BC70472DE9F04171
S214402E1000AF0022534B1A80534B5C88621CC2F3AF
S214402E20090213441B79102B00F08780032B76D0C1
S214402E3013464D4A11888B421AD010460133C3F3CD
S214402E400903C2181279032A04D0102A02D08B42F2
S214402E50F4D10B465A1EC2F3090294420ADC131BF5
S214402E60404A1380414B98470020BD46BDE8F0815C
S214402E700B46EFE7013BC3F30903C4F580642344E4
S214402E80384A1380EEE73A4B9847092843D9A31DA2
S214402E90C3F30902344B13441B7909255AE0314BDE
S214402EA01D80A91E6E466B1D23F00703ADEB030D78
S214402EB06846002910DD0D466D446A46DFF8A8C016
S214402EC0A4EB000E0EEB0203C3F3090363441B7925
S214402ED002F8013BAA42F5D10C44234DC4F3090342
S214402EE02B4493F80480234B98470134C4F30904D9
S214402EF02C442279C0F30F239A4207D00122194B63
S214402F001A801A4B98470020B546AEE7C0B24045F7
S214402F10F4D10120F8E70020A7E70020A5E7C4F396
S214402F200902114B13441B7973B9A31CC3F309025E
S214402F300D4B13441B7905250CE0C4F309020A4BDC
S214402F4013441B79002B9ED1094B98470728E4D998
S214402F50082500231D44064B984785429FD90020EC
S214402F6083E700BFE82100206C130020752D400049
S214402F70B92D4000D12D4000F8B5344B9847052870
S214402F8000D8F8BD324B98470028FAD0314B9847C6
S214402F9004460278304B1B789A42F2D18578C07846
S214402FA040EA05262179627942EA01276378032BB5
S214402FB021D0102B32D0294B1D88AE1E284C3146CE
S214402FC02046284B9847A0552C44000A04F8010C8C
S214402FD0254B1968254B1868254CA0474FF480515F
S214402FE02448A0470022244B1A800221234B18680D
S214402FF0234B9847C5E739463046224B9847421DF3
S214403000164B1A80164B00221A7062785A709870C7
S2144030103A463146D81C1C4B9847CCE74FF0080E32
S2144030200E4BA3F800E00E4B4FF0000E83F800E086
S21440303094F801E083F801E09D70D87019715A71D8
S2144030403A463146E01D114B9847B4E7B92D40004B
S2144030500D2E4000752D4000F4230020F223002062
S214403060E4190020D12D4000EC210020E42100206E
S21440307045314000000E0E40EA210020E0180020B6
S214403080F7344000112B40001D294000112A400013
S21440309010B520200A4B98470A4CA0470028FCD081
S2144030A0094B9847094A0A4BDA620A4CA04700285F
S2144030B0FCD00120084B9847084B984710BD00BFEE
S2144030C0413340008D334000BD334000023F0F0087
S2144030D000040E40C933400081344000953440001F
S2144030E010B50E480E4B984720200E4B98470E4C76
S2144030F0A0470028FCD00D4B98470D4A0D4B9A62CE
S2144031000D4CA0470028FCD010200C4B98470C4B89
S21440311098470248024B984710BD00BF000E27074D
S2144031208D384000413340008D3340009D33400091
S214403130013F132000040E40AD334000DD32400016
S21440314079374000016370474163704721F0006162
S214403150B1F1405F0CBF836BC36B134214BF0120B9
S214403160002070474264B1F1C05F39D013D8B1F146
S214403170006F25D0B1F1805F0AD1036F1343036718
S214403180436F416F0B4023EA020343674260704738
S2144031900029FBD17047B1F1205F20D009D8B1F1AA
S2144031A0005FF3D1036F13430367436F13434367D3
S2144031B0ECE7B1F1405F12D0B1F1605F0FD0E5E7C8
S2144031C010B4016F046FD34321401C461940016779
S2144031D0436F416F0B4023404367426010BC7047CB
S2144031E0036F016F0B4023EA02030367436F1343E9
S2144031F04367CBE7416412F0010F14BF4166016696
S21440320012F00A0F14BF0162416212F0020F07D19A
S21440321012F0080F18BFC0F8841041610160704773
S214403220C0F88010F9E710B4019C416444B90166C7
S21440323043B1016542B941630161016010BC70470A
S2144032404166F5E74165F5E70163F5E7C06C704711
S214403250806C7047836B0B4214BF416301637047B9
S214403260430903F5001303F207735B0200F01F00E7
S214403270012202FA00F0186470470000164B1A6BE1
S21440328022F003021A639B6E13F0080F0AD14FF424
S214403290006311498A6E12F0080F03D1013BF9D141
S2144032A0012070470C4A136B23F0700318431063D9
S2144032B0936E13F0080F0AD14FF4006306498A6EE6
S2144032C012F0080F05D1013BF9D1012070470020CC
S2144032D070470020704700BF00040E40174A136B2B
S2144032E023F0700318431063936E13F0080F0AD14F
S2144032F04FF4006311498A6E12F0080F03D1013B68
S214403300F9D1012070470D4A136B23F0030343F0B5
S21440331002031363936E13F0080F0AD14FF4006351
S21440332006498A6E12F0080F05D1013BF9D10120FB
S2144033307047002070470020704700BF00040E40D2
S21440334011490A6A42F45C1242F008020A620A46CE
S214403350936E13F4003FFBD00B4A136A23F45C13BE
S21440336023F0700343F45C1318431062936E13F417
S214403370003FFBD0044A136A23F09B7323F4803348
S21440338043F45C131362704700040E40024B986E81
S21440339000F48030704700BF00040E404FF00052EB
S2144033A0014B9A62704700BF00040E40024B986E75
S2144033B000F00200704700BF00040E400022014BA0
S2144033C0DA62704700040E40024B986E00F004002C
S2144033D0704700BF00040E4022281ED81F280CD875
S2144033E0114B9A6901238340934318D0012303FA73
S2144033F000F00D4B18610020704720380A4BD3F878
S21440340008210123834093430BD0012303FA00F0A5
S214403410054BC3F80001002070470120704700208C
S21440342070470020704700BF00040E40222822D874
S2144034301F280ED8114B9A6901238340934301D02D
S21440344000207047012303FA00F00C4B586100201F
S21440345070472038094BD3F8082101238340934313
S21440346001D000207047012303FA00F0034BC3F855
S2144034700401002070470120704700BF00040E4042
S214403480000200F4706040F00100014B9863704702
S21440349000040E408022014B1A60704700040E4024
S2144034A0034B1A6FC0F3120010431867704700BFF3
S2144034B000040E4010B4AC2303600B684A68B3FBAC
S2144034C0F2F31B095C1E4FF6FE7294420BD8036261
S2144034D08B68436040F20223C0F8203150230360DB
S2144034E0002010BC70470120FBE740230360704774
S2144034F010230360704781607047C1607047406921
S214403500C0F3400070474069C0F3402070474069B0
S21440351000F001007047436913F0020F1ABFC16103
S214403520002001207047436913F0010F1DBF8369D7
S2144035300B70002001207047024B187880F0010085
S214403540704700BF701700202DE9F04383B04F4A04
S214403550536843F4004353604D4B98470B20DFF8C5
S2144035606081C0470C20C0474A4D00240094234643
S21440357022464FF480512846474EB04701270097D1
S2144035804FF400532A4645494548DFF83891C84726
S2144035900094234622464FF480712846B047009454
S2144035A0234622464FF400712846B04700942346EF
S2144035B022464FF480612846B04700942346224670
S2144035C010212846B047009423462246202128460C
S2144035D0B04700942346224640212846B0470094F0
S2144035E023463A4680212846B047009423463A462A
S2144035F04FF400612846B0470094234622460821EF
S2144036002846B047082239462846264EB047082264
S2144036104FF480412846B04722464FF400312846B2
S214403620B04722464FF480212846B04722464FF402
S21440363000212846B04722464FF480112846B0471E
S21440364005F50075224639462846B04722460221EF
S2144036502846B0472046144DA8470E20A8470822C3
S214403660124B1A600320C047114D21462846114B85
S21440367098474FF4E17128460F4B98474FF48031F6
S21440368028460E4B984703B0BDE8F08350140E40D2
S214403690A5094000000E0E402732400020A107003A
S2144036A000080E40F53140006132400000E100E085
S2144036B030140E40C90F400009104000DD0F400096
S2144036C0D9334000952B4000FEE7000008B5214B5B
S2144036D0214A9A4228D9214B1E4A9A420CD2013B93
S2144036E09B1A23F00303043313441B4951F8040B7D
S2144036F042F8040B9A42F9D100BF194B194A9A4234
S2144037000AD2013B9B1A23F00303043313440021DF
S21440371042F8041B9A42FBD1134B144A9A60144B4E
S2144037209847144B9847FEE70A4B0B4A9A42E3D217
S2144037300A4B0848181A1146043A02440028DBD0BF
S214403740C1F1040152F8040943F8040DCA42F9D104
S214403750D2E700BF00000020FCAA4000380B002043
S21440376020460020380B002000ED00E0000040001E
S21440377095634000294F40003C4B1B6B03F003030E
S214403780032B0ED8DFE803F0021C3838384B5B6951
S21440379013F0800F14BF4FF400424FF4FA42354BFB
S2144037A01A60324B1B6B03F07003702B55D02F4BB7
S2144037B01A6B3049C2F302120B68D3400B60704755
S2144037C02A4B1B6A13F0807F03D02B4A294B1A6082
S2144037D0E7E72A4A274B1A60244B1B6A03F070031C
S2144037E0102B05D0202BDCD1254A224B1A60D8E777
S2144037F0244A204B1A60D4E71C4B1B6A13F0807F88
S21440380018D01D4A1B4B1A60184B1B6B03F0030362
S214403810022B164A07BF916A926AD16AD26A154845
S214403820C1F30A41036801FB0333D2B2B3FBF2F3A0
S2144038300360B6E7114A0F4B1A600C4B1B6A03F045
S2144038407003102B05D0202BDED10D4A094B1A6091
S214403850DAE70C4A074B1A60D6E7064A13680A4965
S214403860A1FB03135B081360704700BF00040E40C3
S21440387010140E402C0100200024F40000093D00E6
S214403880001BB70000127A00ABAAAAAA124B9842B5
S21440389011D9124B984213D9114B984214D9114B57
S2144038A0984215D9104B984294BF4FF004220F4AC5
S2144038B00F4B1A6070474FF080620D4B1A6070478E
S2144038C00C4A0B4B1A6070470B4A094B1A607047FC
S2144038D00A4A074B1A607047FF2C3101FF596202B3
S2144038E0FF869303FFB3C404FFE0F505000500041C
S2144038F0000A0E4000010004000200040003000419
S2144039000A4B1B6853B1094B1B681A180849914269
S21440391008DB1046054A106018467047054A034BB8
S2144039201A60F0E74FF0FF30704700BF7417002072
S214403930FCFF0020207600202DE9F04F83B0DFF812
S214403940E491DFF8E481002528465F4B98475F49BD
S2144039505F4B98475F4CA04751A3D3E900235E4E88
S214403960B0475E4EB047A04782468B465C4F024605
S2144039700B464BA1D1E90001B8475A4C02460B46CC
S21440398050465946A047CDE90001DFF8A0B1D847D8
S21440399045A3D3E90023A047DFF894A144A3D3E985
S2144039A00023D04702460B4600204F49A04742A37B
S2144039B0D3E90023B847B04749F8040FDDE90001D2
S2144039C0D8473FA3D3E90023A04739A3D3E9002330
S2144039D0D04702460B4600204349A04736A3D3E9CA
S2144039E00023B847B04748F8040F0135B5F5806F57
S2144039F0AAD11D203D4EB0473D4C4FF480233D4A52
S214403A003D4920463D4DA84702234FF4001203216E
S214403A1020463B4DA847002211462046394B984742
S214403A20236C43F08073236400212046364DA8471C
S214403A3001212046A84702212046A84703212046C8
S214403A40A84704212046A84705212046A8474FF00E
S214403A50807120462D4B98472D4D4FF000532B60DC
S214403A601720B047A4F520344CF20302002120462C
S214403A70284B9847BB2200212046274B98471022C8
S214403A8000212046254B98474FF400032B60002129
S214403A902046234B984703B0BDE8F08FAFF3008035
S214403AA06666666666660A4000000000005CB240D5
S214403AB083DBB5DCE1796B3F66666666661271400D
S214403AC00000000000DCAE40555F400000C07F4470
S214403AD06561400039574000E1574000415D400075
S214403AE079544000355A40000000F03FD93340003A
S214403AF00080034090D00300000E2707490E400088
S214403B008B0E40007D0E4000AD0E4000CF0E4000B4
S214403B1000E100E06B104000931040009B10400016
S214403B20831040005C250020F43500207D4F400087
S214403B307D544000000000002DE9F04F87B0A24BB6
S214403B401B783BB9A04B5B7823B99F4B9B78002BE7
S214403B5000F0C6829C4A002312F8011B002918BFB9
S214403B601D460133062BF7D1984B53F82500984B4A
S214403B7098478FA3D3E90023964EB047DFF8948248
S214403B808DA3D3E90023C0478DA3D3E90023C047C4
S214403B90DFF87CA2D04783468F4B43F825008F4BF7
S214403BA01B6899468E4F8F4E57F82500B047CDE993
S214403BB00201CDF800904846B04702460B4600202A
S214403BC08949DFF86092C84702460B46DDE90201A4
S214403BD0C0478046894600995846844B9847B04728
S214403BE002460B4640464946814EB047D0470646B9
S214403BF047F825007F4B53F8257039467E4B98474B
S214403C0000B137467B4B43F825707C4B53F8257004
S214403C10394630467A4B984700B93E46774B43F88C
S214403C2025600022684B5A55674B9B793BB9664BDB
S214403C30DB7923B9644B1B7A002B00F06182714A12
S214403C40062312F8011F002918BF1C4601330C2B0F
S214403C50F7D15E4B53F82430002BB8BF03339B108C
S214403C60694A52F823705C4B43F82470674BD3F88C
S214403C7000A05B4E5B4D56F82400A8478046894618
S214403C805046A84702460B4600205749DFF894B1F5
S214403C90D84702460B4640464946DFF87881C0473B
S214403CA08046894651463846504B9847A847024674
S214403CB00B46404649464E4DA847554B9847054605
S214403CC046F824004B4B53F8246031464A4B9847FD
S214403CD000B12E46474B43F82460484B53F82460C7
S214403CE031462846464B984700B93546434B43F83D
S214403CF024500022344B1A55334B1B7B002B00F0CC
S214403D00BD80324B186B324B984729A3D3E900232A
S214403D10304CA0473F4E28A3D3E90023B0470022AB
S214403D203D4BB0473A4FB8472B4B009018633B4B40
S214403D301D68DFF8ACB02B4CDBF83000A04780465F
S214403D4089462846A047DFF8DCA002460B460020FE
S214403D502549D04702460B4640464946B047CDE93E
S214403D600201DFF8889029460098C847A047DFF848
S214403D70808002460B46DDE90201C047B84705464B
S214403D80CBF83000264B1B680293DFF89CB0DBF87C
S214403D900000A047CDE904010298A04702460B4622
S214403DA000201149D04702460B463FE0AFF3008063
S214403DB00000000000FEAF406666666666660A4023
S214403DC0DDD7800E9314F53FE8350020A835002057
S214403DD015574000355A4000202500207401002029
S214403DE030010020395740000000F03FFD5F4000A2
S214403DF07D544000FC230020756340006835002059
S214403E0039634000ED350020F8350020840100205D
S214403E10415D4000E1574000000049407C010020E1
S214403E2078010020795440007C170020DDE9040129
S214403E30B047CDE9040102990098C847A04702461A
S214403E400B46DDE90401C047B847CBF800008E4B6F
S214403E501C6B214628468D4B984700B12C468A4B12
S214403E601C638B4B1C6B214628468A4B984700B9EF
S214403E702546874B1D630022874B1A73864B5B7B18
S214403E80002B49D0854B5B6B002BB8BF03339B1090
S214403E90834A52F82360834B5E63834B1F68834D8F
S214403EA0834C686BA047804689463846A047024602
S214403EB00B4600207F49DFF824A2D04702460B4637
S214403EC040464946DFF80482C04780468946394620
S214403ED03046794B9847A04702460B4640464946EF
S214403EE0764CA047764B984704466863664B5D6BB6
S214403EF02946664B984700B12546634B5D63644B45
S214403F005D6B29462046634B984700B92C46604B6C
S214403F105C630022604B5A735F4B9B7B002B49D0FF
S214403F205E4B9B6B002BB8BF03339B105C4A52F82A
S214403F3023605C4B9E635C4B1F685C4D5C4CA86B7F
S214403F40A047804689463846A04702460B46002092
S214403F505849DFF888A1D04702460B4640464946B6
S214403F60DFF86881C0478046894639463046524B1E
S214403F709847A04702460B46404649464F4CA04706
S214403F804F4B98470446A8633F4B9D6B29463F4B93
S214403F90984700B125463C4B9D633D4B9D6B29465B
S214403FA020463C4B984700B92C46394B9C63002230
S214403FB0394B9A73384BDB7B002B57D0374BD86B3B
S214403FC0404B98472CA3D3E900233F4CA0473F4D96
S214403FD02BA3D3E90023A84700223D4BA847384FE0
S214403FE0B84782462F4BD8633A4BD3F800B02F4E93
S214403FF02F4CF06BA047CDE900015846A04702463B
S2144040000B4600202B49DFF8D480C04702460B46BB
S214404010DDE90001A8478046894659465046264B6A
S2144040209847A04702460B4640464946234CA04781
S214404030B8470446F063144BDD6B2946134B98474C
S21440404000B12546104BDD63114BDD6B29462046FB
S214404050104B984728B1204B9B6B13F4006F08BF5A
S21440406025460B4BDD6300220B4BDA7307B0BDE8E9
S214404070F08F00BFAFF300800000000000FEAF40AE
S2144040806666666666660A40FC23002075634000E6
S2144040906835002039634000E8350020A835002008
S2144040A060250020202500208401002030010020CB
S2144040B0395740000000F03FFD5F40007D5440000F
S2144040C0415D400015574000355A4000E1574000DA
S2144040D00000264080010020000E0E40795440002B
S2144040E00F4BDB78002B7FF435AD0D4B1B79002B47
S2144040F07FF430AD0A4B5B79002B7FF42BAD93E514
S214404100074B5B7A002B7FF49AAD054B9B7A002BCE
S2144041107FF495AD024BDB7A002B7FF490ADEBE558
S214404120E8350020F8B51549154B9869154B984762
S214404130F0B9134D05F11C043035104F114E394679
S21440414054F8040BB047A8B9AC42F8D10E490C4B12
S214404150586B0C4B984778B94FF001040A49084B06
S214404160986B084B984708B94FF00004E0B2F8BD8A
S2144041700120F8BD0120F8BD0120F8BD00007042C6
S21440418030010020616340000000A042F8B54FF0C7
S2144041907E510C4B98690C4B984770B9094D05F108
S2144041A01C0430354FF07E57074E394654F8040B02
S2144041B0B04720B9AC42F8D1F8BD0120F8BD012087
S2144041C0F8BD00BF300100204D63400000000000F5
S2144041D02DE9F843144B1868144B984710A3D3E9BD
S2144041E00023134CA04798B90F4D2C1D18350F4F80
S2144041F00FF22C09D9E900890D4E54F8040BB84744
S21440420042464B46B04730B9AC42F6D1BDE8F8839B
S2144042100120BDE8F8830120BDE8F883AFF30080B5
S2144042209A99999999991140300100203957400040
S214404230ED5C4000000000002DE9F843224B186872
S214404240224B98471CA3D3E90023214CA04738BBF8
S2144042501D4D2C1D18351D4F0FF25C09D9E90089FC
S2144042601B4E54F8040BB84742464B46B047D0B9AD
S214404270AC42F6D1174B9B6B13F4006F16D1124B22
S214404280D86B124B98474FF001040DA3D3E9002397
S2144042900F4DA84708B94FF00004E0B2BDE8F883D8
S2144042A00120BDE8F8830120BDE8F8830020BDE882
S2144042B0F88300BFAFF300806666666666660A40AF
S2144042C0CCCCCCCCCCCC334030010020395740004D
S2144042D0D95C4000000E0E4010B50A490A4B186BD8
S2144042E00A4B984758B94FF001040649084B1868DE
S2144042F0064B984708B94FF00004E0B210BD0120C5
S21440430010BD00BF0000FA4330010020616340004A
S2144043107C170020000000002DE9F047184D05F1FD
S214404320180A0026174FDFF86C90DFF86C8001E023
S21440433055450DD055F8044B39462046C84700B180
S214404340274631462046C0470028F1D02646EFE7AC
S214404350394630460C4B98470C4B98474FF0010473
S21440436005A3D3E900230A4DA84708B94FF0000437
S21440437004F00100BDE8F0879A9999999999D93F38
S214404380300100200000A040E95D40003957400061
S214404390015D4000396340007563400010B54FF43E
S2144043A000611048104B98471820104B9847104C07
S2144043B04CF20402012120460E4B98474FF47A52A5
S2144043C0012120460C4B98471022012120460B4BDA
S2144043D09847012120460A4B98474FF08072094B78
S2144043E01A6010BD000E0E4045314000D9334000E3
S2144043F0000001406B104000931040009B104000AE
S2144044008310400000E100E038B5564B984700283E
S2144044102FD00122544B1A70544B9847002833D162
S214404420534B1B78002B00F0968000224E4B5A7060
S214404430504B9847002832D001224B4B9A704E4B37
S214404440984700282FD00122474BDA704B4B9847AD
S214404450002862D00122444B1A71494B98470028E5
S21440446033D1434B1B78002B32D000223E4B5A713F
S2144044702EE03F4B1B78002B69D000223A4B1A7037
S2144044803A4B98470028D0D00122374B5A70394BC8
S21440449098470028D0D1364B1B78002BCFD000222F
S2144044A0314B9A70CBE7324B1B78002BCED0002294
S2144044B02D4BDA70314B98470028CBD100222A4B3F
S2144044C01A712F4B98470028CFD00122264B5A719D
S2144044D0254B1B78002B2FD1234B5B78002B2BD101
S2144044E0214B9B78002B27D11F4BDB7823BB1E4BE1
S2144044F01B790BBB1C4B5B79F3B90122214B1A701D
S21440450000221B4B1A70204D082128461F4CA047FE
S2144045104FF400612846A04738BD154B1B78002B4A
S214404520CCD1174B98470028D2D0CEE7184B9847A7
S2144045300122184B1A7038BD0022124B1A700C4BD1
S2144045401B781BB9134B1B78002BEFD038BD074B9D
S2144045509847002898D1074B984700283FF46FAFFC
S2144045606AE700BF25414000603500208D4140008D
S21440457088170020D141400039424000D9424000CF
S2144045801943400070010020000E0E4049314000A3
S2144045909D4340008917002038B50125084B1D7003
S2144045A0084C4FF400612046074B98472946074879
S2144045B0074B984708212046064B984738BD00BF12
S2144045C088170020000E0E40493140000000014090
S2144045D08B10400045314000F8B55C4C4FF400610C
S2144045E020465B4DA8474FF480512046A8474FF4DD
S2144045F000512046574DA84780212046A84708210D
S2144046002046A8474FF480712046A8474FF40071D3
S2144046102046A8474FF480612046A84710212046F0
S214404620A84720212046A84740212046A8474A4B75
S2144046304FF40002C3F88020BFF34F8FBFF36F8F55
S2144046404FF08072C3F88020BFF34F8FBFF36F8F59
S2144046504FF00072C3F88020BFF34F8FBFF36F8FC9
S2144046604FF48072C3F88020BFF34F8FBFF36F8F35
S2144046704FF00052C3F88020BFF34F8FBFF36F8FC9
S214404680364A3749901D12F8013B83F0010341F842
S214404690043B8242F7D1324B324A127882F0010212
S2144046A09A61314A127882F00102DA612F4A127812
S2144046B082F001021A622E4D2A1F24332D482E49BD
S2144046C03C3552F8044F43F8044B50F8044FDC6333
S2144046D051F8044FDC67AA42F3D100231A46422120
S2144046E02648274CA04700B1F8BD2448254B98479C
S2144046F00028F9D1214C1A4E234D244FA4F58701AA
S214404700A1F5E0410023402231442046A847002836
S214404710EAD14034BC42F1D11D4A136843F48023A9
S21440472013601C4B98471C4C43F2040120461B4B1D
S21440473098471B4A40F2011120461A4B98470020E2
S214404740194B98472046194B9847CDE7000E0E4028
S214404750453140004931400000E100E0603500202E
S2144047603C24002070010020881700208917002074
S2144047703001002064350020F823002000F043007C
S2144047807528400085274000A927400000F14300D7
S21440479030140E40D933400010140E4061104000D3
S2144047A000000101651040007D3240004D10400081
S2144047B008B512B9024B984708BD024B984708BD4A
S2144047C049314000453140004E4B1B6B13F0807F13
S2144047D000F097804B4B1B6AC3F30332C3F30B03C3
S2144047E040F6FF718B4200F08C8070B5052A00F2CF
S2144047F08780DFE802F0032E3842727C424A126815
S214404800424941F822300121414B9954052A0CBFB8
S214404810002201323C4B1A603B4E32683D4D02F05E
S2144048200102102128463C4CA0473268C2F34002A1
S21440483020212846A0473268C2F3800240212846FD
S214404840A04700212F48354B98470022344B1A602A
S21440485070BD01212B48334B98472C4B18630122DF
S2144048602B4B1A7370BD022126482E4B9847274B78
S214404870D8630122264BDA7370BD2B4D2C68063464
S21440488003212048274B9847204B43F824002B68A9
S2144048901F4A1A4401219171052B1BD00133224A2D
S2144048A01360214E32681B4D02F001024FF48071B6
S2144048B02846194CA0473268C2F340024FF40071B4
S2144048C02846A0473268C2F380024FF480612846EB
S2144048D0A04770BD00222A60E3E704210948114B37
S2144048E098470A4B98630122094B9A7370BD05217D
S2144048F004480C4B9847054B58630122044B5A73A7
S21440490070BD70470080034080170020A835002007
S214404910E8350020000E0E40B1474000B70E40007C
S21440492078170020C10E40008417002008B50021EB
S2144049300C480D4B984710F0100F03D00B4A1368E5
S21440494001331360094B1B68642B03DC0848094B92
S214404950984708BD00210648074B98470022034B5E
S2144049601A60F3E700000140A310400078170020CB
S21440497000800340A70E4000AD0E400008B5012160
S2144049800548064B984710F0100F00D108BD082187
S2144049900348044B9847F9E700000140A310400045
S2144049A0000E0E405532400008B502210648074B1F
S2144049B0984710F0100F00D108BD054B98470821C6
S2144049C00448054B9847F7E700000140A310400015
S2144049D0D9454000000E0E404531400008B5064817
S2144049E0064B984710F0010F04D0034A136843F46F
S2144049F08023136008BD00BF30140E4005104000F1
S214404A002DE9F8438146461E0025DFF82C80084CE9
S214404A10084F06E0A0470028FCD016F8010FB8471C
S214404A2001354846C047A842F4D8BDE8F88300BFE1
S214404A304D074000F9074000016640002DE9F04F61
S214404A40ADF5077DDFF81C8246AC45460FCD0FC45A
S214404A500FCD0FC42B682380DE2200210DF59D70FC
S214404A606A4FB84746A86A4CA0476A4E32786A49A9
S214404A7046A86A4DA84746A8A0477278684946A8FF
S214404A80A84746A8A047B278664946A8A84746A879
S214404A90A047F278644946A8A84746A8A047327976
S214404AA0624946A8A84746A8A0477279604946A8E2
S214404AB0A84746A8A047492208F5807106A85D4B3E
S214404AC09847B72200210DF16100B84706A8A047D5
S214404AD0DFF87C81584F594E0024594DDFF83CB1E1
S214404AE0013458F8049B57F804AB56F8040BA84713
S214404AF0CDE904015046A847CDE902014846A847FB
S214404B00CDE9000122464F4946A8D84746A8404B23
S214404B109847062CE4D1DFF850814B4F4B4E00248B
S214404B20DFF848A1464DDFF8F490013456F8040FFC
S214404B30A847CDE9040157F8040FA847CDE902017C
S214404B4058F8040FA847CDE900012246514646A82A
S214404B50C84746A82E4B9847062CE6D13C4F384CC3
S214404B60386BA04780468946344E306BA047CDE927
S214404B700201314D286BA047CDE9000142464B4625
S214404B80344946A8DFF894B0D84746A8DFF880A056
S214404B90D047786BA04780468946706BA047CDE9E2
S214404BA00201686BA047CDE9000142464B462A49C0
S214404BB046A8D84746A8D047B86BA04780468946FF
S214404BC0B06BA047CDE90201A86BA047CDE9000134
S214404BD042464B46214946A8D84746A8D047F86B98
S214404BE0A04780468946F06BA047CDE90201E86BB6
S214404BF0A047CDE9000142464B46194946A8D8474A
S214404C0046A8D0470DF5077DBDE8F08F19654000F2
S214404C10014A4000603500202CA74000B5654000A2
S214404C2044A740005CA7400070A7400088A740000B
S214404C309CA74000E563400068350020FC23002028
S214404C4039574000B4A740007C350020102400208F
S214404C5030010020E8A74000FCA7400014A8400010
S214404C6028A84000B0A3400044010020D0A7400040
S214404C7008B50248024B984708BD00BFF8A540005B
S214404C80014A400008B50C4B984700B908BD0B4B8D
S214404C909847C0B20028F9D0732804D0632805D0BE
S214404CA0074B9847F2E7074B984708BD064B98478F
S214404CB00648074B984708BD25044000AD0640000F
S214404CC0714C40003D4A400099454000B0A5400028
S214404CD0014A40002DE9F04F83B0062100203A4BB0
S214404CE0984710B103B0BDE8F08F00231A46374905
S214404CF03748384CA0470028F4D13749374A384817
S214404D0052F8043FB3FA83F35B0901F8013B824251
S214404D10F6D1344B1B68B3FA83F35B09324A1370FF
S214404D20324B1B680193B3FA83F35B09304A137026
S214404D300022304B1A70DFF8D8B0DFF8D8A02E4DDE
S214404D40DFF8C0902D4C2E4FDFF8CC800DE02B685E
S214404D50009315E0009E20E0009E1EE0009E4BF86B
S214404D60046F0435274B9F4226D057F8043F184619
S214404D700093B3F1FF3FEAD00021C0470028E6D1B8
S214404D80009B2B6059F8043F1E46B3F1FF3FE3D02B
S214404D9000211846C0470028DCD14AF8046F54F872
S214404DA0043F1E46B3F1FF3FD8D000211846C04707
S214404DB00028D4D0009ED2E7019B002B92D1082138
S214404DC01148124B98478DE76D274000E4F04300AA
S214404DD000F043007528400060350020FCEF43009B
S214404DE014F0430018F04300700100201CF043000C
S214404DF0881700208917002030010020A0F04300CB
S214404E0020F0430060F04300000E0E404531400065
S214404E10F82300206435002025634000184B194ACB
S214404E20116819605168596091689960D168D96075
S214404E30116919615169596191699961D169D9615D
S214404E40116A1962516A5962916A9962D16AD96245
S214404E50116B1963516B5963916B9963D26BDA632B
S214404E60094B0A4A1178197051785970917899709F
S214404E70D178D9701179197152795A71704700BF3B
S214404E80E41D002030010020E4180020603500209A
S214404E9070B51B4D4FF480424FF020512846194CB8
S214404EA0A047064601224FF020512846A04700B9A9
S214404EB03EB11348144B98474FF40062134B1A60A8
S214404EC070BD1920124B9847124C4CF20302022137
S214404ED02046114B984742F29F42022120460F4BF4
S214404EE098471022022120460D4B98474FF00072FB
S214404EF0064B1A60022120460A4B984770BD00BFF9
S214404F00000E0E404D3140004D32400000E100E0C2
S214404F10D9334000000001406B1040009310400021
S214404F209B1040008310400008B50A4B98470A4B38
S214404F3098470A4B98470A4B98470A4B98470A4E59
S214404F400A4D0B4CB047A847A0470A4B98470A4B18
S214404F509847F7E7E130400049354000393940008E
S214404F60D54C4000914E4000792F4000393B4000E0
S214404F7009444000854C40001D4E40002DE97043DA
S214404F808AB004460D4600F077F8354B93F900603A
S214404F90731C804689460DD022462B46204629461D
S214404FA000F0B8FE30B9002200232046294600F023
S214404FB0A7FE20B1404649460AB0BDE87083294B5B
S214404FC00890CDE90245CDE904450193204629469F
S214404FD0CEB9254D4FF0604400220023CDE906456A
S214404FE000F066FE002833D002230093684600F0A7
S214404FF037FAA8B1089BC3B9DDE906894046494659
S2144050000AB0BDE87083194D002400220023CDE984
S214405010064500F04DFE68B102239E420093E5D15E
S21440502001F0B2F922230360E4E701F0ADF9089BF2
S2144050300360E1E70123022E00930BD101F0A4F9AF
S214405040212303600A4800F00DFACDE90601D1E7B6
S21440505001230093684600F003FA0028F2D1EDE7FA
S2144050608801002044A84000FFFFEFC70000F0FF83
S21440507084A74000000000002DE9F04FB1F5801FE6
S21440508085B006460F460B465ADA024621F00044E3
S214405090224300F0F8800029C0F27A810022D64BE5
S2144050A000F09EFBD54A0B46934206460F466FF0ED
S2144050B0350C4ADCC3F3130505F5152E0EF6647E53
S2144050C00EF4801E8EF07F5282F440121C1542EA87
S2144050D00507A4F2FF3464440022C94B30463946E3
S2144050E004EB1E5400F0C8F9AB1CC3F31303022BA9
S2144050F082468B464FF0000230DC002300F0D8FD9D
S214405100002800F0C980002C00F04B81204600F0BB
S21440511001FBA5A3D3E9002306460F4600F060FB3B
S214405120A3A3D3E9002304460D463046394600F093
S21440513057FB02460B462046294600F09FF90AE0F8
S214405140AE4A93424FF0000CB4DD32463B46304602
S214405150394600F093F905B0BDE8F08F4FF0804334
S21440516000F08CF902460B465046594600F062FC69
S214405170064620460F4600F0CDFA3246CDE90001FD
S2144051803B4630463946CDE9026700F029FB0246E9
S2144051900B468046894600F023FB87A3D3E90023CD
S2144051A006460F4600F01CFB85A3D3E9002300F01B
S2144051B065F932463B4600F013FB83A3D3E9002350
S2144051C000F05CF932463B4600F00AFB80A3D3E988
S2144051D0002300F053F942464B4600F001FB7EA305
S2144051E0D3E90023804689463046394600F0F8FA2F
S2144051F07BA3D3E9002300F041F932463B4600F05A
S214405200EFFA79A3D3E9002300F038F932463B465B
S21440521000F0E6FA0B4602464946404600F02EF9B4
S214405220A5F5C223C5F5D725A3F27A4351351D43CC
S214405230002D8046894656DD0022724B5046594620
S21440524000F0CEFA52465B4600F0CAFA06460F46D3
S214405250002C68D132463B464046494600F00EF99F
S214405260DDE9022300F0BCFA02460B4630463946DA
S21440527000F002F902460B465046594600F0FCF84C
S21440528005B0BDE8F08F0022002300205E4900F004
S214405290D1FB05B0BDE8F08F55A3D3E900235046B7
S2144052A0594600F09DFA02460B460020554900F04C
S2144052B0E3F8524606460F465B465046594600F0CF
S2144052C08FFA02460B463046394600F089FA0646C3
S2144052D00F46002C40F09A8002460B4650465946F0
S2144052E000F0CAF837E7002C00F0A4802EA3D3E9DC
S2144052F00023DDE9000100F073FA42464B460446BF
S2144053000D465046594600F0B7F8DDE9022300F056
S21440531067FA27A3D3E9002306460F46DDE90001D6
S21440532000F05EFA21E020A3D3E90023DDE9000186
S21440533000F056FA32463B4604460D46404649463D
S21440534000F09CF8DDE9022300F04AFA18A3D3E9FE
S214405350002380468946DDE9000100F041FA024616
S2144053600B464046494600F089F802460B46304612
S214405370394600F081F852465B4600F07DF802461A
S2144053800B462046294600F077F805B0BDE8F08F7A
S21440539002460B4600F070F80022002300F04AFB5D
S2144053A0D9E600200021D6E60000E0FE422EE63F89
S2144053B0763C7935EF39EA3D44523EDF12F1C23F42
S2144053C0DE03CB966446C73F599322942449D23F86
S2144053D0935555555555E53F9FC678D0099AC33FD6
S2144053E0AF788E1DC571CC3F04FA97999999D93FED
S2144053F0555555555555D53F00005043FFFFEF7F57
S2144054000000F03F0000E03F000050C3204600F0A0
S21440541081F90FA3D3E900238046894600F0E0F9DE
S2144054200DA3D3E9002304460D464046494600F006
S214405430D7F99AE702460B465046594600F01CF804
S214405440DDE9022300F0CCF914E700BFAFF300809B
S2144054500000E0FE422EE63F763C7935EF39EA3DE5
S2144054600020704700200149704700BF0000F87FC9
S21440547081F0004102E000BF83F0004330B54FEAC0
S21440548041044FEA430594EA050F08BF90EA020F2D
S2144054901FBF54EA000C55EA020C7FEA645C7FEAC0
S2144054A0655C00F0E2804FEA5454D4EB5555B8BFE3
S2144054B06D420CDD2C4480EA020281EA030382EA54
S2144054C0000083EA010180EA020281EA0303362DE6
S2144054D088BF30BD11F0004F4FEA01314FF4801CB9
S2144054E04CEA113102D0404261EB410113F0004FCB
S2144054F04FEA03334CEA133302D0524263EB430382
S21440550094EA050F00F0A780A4F10104D5F1200E1F
S2144055100DDB02FA0EFC22FA05F2801841F100017A
S21440552003FA0EF2801843FA05F359410EE0A5F14E
S21440553020050EF1200E012A03FA0EFC28BF4CF07F
S214405540020C43FA05F3C01851EBE37101F0004535
S21440555007D54FF0000EDCF1000C7EEB00006EEB42
S2144055600101B1F5801F1BD3B1F5001F0CD34908CC
S2144055705FEA30004FEA3C0C04F101044FEA445223
S21440558012F5800F80F09A80BCF1004F08BF5FEAAA
S214405590500C50F1000041EB045141EA050130BD8A
S2144055A05FEA4C0C404141EB010111F4801FA4F12D
S2144055B00104E9D191F0000F04BF01460020B1FA82
S2144055C081F308BF2033A3F10B03B3F120020CDABA
S2144055D00C3208DD02F1140CC2F10C0201FA0CF098
S2144055E021FA02F10CE002F11402D8BFC2F1200CFD
S2144055F001FA02F120FA0CFCDCBF41EA0C019040B3
S214405600E41AA2BF01EB0451294330BD6FEA0404FB
S2144056101F3C1CDA0C340EDC04F11404C4F12002E6
S21440562020FA04F001FA02F340EA030021FA04F3F8
S21440563045EA030130BDC4F10C04C4F1200220FA4F
S21440564002F001FA04F340EA0300294630BD21FA8D
S21440565004F0294630BD94F0000F83F4801306BF53
S21440566081F480110134013D4EE77FEA645C18BF47
S2144056707FEA655C29D094EA050F08BF90EA020FDE
S21440568005D054EA000C04BF1946104630BD91EAD6
S214405690030F1EBF0021002030BD5FEA545C05D1D9
S2144056A04000494128BF41F0004130BD14F5800418
S2144056B03CBF01F5801130BD01F0004545F0FE418C
S2144056C041F470014FF0000030BD7FEA645C1ABFC1
S2144056D0194610467FEA655C1CBF0B46024650EAF8
S2144056E0013406BF52EA033591EA030F41F4002124
S2144056F030BD00BF90F0000F04BF0021704730B5AA
S2144057004FF4806404F132044FF000054FF000017E
S21440571050E700BF90F0000F04BF0021704730B53F
S2144057204FF4806404F1320410F0004548BF404214
S2144057304FF000013EE700BF42004FEAE2014FEA69
S21440574031014FEA02701FBF12F07F4393F07F4F44
S21440575081F06051704792F0000F14BF93F07F4F76
S214405760704730B54FF4607401F0004521F00041B9
S21440577020E700BF50EA010208BF704730B54FF03F
S21440578000050AE050EA010208BF704730B511F044
S214405790004502D5404261EB41014FF4806404F17C
S2144057A032045FEA915C3FF4DCAE4FF003025FEAFE
S2144057B0DC0C18BF03325FEADC0C18BF033202EB86
S2144057C0DC02C2F1200300FA03FC20FA02F001FAE0
S2144057D003FE40EA0E0021FA02F11444C1E600BF7F
S2144057E070B54FF0FF0C4CF4E06C1CEA11541DBF32
S2144057F01CEA135594EA0C0F95EA0C0F00F0DEF8FD
S2144058002C4481EA030621EA4C5123EA4C5350EAE1
S214405810013518BF52EA033541F4801143F4801332
S21440582038D0A0FB02CE4FF00005E1FB02E506F0C3
S2144058300042E0FB03E54FF00006E1FB03569CF018
S214405840000F18BF4EF0010EA4F1FF04B6F5007F1E
S21440585064F5407404D25FEA4E0E6D4146EB060690
S21440586042EAC62141EA55514FEAC52040EA5E5019
S2144058704FEACE2EB4F1FD0C88BFBCF5E06F1ED8C3
S214405880BEF1004F08BF5FEA500E50F1000041EBFA
S214405890045170BD06F0004646EA010140EA0200A7
S2144058A081EA0301B4EB5C04C2BFD4EB0C0541EAC9
S2144058B0045170BD41F480114FF0000E013C00F3DE
