:020000040040BA
:10000000503D0020692C4000652C4000652C4000CC
:10001000652C4000652C4000652C4000000000006D
:10002000000000000000000000000000652C4000FF
:10003000652C400000000000652C4000652C40004D
:10004000652C4000652C4000652C4000652C40006C
:10005000652C4000652C4000652C4000000000002D
:10006000652C4000652C4000000000002D0F400072
:10007000410F400000000000652C4000000000001F
:10008000000000000000000000000000652C40009F
:10009000652C4000652C4000652C4000652C40001C
:1000A0009D304000652C4000000000000000000072
:1000B00000000000652C400000000000652C40009E
:1000C000652C4000652C40001115400010B5054C12
:1000D000237833B9044B13B10448AFF300800123F4
:1000E000237010BD600A002000000000B4884000AA
:1000F0000C4B43B10C480D4910B5AFF300800C48D0
:10010000036823B910BD0A48036833B97047094B27
:10011000002BF7D0BDE810401847064B002BF5D058
:10012000184700BF00000000B4884000640A0020A7
:10013000B4884000000000000E4900230B700E4AF6
:1001400013800E4AA120107020205070538093809D
:100150000220D08013810A4A4FF4E13010601371FD
:100160005371082393710B780133DBB20B700120BC
:10017000704700BF870A00201C0B0020B40B002032
:10018000800A0020024A1378013BDBB213707047EB
:10019000870A0020044A1378013BDBB213701378FE
:1001A0000022024B1A707047880A00207E0A002045
:1001B00000207047002070471D4B1B7813F0800F04
:1001C00005D103F06003202B18D00020704703F006
:1001D0006003202B01D000207047154B5B78212B4A
:1001E00024D1134BDB88072B01D000207047104B24
:1001F000104A9A6007229A81012070470C4B587868
:10020000202804D0222814BF002001207047084B6A
:10021000DB88072B01D000207047054B064A1A6186
:10022000044A9A6007229A81012070470020704793
:10023000D40C0020800A00203D02400070470000DE
:10024000444B1B7803B1704770B584B0424B98475C
:10025000002841D0414B1C88414B9847844276D0BE
:10026000EFF31083B3FA83F35B09039372B6BFF322
:100270005F8F00223B4B1A70039D3B4B1C78E4B20E
:100280003A4B33F81430002B2DD00022384B1A8013
:10029000384B1B78002B42D1B4FA84F35B09324A05
:1002A000137001222B4B1A7025B12E4B1A70BFF31D
:1002B0005F8F62B626462D4B33F81430402B14BFA7
:1002C0000125002534D0244B984700282BD0244BFF
:1002D0009847224B18802EE0204B1C88264B9847CD
:1002E0008442BDD133E0224A1388013313801A4B74
:1002F000984718B91E4B1B88632B08D9164B984793
:100300000028C2D01A4B1B88B3F5487FBDD2F5B187
:100310000122144B1A70BFF35F8F62B617E0B4FA74
:1003200084F46409BDE7144B98470C4B188002E035
:1003300000220A4B1A800D4B33F816300F4A0092F8
:100340000F4A02EB8412294681200E4CA04704B0CC
:1003500070BD00BFB00B0020711F4000AC0B00202F
:10036000DD1F4000A0000020A80B0020A40B0020EF
:100370007C0A0020200B0020CD1F40008903400094
:10038000240B00203523400000B1704708B5074B0F
:100390001B78B3FA83F35B09054A22F81300054B77
:1003A0001870054B1870054B984708BDA80B002026
:1003B000A40B0020200B0020B00B002041024000C5
:1003C00008B50020014B984708BD00BF410240001E
:1003D00082B0EFF31083B3FA83F35B09019372B633
:1003E000BFF35F8F00220B4B1A7001990A4B1888DC
:1003F00083B20A4A1278D2B2094830F8120080B2A9
:10040000C01A29B10122034B1A70BFF35F8F62B685
:1004100002B07047A0000020140B0020100B002039
:100420000C0B002008B5034B9847003018BF012083
:1004300008BD00BFD103400010B584B0EFF31083B6
:10044000B3FA83F35B09039372B6BFF35F8F0022A5
:100450001E4B1A70039B1E4A14781E4A12784AB922
:10046000E4B21D4A118889B21C4A32F8142092B2B3
:10047000914209D23BB30122144B1A70BFF35F8F34
:1004800062B6002004B010BD0021134A1180B4FAF6
:1004900084F252090E490A7001210E4A117023B1EB
:1004A0000A4B1970BFF35F8F62B600200C4B984760
:1004B0000C4B009340230C4A02EB841201210220D2
:1004C0000A4CA047DEE70020DCE700BFA0000020C8
:1004D000100B0020180B0020140B00200C0B002028
:1004E00025044000850540008C0A0020352340008B
:1004F00010B50024164B1C70164B1C70164B1C704C
:10050000164B1C70164B1C805C80164B1C802046C2
:10051000154B9847154B1C70154B1C70154B1C80C8
:100520005C80154B1C802046144B9847014640B117
:10053000074A13780133DBB213701378DBB2012B57
:1005400001D0084610BD01220D4B1A70F9E700BF1B
:10055000880A0020B00B0020200B0020A80B0020F0
:10056000A40B0020AC0B002041024000180B00201F
:10057000100B00200C0B0020140B0020390440004D
:100580007E0A0020E8B910B582B010460D4B1C78E9
:10059000B4FA84F4640951B189B20B4B23F81410F6
:1005A00000200A4B18700A4B984702B010BD094B47
:1005B00000934023084A02EB84120121074CA04714
:1005C000F3E77047100B00200C0B0020180B0020E5
:1005D00039044000850540008C0A00203523400086
:1005E00008B50020014B984708BD00BF2504400016
:1005F0002DE9F04782B0254B93F80680B8F1090F3A
:1006000014BF4FF000084FF001084FF0000A204CD3
:10061000D14657461F4D204E04E08B4223D31F4B3B
:100620001B78D3B1EFF31083B3FA83F35B09019323
:1006300072B6BFF35F8F277001982B889BB2327818
:10064000D2B2174931F8121089B20028E5D0012042
:100650002070BFF35F8F62B6DFE74FF0000A5046AD
:1006600002B0BDE8F0870F4901EB8212D25C42EA8A
:100670000A0A01339BB22B8048460B4B9847B8F1CE
:10068000000FECD04FEA0A2AC846CBE7800A0020C8
:10069000A0000020140B0020100B00207E0A002078
:1006A0000C0B00208C0A00203904400008B5002003
:1006B000014B984708BD00BFF105400082B0EFF341
:1006C0001083B3FA83F35B09019372B6BFF35F8FB4
:1006D0000022144B1A70019A134B1B78DBB213499A
:1006E00031F8130040280AD0C0F140002AB101229D
:1006F0000C4B1A70BFF35F8F62B602B070470C49A3
:1007000009780029F0D10B4909780029ECD10120A2
:1007100008490870B3FA83F35B0903490B700020A2
:10072000E2E700BFA0000020A80B0020A40B0020DF
:10073000B00B0020200B002008B50020014B98478B
:1007400008BD00BFBD06400008B5034B9847003008
:1007500018BF012008BD00BFBD06400008B500203D
:10076000014B984708BD00BF490740002DE9F04103
:1007700082B00C461D4B9D79092D14BF0025012523
:100780001B4E1C4FDFF87C8022E0EFF31083B3FA9E
:1007900083F35B09019372B6BFF35F8F00233B7055
:1007A000019898F80030DBB2134A32F8131001F1C7
:1007B000010E22F813E0114A02EB83135C5420B1BE
:1007C00001233B70BFF35F8F62B665B12412002531
:1007D0000020B0470028D8D1094B1B78002BF7D157
:1007E00002B0BDE8F0810120FAE700BF800A0020D6
:1007F00049074000A0000020A40B0020240B00208B
:100800007E0A0020A80B002008B501460020014BFD
:10081000984708BD6D074000104B1B681A68538845
:100820001A4403781844904211D24378042B10D014
:100830008B4209D003781844904206D24378042BA7
:1008400009D08B42F6D107E07047002070470020A6
:100850007047002070470020704700BFCC0B00207D
:1008600008B5034B987800F07F00024B984708BD0D
:10087000D40C0020751F4000194B1B784BB3194B4B
:100880001B681B681A79824225D970B4164A136016
:100890005C881C44A34220D20025012607E0124AAE
:1008A00013600FE01A7813443546A3420CD25A78ED
:1008B000042AF7D19A788242F4D1DA788A42F1D1C7
:1008C000002DECD1012002E0074A1360002070BC2B
:1008D000704700207047002070470020F7E700BFF6
:1008E000C80B0020CC0B0020D00B00202DE9F843D2
:1008F00004460021134B9847804610B94046BDE896
:10090000F883114B1B685B6853F82490D9F80C30BE
:100910009847014620460B4B984780460028EDD06B
:100920000A4B1C6805260A4D0A4F31462046A84747
:10093000044610B18078B847F7E7D9F804309847F3
:10094000DCE700BF79084000CC0B0020D00B002072
:1009500019084000E52040002DE9F0418046104B89
:1009600098470346C8B10F4B1C6805260E4D0F4F24
:1009700031462046A847044638B18288C17880783D
:10098000B84703460028F3D107E0094B1B685B68B2
:1009900053F828301B68984703461846BDE8F08195
:1009A00079084000D00B002019084000ED1F4000DE
:1009B000CC0B002008B5014B984708BD951E4000A0
:1009C00070B50D4B1B7883B10C4B1B681B681B79F2
:1009D0005BB100240A4E094D2046B0470134E4B211
:1009E0002B681B681B79A342F6D80022024B1A70B1
:1009F0000122044B1A8070BDC80B0020CC0B0020D4
:100A0000ED084000BE0B002038B50D4B1B78B3B18C
:100A10000C4B1B681A6812798AB10024094D06E054
:100A20000134E4B22B681A681279A24207D95B68D4
:100A300053F824301B69002BF2D09847F0E738BDFB
:100A4000C80B0020CC0B0020F8B5964B00229A81F1
:100A50001A615A611B7813F0800F14D113F0600FE4
:100A600000F0B8808F4B1B7803F01F03012B00F0C0
:100A70008B818C4B1B7803F01F03022B00F0AC81A1
:100A800000231846F8BD874AD288002A00F0CD819D
:100A900013F0600FE6D113F01F0306D181494978A6
:100AA000062913D0082958D049B1012B5CD0022B5C
:100AB000D8D17C4B5B78002B7ED0002360E1022AEA
:100AC000D0D102217848794B98479FE0754B5A88DE
:100AD000130A013B0E2B00F25081DFE813F00F00E8
:100AE0001C0036004E014E014E014E014E014E01DA
:100AF0004E014E014E014E014E012E006C4B186806
:100B000001786A4B9847674BDA889B8993427DD975
:100B1000644B9A817AE0D2B2654B1B685B7C93424E
:100B2000A0D9634B5B6853F8320041885F4B98470C
:100B30005C4B9B6802225A70E5E75D4B9868002881
:100B400090D04188594B9847DDE712F0FF0F89D1CB
:100B500004215848554B9847D5E7012A82D10121F5
:100B60005548524B984751E04E4949780A299ED141
:100B7000012A7FF477AF504B1B78002B3FF472AF04
:100B8000484B1C794D4B1D682B681B79A3427FF69F
:100B900069AF002120464A4B984700283FF462AFD6
:100BA0006B6853F82430DB689847464B1870012176
:100BB00018463E4B984729E0022A7FF453AF394B41
:100BC0001879414B9847414B188002211846374B02
:100BD00098471BE013F01F0340F08280314A52789F
:100BE000013A082A7CD8DFE812F013007B00CA0023
:100BF0007B0009007B007B007B002300294BDB8806
:100C0000002B7FF42FAF324A264B1A61012338E7BD
:100C1000244BDB88002B7FF425AF224B5B88012B14
:100C20007FF420AF204A138823F002031380EDE7FE
:100C30001C4BDB88002B7FF415AF264B9847002810
:100C40003FF410AF174B9A78194B1B685B7C9A42A4
:100C50003FF708AF204B9847124B9B78164A13700A
:100C6000002BD3D003F10053013B114A526802EB31
:100C7000C3001249086052F833301B79002BC5D0ED
:100C800000242646154D0F4631462046A847002829
:100C90003FF4E8AE0134E4B23B681B681B79A34221
:100CA000F2D8B3E7D40C0020BE0B0020E11F4000B7
:100CB000280000209C000020C80B0020CC0B002046
:100CC00079084000C40B00203D214000C00B0020EB
:100CD00061084000B11F4000C109400059094000AF
:100CE000012B0AD0022B7FF4BDAE524B5B78012B57
:100CF00020D0032B2ED0002342E04E4A52780B2AFC
:100D0000F0D14C4BDB88002B7FF4ACAE4A4B1B7808
:100D1000002B3FF4A7AE474B1C795D882046474B1C
:100D2000984700283FF49EAEE9B22046444B9847CE
:100D3000034625E03F4BDB88002B7FF493AE3D4B11
:100D40005B88002B7FF48EAE3A4B18793D4B984769
:100D5000034615E0374BDB88002B7FF483AE354B21
:100D60005B88002B7FF47EAE324C2079364B98475F
:100D70002079364B9847034602E0002300E0002329
:100D8000002B7FF47EAE6DE62B4B1B78002B4ED0F4
:100D9000284B1C792E4B1D682B681B79A34201D868
:100DA00000236EE6002120462A4B984700283FF496
:100DB00060AE6B6853F82450EB68984701462046B4
:100DC000244B984700283FF454AEAB68984703463D
:100DD00000287FF456AE4CE6174B1B780BB31C4B28
:100DE0001A6813681B79F3B100241A4E184F536820
:100DF00053F82450EB68984701462046B047034615
:100E000000283FF43EAEAB689847034600287FF4C5
:100E100038AE0134E4B23A6811680979A142E6D8E3
:100E20002FE600232DE600232BE6002329E60023EE
:100E300027E600BFD40C0020C80B0020ED084000BE
:100E4000590940005D224000B12440007D2140004E
:100E5000CC0B00207908400030B401240460002449
:100E6000446040F20225C0F82051C0F80441C0F8A7
:100E7000144145685200B1FBF2F2013A120292B2FB
:100E80002B431A434260204630BC70474368D2016E
:100E9000D2B219430A434260704710B4446809064D
:100EA00001F0706121430A43190701F040511143D9
:100EB000416010BC7047012303FA01F101617047E2
:100EC000006B70472DE9F84381460F46124B984757
:100ED00005464846114B9847054013D0104C04F185
:100EE000600603E0B4420DD010345DB12068B84212
:100EF000F8D161682942F5D0E3689847636825EA2C
:100F00000305EFE7074B1B6823B1074B1B680BB1C9
:100F100048469847BDE8F8837F2740008327400074
:100F2000D40B0020EC0C0020440C002008B50B2151
:100F30000148024B984708BD000E0E40C50E400008
:100F400008B50C210148024B984708BD00100E401F
:100F5000C50E400082B0014628BB244B1B781BB94C
:100F6000224B197002B07047214B9B7803B9FEE702
:100F7000EFF31083B3FA83F35B09009372B6BFF308
:100F80005F8F00221B4B1A700098194A9378013B1F
:100F900093700028E4D00122164B1A70BFF35F8FC4
:100FA00062B6DDE7FEE7114B1B78002BD8D1104B62
:100FB0009B78FF2BF6D0EFF31083B3FA83F35B0932
:100FC000019372B6BFF35F8F00220A4B1A7001982B
:100FD000074A9378013393700028C1D00122054B52
:100FE0001A70BFF35F8F62B6BAE700BF490C0020EA
:100FF000CC0C0020A0000020034A002313615361A1
:101000009381024A13707047D40C00204E0C0020CC
:1010100082B005220A4B1A700A4A136B0193019B96
:1010200043F04F030193019B43F020030193019B85
:101030001363136B13F0200FFBD002B0704700BF97
:101040004E0C00200040034082B003220A4B1A706D
:101050000A4A136B0193019B43F04F030193019BD9
:1010600043F010030193019B1363136B13F0100FF4
:10107000FBD002B0704700BF4E0C00200040034080
:1010800008B5024B1B6903B1984708BDD40C00207A
:1010900030B587B0634B1B78032B29D0624B1B887C
:1010A000624A9489E41AA4B2002C44D1604A11889F
:1010B0000B449BB213805D4AD2889A4203D05D4BA9
:1010C0001B78002B2BD00422564B1A705A4A136BF4
:1010D0000193019B43F04F030193019B23F0010314
:1010E0000193019B1363136B13F0010FFBD114E009
:1010F000514A136B0093009B43F04F030093009BF6
:1011000023F001030093009B1363136B13F0010F93
:10111000FBD14A4B98474A4B984707B030BD434BE9
:101120005B69002B5DD0984700285AD000223E4BC7
:101130001A803E4B9C893F2C53D900223D4B1A709C
:1011400040243A4B9968384B1888EFF31083B3FA70
:1011500083F35B09059372B6BFF35F8F0022394BAF
:101160001A70059D344B1B6B13F0020F3DD14CB12F
:1011700001440A46304812F8013B0365531ADBB2BA
:10118000A342F8D3284B1A8814441C802A4A136BB4
:101190000393039B43F04F030393039B43F010031C
:1011A0000393039B1363136B13F0100FFBD0224ABE
:1011B000136B0493049B43F04F030493049B23F0AD
:1011C00001030493049B1363136B13F0010FFBD112
:1011D000002DA2D001221B4B1A70BFF35F8F62B6A5
:1011E0009BE70122134B1A70ABE72DB10122154B7F
:1011F0001A70BFF35F8F62B604220A4B1A700E4A50
:10120000136B0293029B43F04F030293029B23F064
:1012100001030293029B1363136B13F0010FFBD1C5
:101220007BE700BF4E0C00204A0C0020D40C0020AD
:101230004C0C0020480C002000400340811040006E
:10124000F90F4000A000002038B5437C13F0100FC8
:1012500016D00D46437C6FF30413437404687CB1CD
:1012600002F10C03074951F8233013F4806F18BFC3
:1012700042F080028168012D14BF00200120A047A8
:1012800038BD00BF0040034030B482B0411E83002F
:1012900003F1402303F540331A6B1C6B12F0020F6D
:1012A00032D014F0400F08D101EB81022A4C04EB3C
:1012B0008202547C6FF38304547401EB8102264C48
:1012C00004EB8202527C12F00C0F28D11A6B0092B0
:1012D000009A42F04F020092009A22F0020200921D
:1012E000009A1A631A6B12F0020FFBD180B3032825
:1012F0002ED001EB8101184B03EB81035A7C0121B5
:1013000061F383025A7423E001EB8102124C04EB77
:101310008202547C012565F383045474CDE71A6B73
:101320000192019A42F04F020192019A22F040028A
:101330000192019A1A631A6B12F0400FFBD101EB74
:101340008101054B03EB81014B7C6FF383034B74ED
:1013500002B030BC704700BF500C00202DE9F043B4
:1013600083B088468146461E06EB8602664B03EB39
:10137000820393F811C0CCF3810C002800F0B780F1
:1013800003280CBF01230223634540F3B28006EB20
:1013900086035D4A02EB8303DA689B689A4209D3AD
:1013A00006EB8601584C04EB8101497C11F0400F9B
:1013B00000F0A38006EB8605534901EB85056C68B8
:1013C0001444991A2B8AC3F30907B9423ABF0F464E
:1013D0004FF0010E4FF0000E06EB86034A4901EB79
:1013E00083033A44DA60072F2BD904F108033D4602
:1013F000820002F1402202F5403213F8081C116508
:1014000013F8071C116513F8061C116513F8051C69
:10141000116513F8041C116513F8031C116513F80A
:10142000021C116513F8011C1165083D0833072DD6
:10143000E3D8A7F1080323F0070308331C4407F09F
:1014400007074FB1E319314909F1140914F8012BC9
:1014500041F829209C42F9D106EB86032A4A02EB87
:1014600083030CF1010C5A7C6CF383025A74B8F1BB
:10147000000F14D0800000F1402000F54030036BD5
:101480000193019B43F04F030193019B43F0100331
:101490000193019B0363036B13F0100FFBD0BEF1AC
:1014A000000F08D006EB8603174A02EB83035A7C31
:1014B0006FF386125A7406EB8603134A02EB83031A
:1014C000DA689B689A421AD306EB86030E4A02EB4F
:1014D00083035B7C13F0400F13D106EB860602EB0F
:1014E0008606737C43F080037374002002E00123BE
:1014F0004AE7012003B0BDE8F0830020FAE70120AD
:10150000F8E70120F6E700BF500C00200040034040
:101510002DE9F04F9BB0864B984720B9854BDB698E
:1015200013F4807F3BD02220834B9847814B9B69EB
:1015300013F4006F04D07F4BDB6913F4006F37D1D5
:101540007C4BDB6913F0010F00F0B681794B1B6B0C
:1015500013F0040F33D1774B1B6B13F0010F40F0E6
:10156000C380744B1B6B13F0020F40F0C080714BB3
:101570001B6B13F0080F00F09F816E4A136B0093F2
:10158000009B43F04F030093009B23F0080300935C
:10159000009B1363136B13F0080FFBD105E072B6C9
:1015A000BFF35F8F0022654B1A701BB0BDE8F08F50
:1015B0004FF400625F4B1A62614B9847F5E7614B4D
:1015C0001B78CBB95B4B1B6BC3F30A43082B18D0BA
:1015D000584A136B0193019B43F04F030193019B06
:1015E00023F004030193019B1363136B13F0040FA7
:1015F000FBD1554B9847D8E7544B9847544B9847E5
:10160000E0E7544B03F108004A490A6D03F8012F43
:101610008342FAD1504B984798B9464A136B0293CC
:10162000029B43F04F030293029B23F004030293B7
:10163000029B1363136B13F0040FFBD1424B9847CB
:10164000B3E7464B93F90030002B1DDB394A136B8F
:101650000593059B43F04F030593059B23F004037B
:101660000593059B1363136B13F0040FFBD13B4BE6
:10167000DB88002B35D00023394A1380394A138088
:101680000122304B1A7090E72A4A136B0393039B95
:1016900043F04F030393039B43F080030393039BA7
:1016A0001363136B13F0800FFBD0224A136B049368
:1016B000049B43F04F030493049B23F0040304931F
:1016C000049B1363136B13F0040FFBD10023244A14
:1016D0001380244A138002221A4B1A70224B984717
:1016E00063E7224B984760E71F4B98475DE7154B30
:1016F0001B78012B3CD0022B04D0042B02D0124BC0
:10170000984701E0114B98470A4A136B0693069BD2
:1017100043F04F030693069B23F002030693069BB8
:101720001363136B13F0020FFBD1094B98473CE78F
:101730002D2B40000040034085284000A0000020E1
:10174000090A40004E0C002011104000811040009A
:10175000F90F4000D30C0020490A4000D40C0020AF
:101760004C0C00204A0C0020911040004910400011
:10177000934B196BC1F30A41924B9B89924A15888E
:101780006A189342BCBF5B1B99B28E4B9868284481
:1017900071B102468A4C236D02F8013B131ADBB289
:1017A0008B42F8D30D44ADB2874B1D8040291AD02F
:1017B000844B9D815B6913B19847002830D0804AE3
:1017C000136B0893089B43F04F030893089B23F087
:1017D00002030893089B1363136B13F0020FFBD1F2
:1017E0007A4B9847E1E6774BDA88794B1B882B4494
:1017F0009A42DDDD734B9B89AB4225D0704A136B57
:101800000B930B9B43F04F030B930B9B23F00203B3
:101810000B930B9B1363136B13F0020FFBD1C4E606
:101820006C4B9847664A136B0793079B43F04F0333
:101830000793079B23F002030793079B1363136B24
:1018400013F0020FFBD1B0E65E4B5B6953B19847D2
:10185000E8B15F495C4A0B88108803440B80002381
:101860001380CBE75B4B9847554A136B0993099B51
:1018700043F04F030993099B23F002030993099B4B
:10188000136313461A6B12F0020FFBD18DE6514B16
:1018900098474B4A136B0A930A9B43F04F030A93F2
:1018A0000A9B23F002030A930A9B136313461A6BE5
:1018B00012F0020FFBD178E6474A0123DFF800E17E
:1018C00018467FE107EB8702434B03EB8203B3F833
:1018D00010A0CAF3090A236BC3F30A49B9F1000F38
:1018E00000F0DF813C4B03EB8203D3F808E0DA68B9
:1018F000AEEB02005968484540F2C78107EB87000C
:10190000354B03EB800302EB0900D86048464FF0EB
:10191000000B11440B46226D03F8012B5A1A824228
:10192000F9D330462D4B9847BBF1000F00F0BC8136
:10193000236B13F0200F7FF438AE214B5D61264BF3
:10194000BA00D11903EB8101CB688B6032460021CC
:101950004046234B984728E607EB87021E4B03EBD4
:101960008202537CC3F38101033161F38303537417
:10197000537C13F0200F5FD013F00C0F32D0236B89
:101980000C930C9B43F04F030C930C9B43F0100300
:101990000C930C9B2363236B13F0100FFBD0236B72
:1019A0000D930D9B43F04F030D930D9B23F001030B
:1019B0000D930D9B2363236B13F0010FFBD1F4E513
:1019C00000400340D40C00204A0C00204910400085
:1019D0004C0C002011104000500C002089124000D7
:1019E00049124000236B0E930E9B43F04F030E935E
:1019F0000E9B23F001030E930E9B2363236B13F0C6
:101A0000010FFBD1236B0F930F9B43F04F030F93F9
:101A10000F9B43F020030F930F9B2363236B13F063
:101A2000200FFBD007EB8707A14B03EB87035A7C02
:101A30006FF345125A74B8E513F0800F38D107EBF5
:101A400087029B4B03EB8203DA689B689A4241D37F
:101A500007EB8702964B03EB82035B7C13F04C0F82
:101A600038D1EFF31083B3FA83F35B09109372B6A6
:101A7000BFF35F8F00228F4B1A70109B8E4A556107
:101A80002BB101228B4B1A70BFF35F8F62B6236BB1
:101A90001193119B43F04F031193119B23F001030A
:101AA0001193119B2363236B13F0010FFBD17CE592
:101AB00014237F4A03FB0723597C6FF3C711597422
:101AC000DA689A607C4B5D613246002140467B4B70
:101AD0009847B4E7002E5BD0032E59D007EB87025E
:101AE000734B03EB82035B7C13F00C0F24D0236B4E
:101AF0001293129B43F04F031293129B43F0100377
:101B00001293129B2363236B13F0100FFBD0236BF4
:101B10001393139B43F04F031393139B23F0010381
:101B20001393139B2363236B13F0010FFBD100214D
:101B30003046634B984738E501213046604B984763
:101B4000A0B1236B1493149B43F04F031493149B85
:101B500023F001031493149B2363236B13F0010FF1
:101B6000FBD100213046564B98471EE51423504ABE
:101B700003FB07277A7C6FF3C7127A74FB68BB609C
:101B80004D4B5D613246002140464C4B9847D8E7AB
:101B9000012130464A4B9847236B1593159B43F020
:101BA0004F031593159B23F001031593159B236396
:101BB000236B13F0010FFBD1F7E401331432042B34
:101BC00000F08680DEB2DEF8181000FA03F5294234
:101BD000F3D05F1E90469C0004F1402404F540348D
:101BE000216B11F0420F7FF46DAE216B11F0010FEC
:101BF0007FF4B2AE216B11F0080FDED0236B169389
:101C0000169B43F04F031693169B23F0080316937D
:101C1000169B2363236B13F0080FFBD1236B03F494
:101C2000E063B3F5807F3FF4C0AC236BBDE4224B8F
:101C3000DB6913F4005F50D01F4C4FF4185323623C
:101C4000636101201F4B98474FF480732362236127
:101C50004FF400632361A8E4174B4FF480721A62BB
:101C60005A614FF400521A614FF400721A614FF436
:101C700080621A612220144B98470020114B98472C
:101C800093E43046114B984752E607EB870C084B1C
:101C900003EB8C03C3F80CE00028F2D04FF0010BEB
:101CA00037E63046094B9847CA453FF641AE7CE4DB
:101CB000500C0020A00000200040034049124000CA
:101CC0005D134000550F4000D928400089124000A4
:101CD0004B4B9B6913F4005FA9D1494B9B6913F4EB
:101CE000007F04D0464BDB6913F4007FA4D1444B42
:101CF0009B6913F4806F04D0414BDB6913F4806F50
:101D00009AD13F4B9B6913F4807F04D03C4BDB6935
:101D100013F4807FA0D13A4BDB6913F4805F3FF46A
:101D200044AC374C4FF480532362364E01221146A7
:101D30003046354DA8470222012106F11400A8477C
:101D40000322012106F12800A847304B9847636819
:101D500023F001036360636823F002036360A368F8
:101D600043F48073A360A36823F07F03A360236B15
:101D70001893189B43F04F031893189B23F40743C1
:101D800023F080031893189B43F400431893189B87
:101D900023632246136B13F4004FFBD0184A136BD6
:101DA0001993199B43F04F031993199B43F4004374
:101DB0001993199B1363136B13F4004FFBD0EFF3CC
:101DC0001083B3FA83F35B09179372B6BFF35F8F87
:101DD00000220F4B1A70179B0121094A116123B190
:101DE0000B4B1970BFF35F8F62B60A4B9847044BD9
:101DF0004FF480721A614FF400621A61FFF7D5BB8D
:101E000000400340500C002049124000C10940002E
:101E1000A0000020F90F400010B582B0EFF310834E
:101E2000B3FA83F35B09019372B6BFF35F8F0022AD
:101E3000144B1A70019C0120134B98472220134B1E
:101E40009847134B5A6F22F480725A675A6F42F4C4
:101E500000725A674FF480721A614FF400521A618F
:101E60004FF400721A614FF480621A614FF40062FD
:101E70001A612CB10122034B1A70BFF35F8F62B657
:101E800002B010BDA0000020550F40008528400082
:101E90000040034030B583B0EFF31083B3FA83F30F
:101EA0005B09009372B6BFF35F8F0024274B1C7051
:101EB000009D2220264B9847264B9847264B5022C0
:101EC00083F8222304225A60234624489A00D1181A
:101ED00000EB8101497C1A4400EB820201F083018E
:101EE0006FF3C71151740133032BEFD14FF48020EE
:101EF0001B4B984700221B4B1A701B4B1B78FF2B68
:101F000022D0EFF31083B3FA83F35B09019372B627
:101F1000BFF35F8F00220D4B1A700199124A13789C
:101F20000133137029B10122084B1A70BFF35F8F80
:101F300062B60E4B98472DB10122044B1A70BFF3C5
:101F40005F8F62B603B030BDFEE700BFA000002087
:101F5000852840001526400000E100E0500C0020DC
:101F60004D294000490C0020CC0C0020191E4000D7
:101F7000002070470D4B5A6822F001025A609A689F
:101F800022F480729A60024670B1986820F07F0057
:101F900002F07F02104398609A6842F480729A605F
:101FA0005A6842F001025A60704700BF0040034087
:101FB000054B5B6813F0010F1DBF034B986800F0E1
:101FC0007F000020704700BF00400340024B1868AC
:101FD000C0F30A00704700BF004003400020704774
:101FE000014B986099817047D40C0020F0B583B004
:101FF00000F00F04032C67D8A30003F1402303F57E
:1020000040331D6B15F4004F61D101F00305012D24
:1020100050D0251FEDB2022D34BF4FF4007540257E
:10202000954258DB40B2661E06EB86072B4D05EB4A
:10203000870505F11007B5F810E062F3090EA5F861
:1020400010E06A7C02F07F026FF345126A74002888
:1020500035DB234EB56A012202FA04F42543B5624A
:102060003546AA6A1442FCD01D4DAA6A22EA04042D
:10207000AC621A6B0192019A42F04F020192019AEE
:1020800022F4074222F08002019200284FEA012246
:1020900002F44072B4BF42F4044242F40042019997
:1020A0001143019101991963196B32EA0101FBD1C6
:1020B00001200AE06CB1032CABD1002005E07A7856
:1020C0006FF383027A70C4E7002003B0F0BD0020F4
:1020D000FBE70020F9E70020F7E700BF500C0020E5
:1020E0000040034000F00F02032A22D800B583B05D
:1020F000910001F1402101F540310B6B0193019BEF
:1021000043F04F030193019B23F400430193019B90
:102110000B630B6B13F4004FFBD1501E00EB8000E0
:102120000121044B03EB8000034B984703B05DF89B
:1021300004FB7047500C00204912400000F00F00D3
:10214000032815D8431E03EB83030A4A02EB8303DB
:102150005B7C13F0200F09D10C30074B53F8203073
:1021600013F0280F14BF0120002070470120704792
:1021700000207047500C00200040034000F00F0189
:1021800003295FD810B483B0EFF31083B3FA83F35D
:102190005B09019372B6BFF35F8F00222C4B1A705C
:1021A000019C10F0800F24D18A0002F1402202F538
:1021B0004032136B0093009B43F04F030093009B4E
:1021C00043F020030093009B1363136B13F0200F65
:1021D000FBD0012303FA01F11E4B1961002C35D00D
:1021E00001201B4B1870BFF35F8F62B603B010BCA9
:1021F00070474B1E01F10C02164850F8222012F0D5
:10220000100F09D103EB8302134800EB8202527CCA
:10221000C2F38102012AC7DD03EB83020E4B03EBFD
:1022200082035A7C42F020025A74012303FA01F11E
:10223000084B196144B10120054B1870BFF35F8F43
:1022400062B6D3E7002070470120CFE70120CDE739
:10225000A000002000400340500C002000F00F00C0
:1022600003285ED830B583B0441E04EB84022F4BA4
:1022700003EB82035A7C6FF345125A74830003F117
:10228000402303F540331A6B12F0200F4BD01A6B2A
:102290000092009A42F04F020092009A22F020022F
:1022A0000092009A1A631A6B12F0200FFBD1204D96
:1022B000A96A012202FA00F00143A96229468A6A4A
:1022C0001042FCD01A498A6A22EA000088621A6B1E
:1022D0000192019A42F04F020192019A22F0080203
:1022E0000192019A1A631A6B12F0080FFBD104EBEA
:1022F00084030E4A02EB83035B7C13F0100F01D1C1
:10230000012011E01146A200131901EB8303587C50
:102310006FF304105874144451F824309847012086
:1023200002E000207047012003B030BD500C0020B7
:1023300000400340F0B583B000F00F07032F00F218
:10234000A280BC0004F1402404F54034256B15F450
:10235000004F00F09B807D1E05EB850E504E06EB76
:102360008E06767C16F0200F40F09280266B16F0D9
:10237000200F40F08F80EFF31086B6FA86F67609CC
:10238000009672B6BFF35F8F4FF0000E454E86F891
:1023900000E0DDF800C005EB850E414E06EB8E0631
:1023A000767C16F0100F0AD0BCF1000F74D0012219
:1023B0003C4B1A70BFF35F8F62B6002064E005EB00
:1023C000850E374E06EB8E0696F811E04EF0100E95
:1023D00086F811E0BCF1000F07D04FF0010E314E2E
:1023E00086F800E0BFF35F8F62B6DFF8B4C005EB9C
:1023F0008506B6000CEB060ECEF80420CEF80830A9
:102400000022CEF80C20089A4CF8062011B9B3FA35
:1024100083F14909224AAE00731902EB83035B7C06
:1024200061F38613354402EB85026FF3C7135374CF
:10243000EFF31083B3FA83F35B09019372B6BFF332
:102440005F8F0022174B1A70019D0123BB40164A73
:10245000136110F0800F07D105B30120114B1870E4
:10246000BFF35F8F62B60FE0236B13F0110FF3D150
:10247000012138460D4B98470028EDD00021384601
:102480000A4B9847E8E7002003B0F0BD0020FBE7C7
:102490000020F9E70020F7E70020F5E70120F3E747
:1024A000500C0020A0000020004003405D134000BD
:1024B000F0B587B000F00F05032D40D8EFF310837F
:1024C000B3FA83F35B09059372B6BFF35F8F002203
:1024D0004B4B1A70059B0124AC404A4A54612BB106
:1024E0000122474B1A70BFF35F8F62B610F0800F66
:1024F00027D1AE0006F1402606F54036336B13F0C7
:10250000420F06D0404F2846B847336B13F0420FB6
:10251000F9D13C4A936A23439362936A1C42FCD0EC
:10252000384A936A23EA04049462681E00EB800030
:102530002A460121354B03EB8000354B984707B005
:10254000F0BDAB0003F1402303F540331A6B12F0EA
:10255000100F3AD04DB3032D27D01A6B0192019A78
:1025600042F04F020192019A22F010020192019A68
:102570001A631A6B12F0100FFBD11A6B12F0100FC6
:10258000FBD11A6B0292029A42F04F020292029A17
:1025900042F010020292029A1A631A6B12F0100FA4
:1025A000FBD01A6B12F0100FFBD01A6B0392039A38
:1025B00042F04F020392039A22F010020392039A10
:1025C0001A631A6B12F0100FFBD11A6B0492049A63
:1025D00042F04F020492049A22F001020492049AFB
:1025E0001A631A6B12F0010FFBD16B1E03EB83020F
:1025F000064B03EB82035A7C6FF383025A7488E71D
:10260000A00000200040034089124000500C002030
:102610004912400010B520200A4B98470A4CA047A9
:102620000028FCD0094B9847094A0A4BDA620A4C49
:10263000A0470028FCD00120084B9847084B98473A
:1026400010BD00BFED274000392840006928400038
:10265000023F0F0000040E40752840002D29400065
:102660004129400010B50E480E4B984720200E4BD4
:1026700098470E4CA0470028FCD00D4B98470D4AB8
:102680000D4B9A620D4CA0470028FCD010200C4B3B
:1026900098470C4B98470248024B984710BD00BF23
:1026A000000E2707252E4000ED2740003928400066
:1026B00049284000013F132000040E4059284000E3
:1026C00089274000152D40004264B1F1C05F39D028
:1026D00013D8B1F1006F25D0B1F1805F0AD1036F3B
:1026E00013430367436F416F0B4023EA02034367C1
:1026F000426070470029FBD17047B1F1205F20D0C4
:1027000009D8B1F1005FF3D1036F13430367436F3F
:1027100013434367ECE7B1F1405F12D0B1F1605F62
:102720000FD0E5E710B4016F046FD34321401C467E
:1027300019400167436F416F0B402340436742607C
:1027400010BC7047036F016F0B4023EA020303675D
:10275000436F13434367CBE710B4019C416444B912
:10276000016643B1016542B941630161016010BC7A
:1027700070474166F5E74165F5E70163F5E7C06C31
:102780007047806C70470000174A136B23F070038A
:1027900018431063936E13F0080F0AD14FF40063CF
:1027A00011498A6E12F0080F03D1013BF9D10120C3
:1027B00070470D4A136B23F0030343F002031363C6
:1027C000936E13F0080F0AD14FF4006306498A6E26
:1027D00012F0080F05D1013BF9D10120704700200C
:1027E00070470020704700BF00040E4011490A6A7C
:1027F00042F45C1242F008020A620A46936E13F435
:10280000003FFBD00B4A136A23F45C1323F07003E0
:1028100043F45C1318431062936E13F4003FFBD033
:10282000044A136A23F09B7323F4803343F45C134C
:102830001362704700040E40024B986E00F4803023
:10284000704700BF00040E404FF00052014B9A62E7
:10285000704700BF00040E40024B986E00F002006B
:10286000704700BF00040E400022014BDA6270473F
:1028700000040E40024B986E00F00400704700BF49
:1028800000040E4022281ED81F280CD8114B9A692C
:1028900001238340934318D0012303FA00F00D4B2A
:1028A00018610020704720380A4BD3F80821012313
:1028B000834093430BD0012303FA00F0054BC3F888
:1028C0000001002070470120704700207047002061
:1028D000704700BF00040E40222822D81F280ED8BF
:1028E000114B9A6901238340934301D00020704724
:1028F000012303FA00F00C4B586100207047203888
:10290000094BD3F8082101238340934301D00020D1
:102910007047012303FA00F0034BC3F804010020C1
:1029200070470120704700BF00040E40000200F411
:10293000706040F00100014B9863704700040E4046
:102940008022014B1A60704700040E40034B1A6F3F
:10295000C0F3120010431867704700BF00040E4018
:10296000F0B48CB007460E4601AC114D0FCD0FC42C
:102970000FCD0FC495E8070084E8070001AA0023E3
:1029800052F8040BB6FBF0F0B0FBF7F0B0F5807F27
:1029900007D901330B2BF3D14FF6FF700CB0F0BC0D
:1029A00070470A2B94BF40EA03204FF6FF70F5E70B
:1029B000B085400070B506460D460C6844B1896884
:1029C00020460C4B984704464FF6FF7398420CD0B4
:1029D000686840B1A968074B98474FF6FF73984263
:1029E00005D044EA004434600024204670BD04460B
:1029F000FBE700BF6129400070B40A684B6803F030
:102A00000F038C8A23430C8923438C7A43EA4423A3
:102A10008C7D43EA0443CC7D43EA44430C7E43EA85
:102A2000844300EB4214C4F80032CB68C4F804328B
:102A30000B69C4F80C328B7D3BB18C8B4B8B43EA1A
:102A4000044300EB4214C4F81832856C4FF00113B4
:102A50009340DB431D40CC7F04FA02F68C7F944008
:102A600044EA06442C438464446C234091F821409A
:102A700004FA02F591F82040944044EA05442343C7
:102A800043640123934091F822401CB3046A1C4321
:102A9000046291F82440012C846E0CBF1C439C43BB
:102AA000846691F82540012C846E0CBF44EA0343F0
:102AB00024EA03438366D200C46EFF23934024EAD2
:102AC000030491F8233003FA02F22243C266002085
:102AD00070BC7047046A24EA03040462D9E7012346
:102AE00003FA01F141607047012303FA01F18160AB
:102AF000704710B489014318022444504FF0FF314D
:102B00009962196A5A6010BC7047890105234350C5
:102B1000704700EB8111CA61704700EB81114A6276
:102B2000704700EB8111086A70470000024B18786B
:102B300080F00100704700BF8C0C0020F0B583B01E
:102B4000364A536843F4004353600B20344FB84770
:102B5000344E00240094234622464FF480713046C0
:102B6000314DA84700942346012280213046A847D2
:102B700000942346012240213046A8470094234672
:102B8000012220213046A84700942346012210212B
:102B90003046A8471D20B847244D4FF48023244ACF
:102BA00024492846244EB04701234FF440121946C9
:102BB0002846224EB047012221462846204B9847FE
:102BC000042128461F4EB04705212846B04721461C
:102BD0002846B04701212846B0471B4B984718208C
:102BE000B8471A4C4CF2020201212046184B984774
:102BF000102201212046174B98474FF08072164B48
:102C00001A6049F27C2201212046144B9847012189
:102C10002046134B984703B0F0BD00BF50140E4040
:102C200085284000000E0E405927400000800340D8
:102C300000A86100000E2707590E40009B0E4000BF
:102C40008D0E4000B70E4000B50940000000014065
:102C5000F32A40001B2B400000E100E0132B400052
:102C60000B2B4000FEE7000008B5214B214A9A4299
:102C700028D9214B1E4A9A420CD2013B9B1A23F0C1
:102C80000303043313441B4951F8040B42F8040BAB
:102C90009A42F9D100BF194B194A9A420AD2013B14
:102CA0009B1A23F0030304331344002142F8041B4E
:102CB0009A42FBD1134B144A9A60144B9847144B19
:102CC0009847FEE70A4B0B4A9A42E3D20A4B084860
:102CD000181A1146043A02440028DBD0C1F104015D
:102CE00052F8040943F8040DCA42F9D1D2E700BFF3
:102CF00000000020B4884000600A0020500D002031
:102D0000600A002000ED00E0000040008145400026
:102D10002D3240003C4B1B6B03F00303032B0ED8FA
:102D2000DFE803F0021C3838384B5B6913F0800F82
:102D300014BF4FF400424FF4FA42354B1A60324B45
:102D40001B6B03F07003702B55D02F4B1A6B30495F
:102D5000C2F302120B68D3400B6070472A4B1B6A08
:102D600013F0807F03D02B4A294B1A60E7E72A4AE9
:102D7000274B1A60244B1B6A03F07003102B05D0FD
:102D8000202BDCD1234A224B1A60D8E7234A204B60
:102D90001A60D4E71C4B1B6A13F0807F18D01D4AC1
:102DA0001B4B1A60184B1B6B03F00303022B164AD4
:102DB00007BF916A926AD16AD26A1548C1F30A4183
:102DC000036801FB0333D2B2B3FBF2F30360B6E74F
:102DD000114A0F4B1A600C4B1B6A03F07003102B47
:102DE00005D0202BDED10B4A094B1A60DAE70B4ADB
:102DF000074B1A60D6E7064A13680949A1FB03137B
:102E00005B081360704700BF00040E4010140E40B2
:102E1000A4000020001BB70000093D0000127A004A
:102E2000ABAAAAAA124B984211D9124B984213D9B5
:102E3000114B984214D9114B984215D9104B984216
:102E400094BF4FF004220F4A0F4B1A6070474FF0A7
:102E500080620D4B1A6070470C4A0B4B1A6070472A
:102E60000B4A094B1A6070470A4A074B1A607047B1
:102E7000FF2C3101FF596202FF869303FFB3C404A4
:102E8000FFE0F50500050004000A0E400001000403
:102E900000020004000300040A4B1B6853B1094BF5
:102EA0001B681A180849914208DB1046054A106051
:102EB00018467047054A034B1A60F0E74FF0FF30A1
:102EC000704700BF900C0020FCFF0020503D002008
:102ED00010B5094B984706A3D3E90023074CA04738
:102EE000074B9847074B186010BD00BFAFF3008039
:102EF00016B290852C64513FED394000B93A40003C
:102F000019404000F40C002070B5154B9847154D42
:102F1000A847154C0CA3D3E90023A0470022134B6C
:102F2000A047134CA047A84709A3D3E90023114E9B
:102F3000B047A047A84708A3D3E900230E4DA847F0
:102F4000A0470E4B186070BD6666666666660A40EE
:102F5000295C8FC2F528BC3F333333333333E33F2F
:102F60002D424000113A4000B93A40000000303F85
:102F7000194040000D3D400051374000F00C00204A
:102F80002DE9F8430F46284B9847284C1EA3D3E958
:102F90000023A0470022264BA047264DA847264BDA
:102FA000984780468946254E02460B4616A1D1E930
:102FB0000001B047224C02460B4640464946A04716
:102FC000204B984712A3D3E90023A04712A3D3E9CB
:102FD0000023DFF88080C04702460B4600201A49D4
:102FE000A0470FA3D3E90023B047A847042F05D07B
:102FF000052F04BF154B1860BDE8F883144B18600B
:10300000BDE8F883AFF300806666666666660A40D0
:1030100000000000005CB24083DBB5DCE1796B3F6F
:103020006666666666127140ED394000B93A400046
:103030000000303F19404000113A40005137400035
:103040000D3D4000593240000000F03FF80C0020D8
:10305000FC0C00205537400038B50B480B4B984707
:1030600010F0807F00D138BD074C206D084B984789
:10307000606D084B9847206E0421074DA847606E8D
:103080000521A847EFE700BF00800340C10E4000C4
:10309000D12E4000092F4000812F40002DE9F04F34
:1030A00087B006AF4FF08072234BC3F88020BFF388
:1030B0004F8FBFF36F8F01212048214B984710F0AD
:1030C000100F07D14FF080721B4B1A600437BD46BA
:1030D000BDE8F08F1B4B98473F28F3D9E9468AB0EB
:1030E00006AC194D194B1868A84782468B46184BF9
:1030F0001868A847CDE90401164B1868A847CDE920
:103100000201154B1868A847CDE9000152465B46FD
:1031100012492046124DA84710AD124EDFF84880E4
:1031200002E00134AC4205D0B0470028F9D0207845
:10313000C047F6E7CD46C5E700E100E000000140EA
:10314000232B400039074000113A4000F40C0020C6
:10315000FC0C0020F80C0020F00C0020E88540005A
:10316000A14740005D0740000908400030B585B028
:103170001F20154B9847154C00212046144B9847AB
:1031800001224FF000611348134B9847134A01ABDB
:1031900007CA83E8070019462046114B9847114992
:1031A0000B234B604FF47A730B610F4B1B68CB60A2
:1031B00000250D6020460D4B9847294620460C4BB4
:1031C000984705B030BD00BF852840000000024090
:1031D000E92A4000000E0E40C9264000DC85400070
:1031E000B5294000000D0020A8000020F92940006A
:1031F000DF2A400008B5074B984700B908BD064BC9
:103200009847064B98470649064B9847064B186067
:10321000F4E700BFE1054000AD0640002D4240004C
:10322000000020413D444000940C002008B5054BAF
:103230009847054B9847054B9847054D054CA847BF
:10324000A047FCE7652640003D2B40006D31400063
:1032500059304000F53140002DE970438AB00446F2
:103260000D4600F075F8354B93F90060731C8046ED
:1032700089460DD022462B462046294600F0B6FE50
:1032800030B9002200232046294600F0A5FE20B1D7
:10329000404649460AB0BDE87083294B0890CDE905
:1032A0000245CDE90445019320462946CEB9254D76
:1032B0004FF0604400220023CDE9064500F064FE93
:1032C000002833D002230093684600F035FAA8B1F5
:1032D000089BC3B9DDE90689404649460AB0BDE806
:1032E0007083194D002400220023CDE9064500F02B
:1032F0004BFE68B102239E420093E5D101F03AF9FA
:1033000022230360E4E701F035F9089B0360E1E75D
:103310000123022E00930BD101F02CF9212303602D
:103320000A4800F00BFACDE90601D1E7012300932A
:10333000684600F001FA0028F2D1EDE7AC00002069
:10334000F8854000FFFFEFC70000F0FF2086400037
:103350002DE9F04FB1F5801F85B006460F460B46AC
:103360005ADA024621F00044224300F0F880002996
:10337000C0F27A810022D64B00F09EFBD54A0B4664
:10338000934206460F466FF0350C4ADCC3F3130533
:1033900005F5152E0EF6647E0EF4801E8EF07F521B
:1033A00082F440121C1542EA0507A4F2FF3464447B
:1033B0000022C94B3046394604EB1E5400F0C8F9D0
:1033C000AB1CC3F31303022B82468B464FF0000263
:1033D00030DC002300F0D8FD002800F0C980002C6C
:1033E00000F04B81204600F001FBA5A3D3E90023A8
:1033F00006460F4600F060FBA3A3D3E90023044672
:103400000D463046394600F057FB02460B46204633
:10341000294600F09FF90AE0AE4A93424FF0000CB3
:10342000B4DD32463B463046394600F093F905B0EC
:10343000BDE8F08F4FF0804300F08CF902460B4658
:103440005046594600F062FC064620460F4600F002
:10345000CDFA3246CDE900013B4630463946CDE94A
:10346000026700F029FB02460B468046894600F0C1
:1034700023FB87A3D3E9002306460F4600F01CFB7D
:1034800085A3D3E9002300F065F932463B4600F0FE
:1034900013FB83A3D3E9002300F05CF932463B46DB
:1034A00000F00AFB80A3D3E9002300F053F9424661
:1034B0004B4600F001FB7EA3D3E9002380468946FA
:1034C0003046394600F0F8FA7BA3D3E9002300F038
:1034D00041F932463B4600F0EFFA79A3D3E90023E5
:1034E00000F038F932463B4600F0E6FA0B46024659
:1034F0004946404600F02EF9A5F5C223C5F5D7256B
:10350000A3F27A4351351D43002D8046894656DD8E
:103510000022724B5046594600F0CEFA52465B46A6
:1035200000F0CAFA06460F46002C68D132463B46E8
:103530004046494600F00EF9DDE9022300F0BCFAEE
:1035400002460B463046394600F002F902460B4669
:103550005046594600F0FCF805B0BDE8F08F002257
:10356000002300205E4900F0D1FB05B0BDE8F08FDC
:1035700055A3D3E900235046594600F09DFA024670
:103580000B460020554900F0E3F8524606460F4628
:103590005B465046594600F08FFA02460B463046CD
:1035A000394600F089FA06460F46002C40F09A8012
:1035B00002460B465046594600F0CAF837E7002C41
:1035C00000F0A4802EA3D3E90023DDE9000100F080
:1035D00073FA42464B4604460D465046594600F0A3
:1035E000B7F8DDE9022300F067FA27A3D3E9002347
:1035F00006460F46DDE9000100F05EFA21E020A357
:10360000D3E90023DDE9000100F056FA32463B46DB
:1036100004460D464046494600F09CF8DDE9022389
:1036200000F04AFA18A3D3E9002380468946DDE971
:10363000000100F041FA02460B464046494600F0C0
:1036400089F802460B463046394600F081F852466A
:103650005B4600F07DF802460B462046294600F006
:1036600077F805B0BDE8F08F02460B4600F070F821
:103670000022002300F04AFBD9E600200021D6E614
:103680000000E0FE422EE63F763C7935EF39EA3D18
:1036900044523EDF12F1C23FDE03CB966446C73F81
:1036A000599322942449D23F935555555555E53F9A
:1036B0009FC678D0099AC33FAF788E1DC571CC3FA5
:1036C00004FA97999999D93F555555555555D53F70
:1036D00000005043FFFFEF7F0000F03F0000E03F9D
:1036E000000050C3204600F081F90FA3D3E9002366
:1036F0008046894600F0E0F90DA3D3E90023044693
:103700000D464046494600F0D7F99AE702460B4677
:103710005046594600F01CF8DDE9022300F0CCF9D0
:1037200014E700BFAFF300800000E0FE422EE63F4A
:10373000763C7935EF39EA3D002070470020014999
:10374000704700BF0000F87F81F0004102E000BF39
:1037500083F0004330B54FEA41044FEA430594EA51
:10376000050F08BF90EA020F1FBF54EA000C55EA8C
:10377000020C7FEA645C7FEA655C00F0E2804FEA5D
:103780005454D4EB5555B8BF6D420CDD2C4480EA3F
:10379000020281EA030382EA000083EA010180EA6F
:1037A000020281EA0303362D88BF30BD11F0004FBD
:1037B0004FEA01314FF4801C4CEA113102D04042F3
:1037C00061EB410113F0004F4FEA03334CEA13332E
:1037D00002D0524263EB430394EA050F00F0A78046
:1037E000A4F10104D5F1200E0DDB02FA0EFC22FA41
:1037F00005F2801841F1000103FA0EF2801843FA35
:1038000005F359410EE0A5F120050EF1200E012A25
:1038100003FA0EFC28BF4CF0020C43FA05F3C01863
:1038200051EBE37101F0004507D54FF0000EDCF1DC
:10383000000C7EEB00006EEB0101B1F5801F1BD385
:10384000B1F5001F0CD349085FEA30004FEA3C0C89
:1038500004F101044FEA445212F5800F80F09A807F
:10386000BCF1004F08BF5FEA500C50F1000041EB83
:10387000045141EA050130BD5FEA4C0C404141EB87
:10388000010111F4801FA4F10104E9D191F0000FAE
:1038900004BF01460020B1FA81F308BF2033A3F131
:1038A0000B03B3F120020CDA0C3208DD02F1140C28
:1038B000C2F10C0201FA0CF021FA02F10CE002F163
:1038C0001402D8BFC2F1200C01FA02F120FA0CFC5C
:1038D000DCBF41EA0C019040E41AA2BF01EB0451A5
:1038E000294330BD6FEA04041F3C1CDA0C340EDCA3
:1038F00004F11404C4F1200220FA04F001FA02F3E6
:1039000040EA030021FA04F345EA030130BDC4F1A3
:103910000C04C4F1200220FA02F001FA04F340EA98
:103920000300294630BD21FA04F0294630BD94F049
:10393000000F83F4801306BF81F480110134013D30
:103940004EE77FEA645C18BF7FEA655C29D094EAA1
:10395000050F08BF90EA020F05D054EA000C04BF1F
:103960001946104630BD91EA030F1EBF002100200A
:1039700030BD5FEA545C05D14000494128BF41F0A9
:10398000004130BD14F580043CBF01F5801130BD0D
:1039900001F0004545F0FE4141F470014FF0000098
:1039A00030BD7FEA645C1ABF194610467FEA655C49
:1039B0001CBF0B46024650EA013406BF52EA0335EB
:1039C00091EA030F41F4002130BD00BF90F0000FD9
:1039D00004BF0021704730B54FF4806404F1320415
:1039E0004FF000054FF0000150E700BF90F0000FCE
:1039F00004BF0021704730B54FF4806404F13204F5
:103A000010F0004548BF40424FF000013EE700BFC4
:103A100042004FEAE2014FEA31014FEA02701FBF54
:103A200012F07F4393F07F4F81F06051704792F026
:103A3000000F14BF93F07F4F704730B54FF46074A0
:103A400001F0004521F0004120E700BF50EA0102EB
:103A500008BF704730B54FF000050AE050EA010298
:103A600008BF704730B511F0004502D5404261EB08
:103A700041014FF4806404F132045FEA915C3FF449
:103A8000DCAE4FF003025FEADC0C18BF03325FEAE2
:103A9000DC0C18BF033202EBDC02C2F1200300FA97
:103AA00003FC20FA02F001FA03FE40EA0E0021FABC
:103AB00002F11444C1E600BF70B54FF0FF0C4CF4A6
:103AC000E06C1CEA11541DBF1CEA135594EA0C0F5C
:103AD00095EA0C0F00F0DEF82C4481EA030621EA97
:103AE0004C5123EA4C5350EA013518BF52EA0335D2
:103AF00041F4801143F4801338D0A0FB02CE4FF084
:103B00000005E1FB02E506F00042E0FB03E54FF0B3
:103B10000006E1FB03569CF0000F18BF4EF0010EAB
:103B2000A4F1FF04B6F5007F64F5407404D25FEAA7
:103B30004E0E6D4146EB060642EAC62141EA55515A
:103B40004FEAC52040EA5E504FEACE2EB4F1FD0C9C
:103B500088BFBCF5E06F1ED8BEF1004F08BF5FEA1A
:103B6000500E50F1000041EB045170BD06F00046CC
:103B700046EA010140EA020081EA0301B4EB5C0479
:103B8000C2BFD4EB0C0541EA045170BD41F4801171
:103B90004FF0000E013C00F3AB8014F1360FDEBF96
:103BA000002001F0004170BDC4F10004203C35DA72
:103BB0000C341BDC04F11404C4F1200500FA05F3F5
:103BC00020FA04F001FA05F240EA020001F0004296
:103BD00021F0004110EBD37021FA04F642EB06010C
:103BE0005EEA430E08BF20EAD37070BDC4F10C0436
:103BF000C4F1200500FA04F320FA05F001FA04F2FA
:103C000040EA020001F0004110EBD37041F10001E5
:103C10005EEA430E08BF20EAD37070BDC4F12005F0
:103C200000FA05F24EEA020E20FA04F301FA05F258
:103C300043EA020321FA04F001F0004121FA04F200
:103C400020EA020000EBD3705EEA430E08BF20EAD0
:103C5000D37070BD94F0000F0FD101F0004640000A
:103C600041EB010111F4801F08BF013CF7D041EA8C
:103C7000060195F0000F18BF704703F00046520090
:103C800043EB030313F4801F08BF013DF7D043EA61
:103C90000603704794EA0C0F0CEA135518BF95EA17
:103CA0000C0F0CD050EA410618BF52EA4306D1D19E
:103CB00081EA030101F000414FF0000070BD50EABD
:103CC000410606BF1046194652EA430619D094EA47
:103CD0000C0F02D150EA013613D195EA0C0F05D131
:103CE00052EA03361CBF104619460AD181EA030185
:103CF00001F0004141F0FE4141F470014FF000003D
:103D000070BD41F0FE4141F4780170BD70B54FF0D7
:103D1000FF0C4CF4E06C1CEA11541DBF1CEA135557
:103D200094EA0C0F95EA0C0F00F0A7F8A4EB050439
:103D300081EA030E52EA03354FEA013100F0888030
:103D40004FEA03334FF0805545EA131343EA1263F9
:103D50004FEA022245EA111545EA10654FEA0026AE
:103D60000EF000419D4208BF964244F1FD0404F567
:103D7000407402D25B084FEA3202B61A65EB0305C3
:103D80005B084FEA32024FF480104FF4002CB6EB80
:103D9000020E75EB030E22BFB61A754640EA0C0000
:103DA0005B084FEA3202B6EB020E75EB030E22BF40
:103DB000B61A754640EA5C005B084FEA3202B6EB81
:103DC000020E75EB030E22BFB61A754640EA9C0040
:103DD0005B084FEA3202B6EB020E75EB030E22BF10
:103DE000B61A754640EADC0055EA060E18D04FEACE
:103DF000051545EA16754FEA06164FEAC30343EA6E
:103E000052734FEAC2025FEA1C1CC0D111F4801F3A
:103E10000BD141EA00014FF000004FF0004CB6E733
:103E200011F4801F04BF01430020B4F1FD0C88BFD2
:103E3000BCF5E06F3FF6AFAEB5EB030C04BFB6EBDD
:103E4000020C5FEA500C50F1000041EB045170BDD0
:103E50000EF0004E4EEA113114EB5C04C2BFD4EBFD
:103E60000C0541EA045170BD41F480114FF0000E81
:103E7000013C90E645EA060E8DE60CEA135594EAFD
:103E80000C0F08BF95EA0C0F3FF43BAF94EA0C0F00
:103E90000AD150EA01347FF434AF95EA0C0F7FF475
:103EA00025AF104619462CE795EA0C0F06D152EAC9
:103EB00003353FF4FDAE1046194622E750EA4106AD
:103EC00018BF52EA43067FF4C5AE50EA41047FF4BE
:103ED0000DAF52EA43057FF4EBAE12E74FF0FF3C23
:103EE00006E000BF4FF0010C02E000BF4FF0010CF4
:103EF0004DF804CD4FEA410C7FEA6C5C4FEA430C6D
:103F000018BF7FEA6C5C1BD001B050EA410C0CBFBB
:103F100052EA430C91EA030F02BF90EA020F00201D
:103F2000704710F1000F91EA030F58BF994208BF84
:103F300090422CBFD8176FEAE37040F00100704741
:103F40004FEA410C7FEA6C5C02D150EA013C07D198
:103F50004FEA430C7FEA6C5CD6D152EA033CD3D0E3
:103F60005DF8040B704700BF8446104662468C46DD
:103F70001946634600E000BF01B5FFF7B7FF002810
:103F800048BF10F1000F01BD4DF808EDFFF7F4FF39
:103F90000CBF012000205DF808FB00BF4DF808EDC4
:103FA000FFF7EAFF34BF012000205DF808FB00BFE7
:103FB0004DF808EDFFF7E0FF94BF012000205DF809
:103FC00008FB00BF4DF808EDFFF7CEFF94BF0120BE
:103FD00000205DF808FB00BF4DF808EDFFF7C4FFB7
:103FE00034BF012000205DF808FB00BF4FEA410C00
:103FF0007FEA6C5C02D150EA013C0AD14FEA430CE3
:104000007FEA6C5C02D152EA033C02D14FF000001F
:1040100070474FF0010070474FEA4102B2F1E043B0
:1040200024BFB3F5001CDCF1FE5C0DD901F0004C9F
:104030004FEAC0024CEA5070B2F1004F40EB8300EF
:1040400008BF20F00100704711F0804F21D113F11B
:104050003872BCBF01F00040704741F480114FEA54
:104060005252C2F11802C2F1200C10FA0CF320FADD
:1040700002F018BF40F001004FEAC1234FEAD323FA
:1040800003FA0CFC40EA0C0023FA02F34FEA430364
:10409000CCE77FEA625307D150EA01331EBF4FF0ED
:1040A000FE4040F44000704701F0004040F0FE4008
:1040B00040F40000704700BF80F0004002E000BF05
:1040C00081F0004142001FBF5FEA410392EA030F03
:1040D0007FEA226C7FEA236C6AD04FEA1262D2EB4D
:1040E0001363C1BFD218414048404140B8BF5B4252
:1040F000192B88BF704710F0004F40F4000020F0EB
:104100007F4018BF404211F0004F41F4000121F000
:104110007F4118BF494292EA030F3FD0A2F101024A
:1041200041FA03FC10EB0C00C3F1200301FA03F188
:1041300000F0004302D5494260EB4000B0F5000FAB
:1041400013D3B0F1807F06D340084FEA310102F16A
:104150000102FE2A51D2B1F1004F40EBC25008BF1C
:1041600020F0010040EA03007047490040EB0000E6
:1041700010F4000FA2F10102EDD1B0FA80FCACF115
:10418000080CB2EB0C0200FA0CF0AABF00EBC25014
:1041900052421843BCBFD0401843704792F0000F02
:1041A00081F4000106BF80F400000132013BB5E755
:1041B0004FEA41037FEA226C18BF7FEA236C21D0CB
:1041C00092EA030F04D092F0000F08BF0846704730
:1041D00090EA010F1CBF0020704712F07F4F04D1FE
:1041E000400028BF40F00040704712F100723CBF11
:1041F00000F50000704700F0004343F0FE4040F43B
:10420000000070477FEA226216BF08467FEA2363F8
:104210000146420206BF5FEA412390EA010F40F4E3
:10422000800070474FF0000304E000BF10F000432F
:1042300048BF40425FEA000C08BF704743F0964316
:1042400001464FF000001CE050EA010208BF704731
:104250004FF000030AE000BF50EA010208BF7047B8
:1042600011F0004302D5404261EB41015FEA010CCD
:1042700002BF84460146002043F0B64308BFA3F1C5
:104280008053A3F50003BCFA8CF2083AA3EBC253A7
:1042900010DB01FA02FC634400FA02FCC2F12002C6
:1042A000BCF1004F20FA02F243EB020008BF20F0FD
:1042B0000100704702F1200201FA02FCC2F1200263
:1042C00050EA4C0021FA02F243EB020008BF20EA58
:1042D000DC7070474FF0FF0C1CEAD0521EBF1CEA86
:1042E000D15392EA0C0F93EA0C0F6FD01A4480EA74
:1042F000010C400218BF5FEA41211ED04FF000635D
:1043000043EA501043EA5111A0FB01310CF0004088
:10431000B1F5000F3EBF490041EAD3715B0040EAAE
:10432000010062F17F02FD2A1DD8B3F1004F40EB7E
:10433000C25008BF20F00100704790F0000F0CF051
:10434000004C08BF49024CEA502040EA51207F3A15
:10435000C2BFD2F1FF0340EAC250704740F40000F0
:104360004FF00003013A5DDC12F1190FDCBF00F0E1
:1043700000407047C2F10002410021FA02F1C2F18F
:10438000200200FA02FC5FEA310040F1000053EA2B
:104390004C0308BF20EADC70704792F0000F00F079
:1043A000004C02BF400010F4000F013AF9D040EA7F
:1043B0000C0093F0000F01F0004C02BF490011F413
:1043C000000F013BF9D041EA0C018FE70CEAD15311
:1043D00092EA0C0F18BF93EA0C0F0AD030F0004C91
:1043E00018BF31F0004CD8D180EA010000F0004045
:1043F000704790F0000F17BF90F0004F084691F003
:10440000000F91F0004F14D092EA0C0F01D142023C
:104410000FD193EA0C0F03D14B0218BF084608D105
:1044200080EA010000F0004040F0FE4040F400004F
:10443000704740F0FE4040F4400070474FF0FF0CE2
:104440001CEAD0521EBF1CEAD15392EA0C0F93EA29
:104450000C0F69D0A2EB030280EA010C49024FEA7B
:10446000402037D04FF0805343EA111143EA101334
:104470000CF000408B4238BF5B0042F17D024FF4EC
:10448000000C8B4224BF5B1A40EA0C00B3EB510FC7
:1044900024BFA3EB510340EA5C00B3EB910F24BFB0
:1044A000A3EB910340EA9C00B3EBD10F24BFA3EB35
:1044B000D10340EADC001B0118BF5FEA1C1CE0D1FD
:1044C000FD2A3FF650AF8B4240EBC25008BF20F0B0
:1044D000010070470CF0004C4CEA50207F32C2BF04
:1044E000D2F1FF0340EAC250704740F400004FF0A1
:1044F0000003013A37E792F0000F00F0004C02BFD2
:10450000400010F4000F013AF9D040EA0C0093F09B
:10451000000F01F0004C02BF490011F4000F013BF5
:10452000F9D041EA0C0195E70CEAD15392EA0C0F5D
:1045300008D142027FF47DAF93EA0C0F7FF470AF95
:10454000084676E793EA0C0F04D14B023FF44CAFD8
:1045500008466EE730F0004C18BF31F0004CCAD16D
:1045600030F000427FF45CAF31F000437FF43CAFA9
:104570005FE700BF014B1868704700BFB000002024
:1045800070B50F4E0F4D761BB61018BF002405D026
:10459000013455F8043B9847A642F9D10A4E0B4D19
:1045A000761B04F071F9B61018BF002406D0013450
:1045B00055F8043B9847A642F9D170BD70BD00BFC5
:1045C00094884000948840009C8840009488400073
:1045D000844641EA000313F003036DD1403A41D30E
:1045E00051F8043B40F8043B51F8043B40F8043BCD
:1045F00051F8043B40F8043B51F8043B40F8043BBD
:1046000051F8043B40F8043B51F8043B40F8043BAC
:1046100051F8043B40F8043B51F8043B40F8043B9C
:1046200051F8043B40F8043B51F8043B40F8043B8C
:1046300051F8043B40F8043B51F8043B40F8043B7C
:1046400051F8043B40F8043B51F8043B40F8043B6C
:1046500051F8043B40F8043B51F8043B40F8043B5C
:10466000403ABDD2303211D351F8043B40F8043BFC
:1046700051F8043B40F8043B51F8043B40F8043B3C
:1046800051F8043B40F8043B103AEDD20C3205D30C
:1046900051F8043B40F8043B043AF9D2043208D004
:1046A000D2071CBF11F8013B00F8013B01D30B8876
:1046B00003806046704700BF082A13D38B078DD054
:1046C00010F003038AD0C3F10403D21ADB071CBF26
:1046D00011F8013B00F8013B80D331F8023B20F890
:1046E000023B7BE7043AD9D3013A11F8013B00F8C9
:1046F000013BF9D20B7803704B7843708B78837051
:104700006046704770B4860746D0541E002A41D0D8
:10471000CAB2034602E014F1FF343BD303F8012B85
:104720009D07F8D1032C2ED9CDB245EA05250F2CD3
:1047300045EA054519D903F110022646103E0F2E11
:1047400042F8105C42F80C5C42F8085C42F8045CE9
:1047500002F11002F2D8A4F1100222F00F0204F0CC
:104760000F041032032C13440DD91E462246043A7E
:10477000032A46F8045BFAD8221F22F0030204320F
:10478000134404F003042CB1C9B21C4403F8011B08
:104790009C42FBD170BC704714460346C2E700BF81
:1047A0000EB4F0B59CB021AB0F4953F8042B019324
:1047B00005466FF00044086802954FF402774FF603
:1047C000FF7602A90695ADF8147004940794ADF82D
:1047D000166000F083F8029B00221A701CB0BDE83E
:1047E000F04003B0704700BFB000002000000000A0
:1047F00000000000000000000000000000000000B9
:1048000090F800F06DE9024520F007016FF0000C10
:1048100010F0070491F820F040F049804FF00004B8
:104820006FF00700D1E9002391F840F000F1080093
:1048300082FA4CF2A4FA8CF283FA4CF3A2FA8CF3CB
:104840004BBBD1E9022382FA4CF200F10800A4FA32
:104850008CF283FA4CF3A2FA8CF3E3B9D1E9042386
:1048600082FA4CF200F10800A4FA8CF283FA4CF3BD
:10487000A2FA8CF37BB9D1E9062301F1200182FA77
:104880004CF200F10800A4FA8CF283FA4CF3A2FA7D
:104890008CF3002BC6D0002A04BF04301A4612BA8B
:1048A000B2FA82F2FDE8024500EBD2007047D1E98E
:1048B000002304F00305C4F100004FEAC50514F01D
:1048C000040F91F840F00CFA05F562EA05021CBFEE
:1048D00063EA050362464FF00004A9E72DE9F04FB3
:1048E000C3B00C460B9192460F930C9002F042FB22
:1048F00003681A931846FFF783FFA38919901906D6
:1049000003D52369002B01F0038000230DF1C809B2
:104910001393159314932793269318931B9309933A
:10492000CDF89490C846169317939AF800305446E1
:10493000E3B1252B02D119E0252B03D014F8013F58
:10494000002BF9D1A4EB0A0585B1269B279AC8F85C
:1049500000A001332A44072BC8F80450279226935D
:104960007FDC08F10808099B2B4409932378002B6E
:104970007FD000231A468DF8773019460D939B4659
:104980004FF0FF3063780A9004F1010A0AF1010A3E
:10499000A3F12000582800F2C183DFE810F03802AC
:1049A000BF03BF034002BF03BF03BF03BF03BF0377
:1049B000BF0345020302BF035D006B02BF03860213
:1049C0009D039D039D039D039D039D039D039D03E7
:1049D0009D03BF03BF03BF03BF03BF03BF03BF03E9
:1049E000BF03BF03BF0337035703BF035703BF030F
:1049F000BF03BF03BF039803BF03BF03AD03BF03E0
:104A0000BF03BF03BF03BF035902BF03BF031E039E
:104A1000BF03BF03BF03BF03BF03BF03BF03BF0386
:104A2000BF03BF03C602DB025703570357038B02C2
:104A3000DB02BF03BF039002BF039D02CC01B4029F
:104A40000802BF03E101BF037E00BF03BF030D02E5
:104A50000D980F9340420D904BF0040B9AF80030E4
:104A600094E725AA0B990C9803F0D4FA40B9C846EC
:104A700079E7279B23B10C980B9925AA03F0CAFA72
:104A80000B9B9B8913F0400F099B18BF4FF0FF331E
:104A90000993099843B0BDE8F08F1BF0200F1193E4
:104AA00040F0DD810F9A1BF0100F134640F06E8529
:104AB0001BF0400F00F06A851488043200250123A2
:104AC0000F9200278DF877700A994A1C00F06582D2
:104AD0002BF08002079254EA050240F0648200291C
:104AE00040F03C84002B40F0D7841BF001030E9370
:104AF00000F0048642AE302306F8413D0A9B0E9A30
:104B00009342B8BF134608930023129317B1089B32
:104B100001330893079B13F00203109302D0089B04
:104B200002330893079B13F0840540F00E830D9B1E
:104B3000089AA3EB020BBBF1000F40F30683BBF115
:104B4000100F279C269A29DD43462146A8461027A8
:104B50000C9C0B9D06E0ABF1100BBBF1100F03F1A9
:104B6000080318DD0132B74826921031072A279131
:104B700083E88100EFDD25AA2946204603F04AFAA2
:104B800000287FF47DAFABF1100BBBF1100F27991C
:104B9000269A4B46E6DC45460C4698460132A94B20
:104BA00026925C44072A279488E8080800F3988432
:104BB0009DF8777008F1080877B1269B013301341E
:104BC0000DF177010122072B2794269388E8060030
:104BD00000F3DB8308F10808109B6BB1269B0133BF
:104BE00002341EA90222072B2794269388E8060088
:104BF00000F3D68308F10808802D00F015830A9B86
:104C00000E9A9F1A002F36DD102F269B8E4D27DD22
:104C100042462146B0464FF0100B2E460C9C0B9D91
:104C200004E0103F102F02F1080215DD01331031AE
:104C3000072B2791269382E84008F2DD25AA294612
:104C4000204603F0E7F900287FF41AAF103F102F39
:104C50002799269B4A46E9DC35460C46464690464F
:104C600001333C44072B2794269388E8A00000F3E7
:104C7000818308F10808079BDF0500F16882269B05
:104C80000E99C8F8006001330C44072B2794C8F82C
:104C90000410269300F34D8308F10808079B5B0777
:104CA0003AD50D9B089A9D1A002D35DD102D269BB7
:104CB00020DD10260C9FDDF82CB004E0103D102DF7
:104CC00008F1080816DD01335E4A26931034072BDD
:104CD000279488E84400F1DD25AA5946384603F0B8
:104CE00099F900287FF4CCAE103D102D279C269B0F
:104CF000C846E8DC0133534A26932C44072B2794FB
:104D000088E8240008DD25AA0B990C9803F082F9A5
:104D100000287FF4B5AE279C099B0D9A08998A421A
:104D2000ACBF9B185B180993002C40F00D83002347
:104D30002693C846F9E511931BF0200340F0E38168
:104D40001BF0100240F02E841BF0400300F02A8478
:104D50000F9913460A4604320C880F920025B0E6DC
:104D60000F9A1193166800248DF87740151D002EB8
:104D700000F0A7860A9A531C00F0098621463046A7
:104D800002F0D6FB002800F0E186831B0E930A9404
:104D90000F95CDF81CB023EAE373089312949DF8A5
:104DA0007770B3E69AF8003001222B21EEE54BF044
:104DB000200B9AF80030E9E51193002A40F095871E
:104DC000224B18931BF0200F40F011810F9A1BF01B
:104DD000100F134640F0E1831BF0400F00F0DD831D
:104DE000043314880F9300251BF0010F00F00C8191
:104DF00054EA050300F0088130239DF844208DF823
:104E000078308DF879204BF0020B022359E69AF89E
:104E1000003000297FF4BAAD01222021B6E54BF025
:104E2000010B9AF80030B1E50F9C23680D931846EA
:104E30000028234603F10403FFF60AAE0F939AF805
:104E40000030A3E54486400054864000248640009C
:104E50004BF0100B1BF0200F11933FF423AE0F9D6E
:104E6000073525F0070303F10802D3E900450F9247
:104E7000012326E69AF800302A2B0AF1010400F0FB
:104E80002787A3F130000928A24600F2AD8600234F
:104E90001C461AF8013B04EB840400EB4404A3F124
:104EA00030000928F5D90A9472E54BF0800B9AF886
:104EB00000306BE54BF0400B9AF8003066E59AF84D
:104EC00000306C2B03BF9AF801304BF0200B0AF135
:104ED000010A4BF0100B59E5002A40F011871BF036
:104EE000200F40F0F9841BF0100F40F0AC841BF051
:104EF000400F00F0A8840F9A136804320F92BDF897
:104F000024201A8011E50F99B34B0C6818933022B6
:104F1000782304318DF8793011934BF0020B0F9107
:104F200000258DF878200223CBE50F9911930A68AC
:104F30008DF8A02000230A461F468DF877300432F2
:104F400001230893CDF81CB00A9712970F920E9385
:104F500028AEDFE51193002A40F0EA861BF0200F0F
:104F60005DD11BF0100F40F008831BF0400F00F0E4
:104F700004830F99B1F900400431E51722462B460E
:104F80000F91002A73F1000358DB0A999DF877709E
:104F90004A1C4FF001037FF49BAD54EA050200F078
:104FA000DF81CDF81CB0012B00F07B82022B40F09A
:104FB000068218984E46230904F00F0143EA057350
:104FC0002A091C461546435C06F8013D54EA0503D0
:104FD000F1D1A9EB06030E9390E51193002A40F05E
:104FE000A3867E4B18931BF0200F3FF4EFAE0F9D6E
:104FF000073525F0070303F108021BF0010F0F929C
:10500000D3E900457FF4F4AE02235AE51193002A58
:1050100040F086864BF0100B1BF0200FA1D00F9DA7
:10502000073525F00705D5E90023002A05F1080119
:105030001D4673F100030F911446A6DA2D27644232
:1050400065EB45058DF8777001233DE51193002A46
:1050500040F062860F9D073525F0070303F1080233
:105060000F921A6815925B681493149B159D23F098
:105070000044284621464FF0FF32594BFEF7B6FF59
:10508000002840F04A83284621464FF0FF32544B17
:10509000FEF78EFF002840F0408315A80DC8149934
:1050A000FEF77CFF002840F030859DF877704D4E6C
:1050B0004D4B2BF08000079011980322002108929D
:1050C0000A914728D8BF1E460E9212911EE54BF05A
:1050D000080B9AF8003059E4A3F1300000231C4675
:1050E0001AF8013B04EB840400EB4404A3F1300004
:1050F0000928F5D90D944BE44BF0100B11931BF0DC
:1051000020033FF41DAE0F9D073525F0070303F183
:105110000802D3E900450F920023D2E41193002A3C
:1051200040F0E785119A002A3FF4A3AC0023012147
:105130001F4608918DF8A020CDF81CB08DF877306F
:105140000A9312930E9128AEE4E4279C34E5119B58
:10515000652B40F3A78015A80DC81499FEF714FF1E
:10516000002800F05081269B204AC8F80020013317
:1051700001340122072B27942693C8F8042000F35A
:105180006A8308F108081F9B139A279C934203DB4C
:10519000079BDD077FF582AD269B19991A9AC8F8FF
:1051A000002001330C44072BC8F8041027942693E1
:1051B00000F39E8308F10808139B5E1E002E7FF704
:1051C0006DAD102E269B0A4D40F3F5812246102727
:1051D000DDF830B00B9C13E02486400010864000C0
:1051E000FFFFEF7F048640000086400040864000BD
:1051F0005486400008F10808103E102E40F3DA8172
:1052000001331032072B2792269388E8A000F1DDA6
:1052100025AA2146584602F0FDFE00287FF430AC56
:10522000279A269BC846E7E70D9B089A9F1A002FEE
:105230007FF7E5AC102F269BB64D27DD4246214671
:10524000B0464FF0100B2E460C9C0B9D04E0103F17
:10525000102F02F1080215DD01331031072B2791C1
:10526000269382E84008F2DD25AA2946204602F06E
:10527000D1FE00287FF404AC103F102F2799269B05
:105280004A46E9DC35460C464646904601333C44E6
:10529000072B2794269388E8A00000F3328208F1B8
:1052A0000808ACE4139B269F012B40F3FE810137D5
:1052B00001340123072F27942697C8F80060C8F807
:1052C000043000F3038208F10808199A1A9BC8F801
:1052D000003001371444072F27942697C8F804207C
:1052E00000F3008208F1080815A80DC81499FEF70C
:1052F0004BFE139B002840F00181013B0137013632
:105300001C44072F26972794C8F80060C8F804307B
:1053100000F3278108F108081B9AC8F80420013718
:10532000144421AB072F27942697C8F800307FF745
:10533000B3AC25AA0B990C9802F06CFE00287FF400
:105340009FAB279CC846A9E425AA0B990C9802F0AC
:1053500061FE00283FF4EBACFFF792BBDDF81CB018
:10536000012B00F03481022B25D1CDF81CB0002494
:1053700000251EE625AA0B990C9802F04BFE00288A
:105380007FF47EAB279CC84675E425AA0B990C9840
:1053900002F040FE00287FF473AB279CC8461BE454
:1053A00025AA0B990C9802F035FE00287FF468AB13
:1053B000279CC84620E4CDF81CB0002400254946AF
:1053C00000E03146E20842EA4572E80804F00703CB
:1053D00005461446303354EA050201F8013C01F158
:1053E000FF36EED1079AD2077FF5F3AD302B3FF4AD
:1053F000F0AD0239302306F8013CA9EB01030E930E
:105400000E46FFF77BBB1F99002940F32E82129BAB
:10541000139A9342A8BF1346002B1F460DDD269B0F
:10542000C8F8006001333C44072B2794C8F8047087
:10543000269300F31F8308F10808129B002FA8BFD2
:10544000DB1B002B1F4640F3D680102F269B314DCF
:1054500040F3ED8142462146B0464FF0100B2E46F8
:105460000C9C0B9D04E00832103F102F40F3DB81B1
:1054700001331031072B2791269382E84008F2DD93
:1054800025AA2946204602F0C5FD00287FF4F8AA87
:105490002799269B4A46E7E70A9B0E934E46FFF75D
:1054A0002DBB002D08BF0A2CC0F08F804E46204631
:1054B00029460A22002302F0F3FE303206F8012DBD
:1054C0002046294600230A2202F0EAFE04460D4641
:1054D00054EA0503EBD1A9EB06030E93FFF70EBBCD
:1054E00025AA0B990C9802F095FD00287FF4C8AA14
:1054F0009DF87770279CC846FFF75EBB5E1E002EA6
:105500007FF70AAF102E034D22DD22464FF0100B1D
:105510000C9C06E054864000103E102E08F108084E
:1055200015DD01371032072F2792269788E82008CB
:10553000F2DD25AA0B99204602F06CFD00287FF4CD
:105540009FAA103E102E279A269FC846E9DC1446D3
:1055500001373444072F2794269788E860007FF7A7
:10556000D9AE25AA0B990C9802F054FD00287FF4BF
:1055700087AA279C269FC846CEE60F9A1468134632
:105580000433E5170F9322462B46FAE404321C68D5
:105590000F9201230025FFF794BA1C6804330F9380
:1055A000002521E40F990A4604320C680F92002569
:1055B000FFF787BA144601333444072B2794269308
:1055C00088E860007FF768ABB3E6DDF81CB0CDF883
:1055D0001CB042AE3034012306F8414D0E93FFF764
:1055E0008DBA25AA0B990C9802F014FD00287FF4BF
:1055F00047AA279CC8461F9A139B9A4244DB079BE5
:10560000D90741D4139B12989A1A1D1A9542A8BF24
:105610001546002D0EDD2699C8F8045001310644C8
:105620002C440729C8F800602794269100F33B8298
:1056300008F10808002DACBF561B1646002E7FF758
:105640002DAB102E269BB04DB5DD22461027DDF880
:1056500030B00B9C04E008F10808103E102EA9DDC4
:1056600001331032072B2792269388E8A000F2DD41
:1056700025AA2146584602F0CDFC00287FF400AA56
:10568000279A269BC846E8E7269B19981A99C8F8D6
:10569000001001330444072B2794C8F80400269314
:1056A00000F3F58108F10808ACE7079BDA073FF53E
:1056B000FEAD013701340123072F27942697C8F840
:1056C0000060C8F804307FF725AE4AE725AA0B9999
:1056D0000C9802F09FFC00287FF4D2A9279C269FFB
:1056E000C846F2E525AA0B990C9802F093FC002815
:1056F0007FF4C6A9279C269FC846F5E54E46FFF7CE
:10570000FDB925AA0B990C9802F084FC00287FF4BF
:10571000B7A9279CC846FFF772BA159C22462046B7
:10572000149C23462146FEF761FC002840F0868247
:105730000A9B0133119B23F020030E9300F0E281BA
:10574000472B00F01E814BF480730793149B1F1EA0
:10575000159B0893BBBF3B4603F1004700232D2355
:105760001093119B662B00F0BB81462B00F0DF806D
:105770000E9B089A452B0CBF0A9B0A9D23A820A9C3
:1057800008BF5D1C049003911FA802213B460290B4
:10579000019500910C9800F073FB119B672B064656
:1057A00040F0E0811BF0010F00F046827419169A58
:1057B0000898179B3946FEF7E7FB002840F0658103
:1057C000239BA34206D230215A1C23921970239B9B
:1057D0009C42F9D89B1B13930E9B472B00F0E9804A
:1057E000119B652B40F3CD81119B662B1F9B129360
:1057F00000F09E81139B129A1946914200F38A8110
:105800001BF0010F40F0138222EAE2730893672332
:105810000E921193109B002B40F0C4800A939DF8C8
:105820007770FFF773B935460C464646904601330C
:105830003C44072B2794269388E8A0003FF7D1AE7D
:1058400008F10808D7E60F9A136804320F92099AF4
:105850001A60FFF76AB825AA0B990C9802F0DAFBD8
:1058600000287FF40DA9C8468DE4269B274AC8F876
:105870000020013301340122072B27942693C8F816
:10588000042072DC08F1080829B9139B1BB9079B97
:10589000D8077FF503AA269B19981A9AC8F8002002
:1058A000013302462244072B2792C8F804002693AE
:1058B00000F38D8108F108080029C0F26581139971
:1058C000C8F8006001338C18072B27942693C8F87A
:1058D00004107FF7E1A92CE50F9A09991368CD17F9
:1058E0000846043229460F92C3E90001FFF71DB8AC
:1058F00025AA0B990C9802F08DFB00287FF4C0A814
:10590000279CC84658E400BF5486400040864000AB
:1059100040210C9801F040FB0B9A106010610028A8
:1059200000F0F2810B9A40235361FEF7EEBF23A8EB
:1059300020A90A9C049003911FA803210290089AB1
:1059400001943B4600910C9800F09AFA25460646D1
:10595000119B462B06EB05047FF429AF3378302BDF
:1059600000F078811F9D2C4421E725AA0B990C9803
:1059700002F050FB00287FF483A81F99279CC8469B
:1059800082E70A9B002B08BF01230A93DBE630461F
:105990000A94FEF735FF0F950E90CDF81CB0034624
:1059A000FFF7F9B92D2700238DF877700A93FFF7D9
:1059B000AEB81F9B12931A46033304DB0A9B1946A9
:1059C0009142BFF617AF119B023B11939DF84430F3
:1059D0008DF88430129B013B002B1F93BDBF129B9F
:1059E000C3F101032D222B22092B8DF8852040F3D2
:1059F00016810DF193042046AB4D00E0104685FB67
:105A00000312D917C1EBA20101EB8102A3EB420201
:105A10003032092900F8012C0B4600F1FF32EDDC91
:105A200030330238D9B2844202F8011C40F2658159
:105A30000DF18600134601E013F8011B00F8011B6D
:105A4000A342F9D101339B1A0DF18602134421AA16
:105A50009B1A139A1B93012A13440E9340F3198146
:105A60000E9B199A13440E9323EAE37308930023C1
:105A70001293CFE625AA0B990C9802F0CBFA0028D6
:105A80007EF4FEAF279CC846D7E42346A2E625AAAB
:105A90000B990C9802F0BEFA00287EF4F1AF1F9A21
:105AA000279CC846AEE525AA0B990C9802F0B2FADD
:105AB00000287EF4E5AF1F9A139B279C9A1AC846CC
:105AC000B8E50A9B1296062B28BF06230A9637468E
:105AD00008930F95CDF81CB00E93744EFFF716B8CF
