:020000040040BA
:1000000008350020BD044000B9044000B904400098
:10001000B9044000B9044000B904400000000000E9
:10002000000000000000000000000000B9044000D3
:10003000B904400000000000B9044000B9044000C9
:10004000B9044000B9044000B9044000B9044000BC
:10005000B9044000B9044000B904400000000000A9
:10006000B9044000B9044000000000000D02400047
:100070002102400000000000B90440000000000020
:10008000000000000000000000000000B904400073
:10009000B9044000B9044000B9044000B90440006C
:1000A000B9044000B9044000000000000000000056
:1000B00000000000B904400000000000B904400046
:1000C000B9044000B9044000B904400010B5054C23
:1000D000237833B9044B13B10448AFF300800123F4
:1000E000237010BD3C040020000000009C1840005C
:1000F0000C4B43B10C480D4910B5AFF300800C48D0
:10010000036823B910BD0A48036833B97047094B27
:10011000002BF7D0BDE810401847064B002BF5D058
:10012000184700BF000000009C1840004004002059
:100130009C1840000000000030B40124046000243A
:10014000446040F20225C0F82051C0F80441C0F8D4
:10015000144145685200B1FBF2F2013A120292B228
:100160002B431A434260204630BC70474368D2019B
:10017000D2B219430A434260704710B4446809067A
:1001800001F0706121430A43190701F04051114306
:10019000416010BC7047012303FA01F1016170470F
:1001A000006B70472DE9F84381460F46124B984784
:1001B00005464846114B9847054013D0104C04F1B2
:1001C000600603E0B4420DD010345DB12068B8423F
:1001D000F8D161682942F5D0E3689847636825EA59
:1001E0000305EFE7074B1B6823B1074B1B680BB1F7
:1001F00048469847BDE8F883BF024000C30240006C
:1002000058040020CC040020C804002008B50B21AD
:100210000148024B984708BD000E0E40A501400062
:1002200008B50C210148024B984708BD00100E404C
:10023000A501400010B50E480E4B984720200E4BEC
:1002400098470E4CA0470028FCD00D4B98470D4A0C
:100250000D4B9A620D4CA0470028FCD010200C4B8F
:1002600098470C4B98470248024B984710BD00BF77
:10027000000E2707790640002D0340007903400057
:1002800089034000013F132000040E409903400001
:10029000C90240006905400010B4019C416444B9A2
:1002A000016643B1016542B941630161016010BC5F
:1002B00070474166F5E74165F5E70163F5E7C06C16
:1002C0007047806C70470000174A136B23F070036F
:1002D00018431063936E13F0080F0AD14FF40063B4
:1002E00011498A6E12F0080F03D1013BF9D10120A8
:1002F00070470D4A136B23F0030343F002031363AB
:10030000936E13F0080F0AD14FF4006306498A6E0A
:1003100012F0080F05D1013BF9D1012070470020F0
:1003200070470020704700BF00040E4011490A6A60
:1003300042F45C1242F008020A620A46936E13F419
:10034000003FFBD00B4A136A23F45C1323F07003C5
:1003500043F45C1318431062936E13F4003FFBD018
:10036000044A136A23F09B7323F4803343F45C1331
:100370001362704700040E40024B986E00F4803008
:10038000704700BF00040E404FF00052014B9A62CC
:10039000704700BF00040E40024B986E00F0020050
:1003A000704700BF00040E4022281ED81F280CD81A
:1003B000114B9A6901238340934318D0012303FA18
:1003C00000F00D4B18610020704720380A4BD3F81D
:1003D00008210123834093430BD0012303FA00F04B
:1003E000054BC3F800010020704701207047002032
:1003F00070470020704700BF00040E4070B582B007
:10040000234E00240094234622464FF48071304648
:10041000204DA84700942346012280213046A8475A
:1004200000942346012240213046A84700942346E9
:10043000012220213046A8470094234601221021A2
:100440003046A8471D20144B9847144D4FF4802385
:10045000134A14492846144EB04701234FF4401262
:1004600019462846114EB047012221462846104B16
:100470009847042128460F4EB04705212846B0472B
:1004800021462846B04701212846B04702B070BD3A
:10049000000E0E4099024000A90340000080034076
:1004A00000A86100000E2707390140007B014000D1
:1004B0006D01400097014000FEE7000008B5214BA8
:1004C000214A9A4228D9214B1E4A9A420CD2013B1A
:1004D0009B1A23F00303043313441B4951F8040B04
:1004E00042F8040B9A42F9D100BF194B194A9A42BB
:1004F0000AD2013B9B1A23F0030304331344002167
:1005000042F8041B9A42FBD1134B144A9A60144BD5
:100510009847144B9847FEE70A4B0B4A9A42E3D29E
:100520000A4B0848181A1146043A02440028DBD046
:10053000C1F1040152F8040943F8040DCA42F9D18B
:10054000D2E700BF000000209C1840003C040020BF
:10055000040500203C04002000ED00E00000400005
:10056000FD164000750840003C4B1B6B03F0030375
:10057000032B0ED8DFE803F0021C3838384B5B69D8
:1005800013F0800F14BF4FF400424FF4FA42354B82
:100590001A60324B1B6B03F07003702B55D02F4B3E
:1005A0001A6B3049C2F302120B68D3400B607047DC
:1005B0002A4B1B6A13F0807F03D02B4A294B1A6009
:1005C000E7E72A4A274B1A60244B1B6A03F07003A3
:1005D000102B05D0202BDCD1234A224B1A60D8E700
:1005E000234A204B1A60D4E71C4B1B6A13F0807F10
:1005F00018D01D4A1B4B1A60184B1B6B03F00303EA
:10060000022B164A07BF916A926AD16AD26A1548CC
:10061000C1F30A41036801FB0333D2B2B3FBF2F327
:100620000360B6E7114A0F4B1A600C4B1B6A03F0CC
:100630007003102B05D0202BDED10B4A094B1A601A
:10064000DAE70B4A074B1A60D6E7064A13680949EE
:10065000A1FB03135B081360704700BF00040E404A
:1006600010140E4000000020001BB70000093D00E0
:1006700000127A00ABAAAAAA124B984211D9124BC7
:10068000984213D9114B984214D9114B984215D95D
:10069000104B984294BF4FF004220F4A0F4B1A6040
:1006A00070474FF080620D4B1A6070470C4A0B4B3D
:1006B0001A6070470B4A094B1A6070470A4A074B89
:1006C0001A607047FF2C3101FF596202FF869303C5
:1006D000FFB3C404FFE0F50500050004000A0E4066
:1006E00000010004000200040003000400000000F8
:1006F00010B5094B984706A3D3E90023074CA04740
:10070000074B9847074B186010BD00BFAFF3008040
:1007100016B290852C64513F25104000F110400026
:1007200051164000D404002010B5054B9847002214
:10073000044B054CA047054B9847054B186010BD6E
:100740002510400000007E3FF1104000511640008F
:10075000D0040020000000002DE9F8430F46284B8C
:100760009847284C1EA3D3E90023A0470022264B1C
:10077000A047264DA847264B984780468946254ED8
:1007800002460B4616A1D1E90001B047224C0246B1
:100790000B4640464946A047204B984712A3D3E951
:1007A0000023A04712A3D3E90023DFF88080C047CD
:1007B00002460B4600201A49A0470FA3D3E90023A5
:1007C000B047A847042F05D0052F04BF154B18606C
:1007D000BDE8F883144B1860BDE8F883AFF30080E0
:1007E0006666666666660A4000000000005CB2400D
:1007F00083DBB5DCE1796B3F666666666612714045
:1008000025104000F11040000000303F511640001C
:1008100049104000890D40004513400091084000F8
:100820000000F03FD8040020DC0400208D0D4000C3
:1008300038B50B480B4B984710F0807F00D138BD7E
:10084000074C206D084B9847606D084B9847206E09
:100850000421074DA847606E0521A847EFE700BFB8
:1008600000800340A1014000F1064000290740003C
:100870005907400008B5034B9847034B9847034C72
:10088000A047FDE735024000FD034000310840006D
:100890002DE970438AB004460D4600F075F8354BDB
:1008A00093F90060731C804689460DD022462B4682
:1008B0002046294600F0B6FE30B90022002320462B
:1008C000294600F0A5FE20B1404649460AB0BDE8E1
:1008D0007083294B0890CDE90245CDE90445019389
:1008E00020462946CEB9254D4FF060440022002312
:1008F000CDE9064500F064FE002833D002230093C2
:10090000684600F035FAA8B1089BC3B9DDE906894D
:10091000404649460AB0BDE87083194D00240022C4
:100920000023CDE9064500F04BFE68B102239E424C
:100930000093E5D100F0DCFE22230360E4E700F041
:10094000D7FE089B0360E1E70123022E00930BD141
:1009500000F0CEFE212303600A4800F00BFACDE937
:100960000601D1E701230093684600F001FA002850
:10097000F2D1EDE7040000206C184000FFFFEFC744
:100980000000F0FF701840002DE9F04FB1F5801F16
:1009900085B006460F460B465ADA024621F000445F
:1009A000224300F0F8800029C0F27A810022D64B61
:1009B00000F09EFBD54A0B46934206460F466FF069
:1009C000350C4ADCC3F3130505F5152E0EF6647ECF
:1009D0000EF4801E8EF07F5282F440121C1542EA03
:1009E0000507A4F2FF3464440022C94B304639465F
:1009F00004EB1E5400F0C8F9AB1CC3F31303022B25
:100A000082468B464FF0000230DC002300F0D8FD18
:100A1000002800F0C980002C00F04B81204600F037
:100A200001FBA5A3D3E9002306460F4600F060FBB7
:100A3000A3A3D3E9002304460D463046394600F00F
:100A400057FB02460B462046294600F09FF90AE074
:100A5000AE4A93424FF0000CB4DD32463B4630467E
:100A6000394600F093F905B0BDE8F08F4FF08043B0
:100A700000F08CF902460B465046594600F062FCE5
:100A8000064620460F4600F0CDFA3246CDE9000179
:100A90003B4630463946CDE9026700F029FB024665
:100AA0000B468046894600F023FB87A3D3E9002349
:100AB00006460F4600F01CFB85A3D3E9002300F097
:100AC00065F932463B4600F013FB83A3D3E90023CC
:100AD00000F05CF932463B4600F00AFB80A3D3E904
:100AE000002300F053F942464B4600F001FB7EA381
:100AF000D3E90023804689463046394600F0F8FAAB
:100B00007BA3D3E9002300F041F932463B4600F0D5
:100B1000EFFA79A3D3E9002300F038F932463B46D7
:100B200000F0E6FA0B4602464946404600F02EF930
:100B3000A5F5C223C5F5D725A3F27A4351351D4348
:100B4000002D8046894656DD0022724B504659469C
:100B500000F0CEFA52465B4600F0CAFA06460F464F
:100B6000002C68D132463B464046494600F00EF91B
:100B7000DDE9022300F0BCFA02460B463046394656
:100B800000F002F902460B465046594600F0FCF8C8
:100B900005B0BDE8F08F0022002300205E4900F080
:100BA000D1FB05B0BDE8F08F55A3D3E90023504633
:100BB000594600F09DFA02460B460020554900F0C8
:100BC000E3F8524606460F465B465046594600F04B
:100BD0008FFA02460B463046394600F089FA06463F
:100BE0000F46002C40F09A8002460B46504659466C
:100BF00000F0CAF837E7002C00F0A4802EA3D3E958
:100C00000023DDE9000100F073FA42464B4604463A
:100C10000D465046594600F0B7F8DDE9022300F0D2
:100C200067FA27A3D3E9002306460F46DDE9000152
:100C300000F05EFA21E020A3D3E90023DDE9000102
:100C400000F056FA32463B4604460D4640464946B9
:100C500000F09CF8DDE9022300F04AFA18A3D3E97A
:100C6000002380468946DDE9000100F041FA024692
:100C70000B464046494600F089F802460B4630468E
:100C8000394600F081F852465B4600F07DF8024696
:100C90000B462046294600F077F805B0BDE8F08FF6
:100CA00002460B4600F070F80022002300F04AFBD9
:100CB000D9E600200021D6E60000E0FE422EE63F05
:100CC000763C7935EF39EA3D44523EDF12F1C23FBE
:100CD000DE03CB966446C73F599322942449D23F02
:100CE000935555555555E53F9FC678D0099AC33F52
:100CF000AF788E1DC571CC3F04FA97999999D93F69
:100D0000555555555555D53F00005043FFFFEF7FD2
:100D10000000F03F0000E03F000050C3204600F01C
:100D200081F90FA3D3E900238046894600F0E0F95A
:100D30000DA3D3E9002304460D464046494600F082
:100D4000D7F99AE702460B465046594600F01CF880
:100D5000DDE9022300F0CCF914E700BFAFF3008017
:100D60000000E0FE422EE63F763C7935EF39EA3D61
:100D70000020704700200149704700BF0000F87F45
:100D800081F0004102E000BF83F0004330B54FEA3C
:100D900041044FEA430594EA050F08BF90EA020FA9
:100DA0001FBF54EA000C55EA020C7FEA645C7FEA3C
:100DB000655C00F0E2804FEA5454D4EB5555B8BF5F
:100DC0006D420CDD2C4480EA020281EA030382EAD0
:100DD000000083EA010180EA020281EA0303362D62
:100DE00088BF30BD11F0004F4FEA01314FF4801C35
:100DF0004CEA113102D0404261EB410113F0004F47
:100E00004FEA03334CEA133302D0524263EB4303FD
:100E100094EA050F00F0A780A4F10104D5F1200E9B
:100E20000DDB02FA0EFC22FA05F2801841F10001F6
:100E300003FA0EF2801843FA05F359410EE0A5F1CA
:100E400020050EF1200E012A03FA0EFC28BF4CF0FB
:100E5000020C43FA05F3C01851EBE37101F00045B1
:100E600007D54FF0000EDCF1000C7EEB00006EEBBE
:100E70000101B1F5801F1BD3B1F5001F0CD3490848
:100E80005FEA30004FEA3C0C04F101044FEA44529F
:100E900012F5800F80F09A80BCF1004F08BF5FEA26
:100EA000500C50F1000041EB045141EA050130BD06
:100EB0005FEA4C0C404141EB010111F4801FA4F1A9
:100EC0000104E9D191F0000F04BF01460020B1FAFE
:100ED00081F308BF2033A3F10B03B3F120020CDA36
:100EE0000C3208DD02F1140CC2F10C0201FA0CF014
:100EF00021FA02F10CE002F11402D8BFC2F1200C79
:100F000001FA02F120FA0CFCDCBF41EA0C0190402E
:100F1000E41AA2BF01EB0451294330BD6FEA040477
:100F20001F3C1CDA0C340EDC04F11404C4F1200262
:100F300020FA04F001FA02F340EA030021FA04F374
:100F400045EA030130BDC4F10C04C4F1200220FACB
:100F500002F001FA04F340EA0300294630BD21FA09
:100F600004F0294630BD94F0000F83F4801306BFCF
:100F700081F480110134013D4EE77FEA645C18BFC3
:100F80007FEA655C29D094EA050F08BF90EA020F5A
:100F900005D054EA000C04BF1946104630BD91EA52
:100FA000030F1EBF0021002030BD5FEA545C05D155
:100FB0004000494128BF41F0004130BD14F5800494
:100FC0003CBF01F5801130BD01F0004545F0FE4108
:100FD00041F470014FF0000030BD7FEA645C1ABF3D
:100FE000194610467FEA655C1CBF0B46024650EA74
:100FF000013406BF52EA033591EA030F41F40021A0
:1010000030BD00BF90F0000F04BF0021704730B525
:101010004FF4806404F132044FF000054FF00001FA
:1010200050E700BF90F0000F04BF0021704730B5BB
:101030004FF4806404F1320410F0004548BF404290
:101040004FF000013EE700BF42004FEAE2014FEAE5
:1010500031014FEA02701FBF12F07F4393F07F4FC0
:1010600081F06051704792F0000F14BF93F07F4FF2
:10107000704730B54FF4607401F0004521F0004135
:1010800020E700BF50EA010208BF704730B54FF0BB
:1010900000050AE050EA010208BF704730B511F0C0
:1010A000004502D5404261EB41014FF4806404F1F8
:1010B00032045FEA915C3FF4DCAE4FF003025FEA7A
:1010C000DC0C18BF03325FEADC0C18BF033202EB02
:1010D000DC02C2F1200300FA03FC20FA02F001FA5C
:1010E00003FE40EA0E0021FA02F11444C1E600BFFB
:1010F00070B54FF0FF0C4CF4E06C1CEA11541DBFAE
:101100001CEA135594EA0C0F95EA0C0F00F0DEF878
:101110002C4481EA030621EA4C5123EA4C5350EA5D
:10112000013518BF52EA033541F4801143F48013AE
:1011300038D0A0FB02CE4FF00005E1FB02E506F03F
:101140000042E0FB03E54FF00006E1FB03569CF094
:10115000000F18BF4EF0010EA4F1FF04B6F5007F9A
:1011600064F5407404D25FEA4E0E6D4146EB06060C
:1011700042EAC62141EA55514FEAC52040EA5E5095
:101180004FEACE2EB4F1FD0C88BFBCF5E06F1ED83F
:10119000BEF1004F08BF5FEA500E50F1000041EB76
:1011A000045170BD06F0004646EA010140EA020023
:1011B00081EA0301B4EB5C04C2BFD4EB0C0541EA45
:1011C000045170BD41F480114FF0000E013C00F35A
:1011D000AB8014F1360FDEBF002001F0004170BD7E
:1011E000C4F10004203C35DA0C341BDC04F1140497
:1011F000C4F1200500FA05F320FA04F001FA05F223
:1012000040EA020001F0004221F0004110EBD370EF
:1012100021FA04F642EB06015EEA430E08BF20EA1B
:10122000D37070BDC4F10C04C4F1200500FA04F3BE
:1012300020FA05F001FA04F240EA020001F0004150
:1012400010EBD37041F100015EEA430E08BF20EAC3
:10125000D37070BDC4F1200500FA05F24EEA020E0B
:1012600020FA04F301FA05F243EA020321FA04F03A
:1012700001F0004121FA04F220EA020000EBD370F1
:101280005EEA430E08BF20EAD37070BD94F0000FF1
:101290000FD101F00046400041EB010111F4801F25
:1012A00008BF013CF7D041EA060195F0000F18BFD6
:1012B000704703F00046520043EB030313F4801F12
:1012C00008BF013DF7D043EA0603704794EA0C0FCC
:1012D0000CEA135518BF95EA0C0F0CD050EA4106E2
:1012E00018BF52EA4306D1D181EA030101F000415F
:1012F0004FF0000070BD50EA410606BF1046194687
:1013000052EA430619D094EA0C0F02D150EA013692
:1013100013D195EA0C0F05D152EA03361CBF1046D3
:1013200019460AD181EA030101F0004141F0FE4172
:1013300041F470014FF0000070BD41F0FE4141F4F6
:10134000780170BD70B54FF0FF0C4CF4E06C1CEAF6
:1013500011541DBF1CEA135594EA0C0F95EA0C0FAB
:1013600000F0A7F8A4EB050481EA030E52EA033566
:101370004FEA013100F088804FEA03334FF0805587
:1013800045EA131343EA12634FEA022245EA1115B4
:1013900045EA10654FEA00260EF000419D4208BF65
:1013A000964244F1FD0404F5407402D25B084FEA12
:1013B0003202B61A65EB03055B084FEA32024FF4BE
:1013C00080104FF4002CB6EB020E75EB030E22BF1B
:1013D000B61A754640EA0C005B084FEA3202B6EBDB
:1013E000020E75EB030E22BFB61A754640EA5C008A
:1013F0005B084FEA3202B6EB020E75EB030E22BF1A
:10140000B61A754640EA9C005B084FEA3202B6EB1A
:10141000020E75EB030E22BFB61A754640EADC00D9
:1014200055EA060E18D04FEA051545EA16754FEA3B
:1014300006164FEAC30343EA52734FEAC2025FEA59
:101440001C1CC0D111F4801F0BD141EA00014FF0E8
:1014500000004FF0004CB6E711F4801F04BF0143B9
:101460000020B4F1FD0C88BFBCF5E06F3FF6AFAED5
:10147000B5EB030C04BFB6EB020C5FEA500C50F165
:10148000000041EB045170BD0EF0004E4EEA1131E8
:1014900014EB5C04C2BFD4EB0C0541EA045170BDEF
:1014A00041F480114FF0000E013C90E645EA060E33
:1014B0008DE60CEA135594EA0C0F08BF95EA0C0F61
:1014C0003FF43BAF94EA0C0F0AD150EA01347FF4A9
:1014D00034AF95EA0C0F7FF425AF104619462CE780
:1014E00095EA0C0F06D152EA03353FF4FDAE1046E3
:1014F000194622E750EA410618BF52EA43067FF434
:10150000C5AE50EA41047FF40DAF52EA43057FF4C3
:10151000EBAE12E74FF0FF3C06E000BF4FF0010CCE
:1015200002E000BF4FF0010C4DF804CD4FEA410C32
:101530007FEA6C5C4FEA430C18BF7FEA6C5C1BD0FF
:1015400001B050EA410C0CBF52EA430C91EA030F80
:1015500002BF90EA020F0020704710F1000F91EADD
:10156000030F58BF994208BF90422CBFD8176FEAAB
:10157000E37040F0010070474FEA410C7FEA6C5C79
:1015800002D150EA013C07D14FEA430C7FEA6C5C80
:10159000D6D152EA033CD3D05DF8040B704700BFAC
:1015A0008446104662468C461946634600E000BFFA
:1015B00001B5FFF7B7FF002848BF10F1000F01BDCC
:1015C0004DF808EDFFF7F4FF0CBF012000205DF897
:1015D00008FB00BF4DF808EDFFF7EAFF34BF01201C
:1015E00000205DF808FB00BF4DF808EDFFF7E0FFB5
:1015F00094BF012000205DF808FB00BF4DF808ED06
:10160000FFF7CEFF94BF012000205DF808FB00BF6C
:101610004DF808EDFFF7C4FF34BF012000205DF84E
:1016200008FB00BF4FEA410C7FEA6C5C02D150EA34
:10163000013C0AD14FEA430C7FEA6C5C02D152EACA
:10164000033C02D14FF0000070474FF0010070479B
:101650004FEA4102B2F1E04324BFB3F5001CDCF1D4
:10166000FE5C0DD901F0004C4FEAC0024CEA50700C
:10167000B2F1004F40EB830008BF20F0010070473B
:1016800011F0804F21D113F13872BCBF01F000403E
:10169000704741F480114FEA5252C2F11802C2F170
:1016A000200C10FA0CF320FA02F018BF40F00100F1
:1016B0004FEAC1234FEAD32303FA0CFC40EA0C00A3
:1016C00023FA02F34FEA4303CCE77FEA625307D1E0
:1016D00050EA01331EBF4FF0FE4040F44000704717
:1016E00001F0004040F0FE4040F40000704700BFB1
:1016F000014B1868704700BF0800002070B50F4EFE
:101700000F4D761BB61018BF002405D0013455F8D4
:10171000043B9847A642F9D10A4E0B4D761B00F0C8
:10172000ABF8B61018BF002406D0013455F8043BBE
:101730009847A642F9D170BD70BD00BF8418400023
:10174000841840008C18400084184000024B13B1EC
:10175000024800F005B87047000000006D17400017
:10176000002301461A46184600F01EB838B50A4C48
:101770000A4D641BA4100AD004F18043013B05EB21
:101780008305013C55F804399847002CF9D1BDE890
:10179000384000F07BB800BF9C184000981840000B
:1017A000704700BF704700BF2DE9F8432C4D064637
:1017B000286898460F469146FFF7F2FF294B1C68B0
:1017C000D4F84831002B3ED05A681F2A1CDC02F1A5
:1017D000010E76B103EB82010124C1F88890D3F8A1
:1017E000880194402043022EC3F88801C1F8088183
:1017F00023D00232C3F804E0286843F82270FFF7D0
:10180000D1FF0020BDE8F883174B0BB34FF4C8702D
:10181000AFF300800346D8B1D4F84821026000211C
:1018200041600A46C4F848014FF0010EC0F8881123
:10183000C0F88C11002EDCD0CCE7D3F88C110C430F
:10184000C3F88C41D5E704F5A673C4F84831BBE76B
:101850002868FFF7A7FF4FF0FF30BDE8F88300BF0F
:101860003804002074184000000000006C6F67000E
:101870000000000010000020F8B500BFF8BC08BC54
:101880009E4670474D174000F1004000F8B500BF7C
:0C189000F8BC08BC9E467047CD0040002C
:10189C0000093D00010000001000002000000000C5
:1018AC0000000000FC02002064030020CC03002098
:1018BC00000000000000000000000000000000001C
:1018CC00000000000000000000000000000000000C
:1018DC0000000000000000000000000000000000FC
:1018EC0000000000000000000000000000000000EC
:1018FC0000000000000000000000000000000000DC
:10190C0000000000000000000000000000000000CB
:10191C0000000000000000000000000000000000BB
:10192C0000000000000000000000000000000000AB
:10193C00000000000000000000000000000000009B
:10194C00000000000000000001000000000000008A
:10195C000E33CDAB34126DE6ECDE05000B0000004F
:10196C00000000000000000000000000000000006B
:10197C00000000000000000000000000000000005B
:10198C00000000000000000000000000000000004B
:10199C00000000000000000000000000000000003B
:0C1CCC000000000000000000E004002008
:04000005004004BDF6
:00000001FF
